{"abi":[{"type":"constructor","inputs":[{"name":"_poolManager","type":"address","internalType":"contract IPoolManager"},{"name":"initialOwner","type":"address","internalType":"address"},{"name":"_costCalculator","type":"address","internalType":"address"},{"name":"_crossChainManager","type":"address","internalType":"address"},{"name":"_acrossIntegration","type":"address","internalType":"address"},{"name":"_chainlinkIntegration","type":"address","internalType":"address"}],"stateMutability":"nonpayable"},{"type":"receive","stateMutability":"payable"},{"type":"function","name":"acrossIntegration","inputs":[],"outputs":[{"name":"","type":"address","internalType":"contract IAcrossProtocol"}],"stateMutability":"view"},{"type":"function","name":"afterAddLiquidity","inputs":[{"name":"sender","type":"address","internalType":"address"},{"name":"key","type":"tuple","internalType":"struct PoolKey","components":[{"name":"currency0","type":"address","internalType":"Currency"},{"name":"currency1","type":"address","internalType":"Currency"},{"name":"fee","type":"uint24","internalType":"uint24"},{"name":"tickSpacing","type":"int24","internalType":"int24"},{"name":"hooks","type":"address","internalType":"contract IHooks"}]},{"name":"params","type":"tuple","internalType":"struct ModifyLiquidityParams","components":[{"name":"tickLower","type":"int24","internalType":"int24"},{"name":"tickUpper","type":"int24","internalType":"int24"},{"name":"liquidityDelta","type":"int256","internalType":"int256"},{"name":"salt","type":"bytes32","internalType":"bytes32"}]},{"name":"delta","type":"int256","internalType":"BalanceDelta"},{"name":"feesAccrued","type":"int256","internalType":"BalanceDelta"},{"name":"hookData","type":"bytes","internalType":"bytes"}],"outputs":[{"name":"","type":"bytes4","internalType":"bytes4"},{"name":"","type":"int256","internalType":"BalanceDelta"}],"stateMutability":"nonpayable"},{"type":"function","name":"afterDonate","inputs":[{"name":"sender","type":"address","internalType":"address"},{"name":"key","type":"tuple","internalType":"struct PoolKey","components":[{"name":"currency0","type":"address","internalType":"Currency"},{"name":"currency1","type":"address","internalType":"Currency"},{"name":"fee","type":"uint24","internalType":"uint24"},{"name":"tickSpacing","type":"int24","internalType":"int24"},{"name":"hooks","type":"address","internalType":"contract IHooks"}]},{"name":"amount0","type":"uint256","internalType":"uint256"},{"name":"amount1","type":"uint256","internalType":"uint256"},{"name":"hookData","type":"bytes","internalType":"bytes"}],"outputs":[{"name":"","type":"bytes4","internalType":"bytes4"}],"stateMutability":"nonpayable"},{"type":"function","name":"afterInitialize","inputs":[{"name":"sender","type":"address","internalType":"address"},{"name":"key","type":"tuple","internalType":"struct PoolKey","components":[{"name":"currency0","type":"address","internalType":"Currency"},{"name":"currency1","type":"address","internalType":"Currency"},{"name":"fee","type":"uint24","internalType":"uint24"},{"name":"tickSpacing","type":"int24","internalType":"int24"},{"name":"hooks","type":"address","internalType":"contract IHooks"}]},{"name":"sqrtPriceX96","type":"uint160","internalType":"uint160"},{"name":"tick","type":"int24","internalType":"int24"}],"outputs":[{"name":"","type":"bytes4","internalType":"bytes4"}],"stateMutability":"nonpayable"},{"type":"function","name":"afterRemoveLiquidity","inputs":[{"name":"sender","type":"address","internalType":"address"},{"name":"key","type":"tuple","internalType":"struct PoolKey","components":[{"name":"currency0","type":"address","internalType":"Currency"},{"name":"currency1","type":"address","internalType":"Currency"},{"name":"fee","type":"uint24","internalType":"uint24"},{"name":"tickSpacing","type":"int24","internalType":"int24"},{"name":"hooks","type":"address","internalType":"contract IHooks"}]},{"name":"params","type":"tuple","internalType":"struct ModifyLiquidityParams","components":[{"name":"tickLower","type":"int24","internalType":"int24"},{"name":"tickUpper","type":"int24","internalType":"int24"},{"name":"liquidityDelta","type":"int256","internalType":"int256"},{"name":"salt","type":"bytes32","internalType":"bytes32"}]},{"name":"delta","type":"int256","internalType":"BalanceDelta"},{"name":"feesAccrued","type":"int256","internalType":"BalanceDelta"},{"name":"hookData","type":"bytes","internalType":"bytes"}],"outputs":[{"name":"","type":"bytes4","internalType":"bytes4"},{"name":"","type":"int256","internalType":"BalanceDelta"}],"stateMutability":"nonpayable"},{"type":"function","name":"afterSwap","inputs":[{"name":"sender","type":"address","internalType":"address"},{"name":"key","type":"tuple","internalType":"struct PoolKey","components":[{"name":"currency0","type":"address","internalType":"Currency"},{"name":"currency1","type":"address","internalType":"Currency"},{"name":"fee","type":"uint24","internalType":"uint24"},{"name":"tickSpacing","type":"int24","internalType":"int24"},{"name":"hooks","type":"address","internalType":"contract IHooks"}]},{"name":"params","type":"tuple","internalType":"struct SwapParams","components":[{"name":"zeroForOne","type":"bool","internalType":"bool"},{"name":"amountSpecified","type":"int256","internalType":"int256"},{"name":"sqrtPriceLimitX96","type":"uint160","internalType":"uint160"}]},{"name":"delta","type":"int256","internalType":"BalanceDelta"},{"name":"hookData","type":"bytes","internalType":"bytes"}],"outputs":[{"name":"","type":"bytes4","internalType":"bytes4"},{"name":"","type":"int128","internalType":"int128"}],"stateMutability":"nonpayable"},{"type":"function","name":"beforeAddLiquidity","inputs":[{"name":"sender","type":"address","internalType":"address"},{"name":"key","type":"tuple","internalType":"struct PoolKey","components":[{"name":"currency0","type":"address","internalType":"Currency"},{"name":"currency1","type":"address","internalType":"Currency"},{"name":"fee","type":"uint24","internalType":"uint24"},{"name":"tickSpacing","type":"int24","internalType":"int24"},{"name":"hooks","type":"address","internalType":"contract IHooks"}]},{"name":"params","type":"tuple","internalType":"struct ModifyLiquidityParams","components":[{"name":"tickLower","type":"int24","internalType":"int24"},{"name":"tickUpper","type":"int24","internalType":"int24"},{"name":"liquidityDelta","type":"int256","internalType":"int256"},{"name":"salt","type":"bytes32","internalType":"bytes32"}]},{"name":"hookData","type":"bytes","internalType":"bytes"}],"outputs":[{"name":"","type":"bytes4","internalType":"bytes4"}],"stateMutability":"nonpayable"},{"type":"function","name":"beforeDonate","inputs":[{"name":"sender","type":"address","internalType":"address"},{"name":"key","type":"tuple","internalType":"struct PoolKey","components":[{"name":"currency0","type":"address","internalType":"Currency"},{"name":"currency1","type":"address","internalType":"Currency"},{"name":"fee","type":"uint24","internalType":"uint24"},{"name":"tickSpacing","type":"int24","internalType":"int24"},{"name":"hooks","type":"address","internalType":"contract IHooks"}]},{"name":"amount0","type":"uint256","internalType":"uint256"},{"name":"amount1","type":"uint256","internalType":"uint256"},{"name":"hookData","type":"bytes","internalType":"bytes"}],"outputs":[{"name":"","type":"bytes4","internalType":"bytes4"}],"stateMutability":"nonpayable"},{"type":"function","name":"beforeInitialize","inputs":[{"name":"sender","type":"address","internalType":"address"},{"name":"key","type":"tuple","internalType":"struct PoolKey","components":[{"name":"currency0","type":"address","internalType":"Currency"},{"name":"currency1","type":"address","internalType":"Currency"},{"name":"fee","type":"uint24","internalType":"uint24"},{"name":"tickSpacing","type":"int24","internalType":"int24"},{"name":"hooks","type":"address","internalType":"contract IHooks"}]},{"name":"sqrtPriceX96","type":"uint160","internalType":"uint160"}],"outputs":[{"name":"","type":"bytes4","internalType":"bytes4"}],"stateMutability":"nonpayable"},{"type":"function","name":"beforeRemoveLiquidity","inputs":[{"name":"sender","type":"address","internalType":"address"},{"name":"key","type":"tuple","internalType":"struct PoolKey","components":[{"name":"currency0","type":"address","internalType":"Currency"},{"name":"currency1","type":"address","internalType":"Currency"},{"name":"fee","type":"uint24","internalType":"uint24"},{"name":"tickSpacing","type":"int24","internalType":"int24"},{"name":"hooks","type":"address","internalType":"contract IHooks"}]},{"name":"params","type":"tuple","internalType":"struct ModifyLiquidityParams","components":[{"name":"tickLower","type":"int24","internalType":"int24"},{"name":"tickUpper","type":"int24","internalType":"int24"},{"name":"liquidityDelta","type":"int256","internalType":"int256"},{"name":"salt","type":"bytes32","internalType":"bytes32"}]},{"name":"hookData","type":"bytes","internalType":"bytes"}],"outputs":[{"name":"","type":"bytes4","internalType":"bytes4"}],"stateMutability":"nonpayable"},{"type":"function","name":"beforeSwap","inputs":[{"name":"sender","type":"address","internalType":"address"},{"name":"key","type":"tuple","internalType":"struct PoolKey","components":[{"name":"currency0","type":"address","internalType":"Currency"},{"name":"currency1","type":"address","internalType":"Currency"},{"name":"fee","type":"uint24","internalType":"uint24"},{"name":"tickSpacing","type":"int24","internalType":"int24"},{"name":"hooks","type":"address","internalType":"contract IHooks"}]},{"name":"params","type":"tuple","internalType":"struct SwapParams","components":[{"name":"zeroForOne","type":"bool","internalType":"bool"},{"name":"amountSpecified","type":"int256","internalType":"int256"},{"name":"sqrtPriceLimitX96","type":"uint160","internalType":"uint160"}]},{"name":"hookData","type":"bytes","internalType":"bytes"}],"outputs":[{"name":"","type":"bytes4","internalType":"bytes4"},{"name":"","type":"int256","internalType":"BeforeSwapDelta"},{"name":"","type":"uint24","internalType":"uint24"}],"stateMutability":"nonpayable"},{"type":"function","name":"chainlinkIntegration","inputs":[],"outputs":[{"name":"","type":"address","internalType":"contract IChainlinkAggregator"}],"stateMutability":"view"},{"type":"function","name":"costCalculator","inputs":[],"outputs":[{"name":"","type":"address","internalType":"contract ICostCalculator"}],"stateMutability":"view"},{"type":"function","name":"crossChainManager","inputs":[],"outputs":[{"name":"","type":"address","internalType":"contract ICrossChainManager"}],"stateMutability":"view"},{"type":"function","name":"emergencyWithdraw","inputs":[{"name":"token","type":"address","internalType":"address"},{"name":"amount","type":"uint256","internalType":"uint256"},{"name":"to","type":"address","internalType":"address"}],"outputs":[],"stateMutability":"nonpayable"},{"type":"function","name":"getHookPermissions","inputs":[],"outputs":[{"name":"","type":"tuple","internalType":"struct Hooks.Permissions","components":[{"name":"beforeInitialize","type":"bool","internalType":"bool"},{"name":"afterInitialize","type":"bool","internalType":"bool"},{"name":"beforeAddLiquidity","type":"bool","internalType":"bool"},{"name":"afterAddLiquidity","type":"bool","internalType":"bool"},{"name":"beforeRemoveLiquidity","type":"bool","internalType":"bool"},{"name":"afterRemoveLiquidity","type":"bool","internalType":"bool"},{"name":"beforeSwap","type":"bool","internalType":"bool"},{"name":"afterSwap","type":"bool","internalType":"bool"},{"name":"beforeDonate","type":"bool","internalType":"bool"},{"name":"afterDonate","type":"bool","internalType":"bool"},{"name":"beforeSwapReturnDelta","type":"bool","internalType":"bool"},{"name":"afterSwapReturnDelta","type":"bool","internalType":"bool"},{"name":"afterAddLiquidityReturnDelta","type":"bool","internalType":"bool"},{"name":"afterRemoveLiquidityReturnDelta","type":"bool","internalType":"bool"}]}],"stateMutability":"pure"},{"type":"function","name":"getOptimizationQuote","inputs":[{"name":"params","type":"tuple","internalType":"struct SwapParams","components":[{"name":"zeroForOne","type":"bool","internalType":"bool"},{"name":"amountSpecified","type":"int256","internalType":"int256"},{"name":"sqrtPriceLimitX96","type":"uint160","internalType":"uint160"}]},{"name":"key","type":"tuple","internalType":"struct PoolKey","components":[{"name":"currency0","type":"address","internalType":"Currency"},{"name":"currency1","type":"address","internalType":"Currency"},{"name":"fee","type":"uint24","internalType":"uint24"},{"name":"tickSpacing","type":"int24","internalType":"int24"},{"name":"hooks","type":"address","internalType":"contract IHooks"}]}],"outputs":[{"name":"","type":"tuple","internalType":"struct IGasOptimizationHook.OptimizationQuote","components":[{"name":"originalChainId","type":"uint256","internalType":"uint256"},{"name":"optimizedChainId","type":"uint256","internalType":"uint256"},{"name":"originalCostUSD","type":"uint256","internalType":"uint256"},{"name":"optimizedCostUSD","type":"uint256","internalType":"uint256"},{"name":"savingsUSD","type":"uint256","internalType":"uint256"},{"name":"savingsPercentageBPS","type":"uint256","internalType":"uint256"},{"name":"estimatedBridgeTime","type":"uint256","internalType":"uint256"},{"name":"shouldOptimize","type":"bool","internalType":"bool"}]}],"stateMutability":"view"},{"type":"function","name":"getSystemMetrics","inputs":[],"outputs":[{"name":"totalSwapsOptimizedCount","type":"uint256","internalType":"uint256"},{"name":"totalSavingsUSD","type":"uint256","internalType":"uint256"},{"name":"averageSavingsPercentage","type":"uint256","internalType":"uint256"}],"stateMutability":"view"},{"type":"function","name":"getUserPreferences","inputs":[{"name":"user","type":"address","internalType":"address"}],"outputs":[{"name":"","type":"tuple","internalType":"struct IGasOptimizationHook.UserPreferences","components":[{"name":"minSavingsThresholdBPS","type":"uint256","internalType":"uint256"},{"name":"minAbsoluteSavingsUSD","type":"uint256","internalType":"uint256"},{"name":"maxAcceptableBridgeTime","type":"uint256","internalType":"uint256"},{"name":"enableCrossChainOptimization","type":"bool","internalType":"bool"},{"name":"enableUSDDisplay","type":"bool","internalType":"bool"}]}],"stateMutability":"view"},{"type":"function","name":"getUserSavings","inputs":[{"name":"user","type":"address","internalType":"address"}],"outputs":[{"name":"","type":"uint256","internalType":"uint256"}],"stateMutability":"view"},{"type":"function","name":"isHookPaused","inputs":[],"outputs":[{"name":"","type":"bool","internalType":"bool"}],"stateMutability":"view"},{"type":"function","name":"isPaused","inputs":[],"outputs":[{"name":"","type":"bool","internalType":"bool"}],"stateMutability":"view"},{"type":"function","name":"maxBridgeTime","inputs":[],"outputs":[{"name":"","type":"uint256","internalType":"uint256"}],"stateMutability":"view"},{"type":"function","name":"minAbsoluteSavingsUSD","inputs":[],"outputs":[{"name":"","type":"uint256","internalType":"uint256"}],"stateMutability":"view"},{"type":"function","name":"minSavingsThresholdBPS","inputs":[],"outputs":[{"name":"","type":"uint256","internalType":"uint256"}],"stateMutability":"view"},{"type":"function","name":"owner","inputs":[],"outputs":[{"name":"","type":"address","internalType":"address"}],"stateMutability":"view"},{"type":"function","name":"pauseHook","inputs":[{"name":"pause","type":"bool","internalType":"bool"}],"outputs":[],"stateMutability":"nonpayable"},{"type":"function","name":"poolManager","inputs":[],"outputs":[{"name":"","type":"address","internalType":"contract IPoolManager"}],"stateMutability":"view"},{"type":"function","name":"renounceOwnership","inputs":[],"outputs":[],"stateMutability":"nonpayable"},{"type":"function","name":"setUserPreferences","inputs":[{"name":"preferences","type":"tuple","internalType":"struct IGasOptimizationHook.UserPreferences","components":[{"name":"minSavingsThresholdBPS","type":"uint256","internalType":"uint256"},{"name":"minAbsoluteSavingsUSD","type":"uint256","internalType":"uint256"},{"name":"maxAcceptableBridgeTime","type":"uint256","internalType":"uint256"},{"name":"enableCrossChainOptimization","type":"bool","internalType":"bool"},{"name":"enableUSDDisplay","type":"bool","internalType":"bool"}]}],"outputs":[],"stateMutability":"nonpayable"},{"type":"function","name":"totalSwapsOptimized","inputs":[],"outputs":[{"name":"","type":"uint256","internalType":"uint256"}],"stateMutability":"view"},{"type":"function","name":"totalSystemSavingsUSD","inputs":[],"outputs":[{"name":"","type":"uint256","internalType":"uint256"}],"stateMutability":"view"},{"type":"function","name":"transferOwnership","inputs":[{"name":"newOwner","type":"address","internalType":"address"}],"outputs":[],"stateMutability":"nonpayable"},{"type":"function","name":"updateSystemConfiguration","inputs":[{"name":"_minSavingsThresholdBPS","type":"uint256","internalType":"uint256"},{"name":"_minAbsoluteSavingsUSD","type":"uint256","internalType":"uint256"},{"name":"_maxBridgeTime","type":"uint256","internalType":"uint256"}],"outputs":[],"stateMutability":"nonpayable"},{"type":"function","name":"userTotalSavings","inputs":[{"name":"","type":"address","internalType":"address"}],"outputs":[{"name":"","type":"uint256","internalType":"uint256"}],"stateMutability":"view"},{"type":"event","name":"ConfigurationUpdated","inputs":[{"name":"minSavingsThresholdBPS","type":"uint256","indexed":false,"internalType":"uint256"},{"name":"minAbsoluteSavingsUSD","type":"uint256","indexed":false,"internalType":"uint256"},{"name":"maxBridgeTime","type":"uint256","indexed":false,"internalType":"uint256"}],"anonymous":false},{"type":"event","name":"EmergencyPauseToggled","inputs":[{"name":"isPaused","type":"bool","indexed":false,"internalType":"bool"},{"name":"admin","type":"address","indexed":true,"internalType":"address"}],"anonymous":false},{"type":"event","name":"OwnershipTransferred","inputs":[{"name":"previousOwner","type":"address","indexed":true,"internalType":"address"},{"name":"newOwner","type":"address","indexed":true,"internalType":"address"}],"anonymous":false},{"type":"event","name":"SwapExecutedLocally","inputs":[{"name":"user","type":"address","indexed":true,"internalType":"address"},{"name":"tokenIn","type":"address","indexed":true,"internalType":"address"},{"name":"tokenOut","type":"address","indexed":true,"internalType":"address"},{"name":"amountIn","type":"uint256","indexed":false,"internalType":"uint256"},{"name":"reason","type":"string","indexed":false,"internalType":"string"}],"anonymous":false},{"type":"event","name":"SwapOptimized","inputs":[{"name":"user","type":"address","indexed":true,"internalType":"address"},{"name":"tokenIn","type":"address","indexed":true,"internalType":"address"},{"name":"tokenOut","type":"address","indexed":true,"internalType":"address"},{"name":"amountIn","type":"uint256","indexed":false,"internalType":"uint256"},{"name":"originalChainId","type":"uint256","indexed":false,"internalType":"uint256"},{"name":"optimizedChainId","type":"uint256","indexed":false,"internalType":"uint256"},{"name":"savingsUSD","type":"uint256","indexed":false,"internalType":"uint256"}],"anonymous":false},{"type":"error","name":"EmergencyPauseActive","inputs":[]},{"type":"error","name":"HookNotImplemented","inputs":[]},{"type":"error","name":"InvalidPoolKey","inputs":[]},{"type":"error","name":"NotPoolManager","inputs":[]},{"type":"error","name":"OwnableInvalidOwner","inputs":[{"name":"owner","type":"address","internalType":"address"}]},{"type":"error","name":"OwnableUnauthorizedAccount","inputs":[{"name":"account","type":"address","internalType":"address"}]},{"type":"error","name":"ReentrancyGuardReentrantCall","inputs":[]},{"type":"error","name":"TransferFailed","inputs":[]},{"type":"error","name":"ZeroAddress","inputs":[]},{"type":"error","name":"ZeroAmount","inputs":[]}],"bytecode":{"object":"0x60a06040523461039c57604051601f612d0c38819003918201601f19168301916001600160401b038311848410176103a05780849260c09460405283398101031261039c5780516001600160a01b038116810361039c57610062602083016103d4565b9161006f604082016103d4565b9261007c606083016103d4565b9061009560a061008e608086016103d4565b94016103d4565b936080525f6101a06100a56103b4565b8281528260208201528260408201528260608201528260808201528260a08201528260c08201528260e0820152826101008201528261012082015282610140820152826101608201528261018082015201525f6101a06101036103b4565b8281528260208201528260408201528260608201528260808201528260a0820152600160c08201528260e08201528261010082015282610120820152826101408201528261016082015282610180820152015261200030161580159061038f575b8015610382575b8015610375575b8015610368575b801561035b575b801561034b575b801561033f575b8015610333575b8015610327575b801561031b575b801561030f575b8015610303575b80156102f7575b6102e4576001600160a01b03169384156102d1575f80546001600160a01b031981168717825560405196916001600160a01b03909116907f8be0079c531659141344cd1fd0a4f28419497f9722a3daafe3b4186f6b6457e09080a3600180556101f4600755678ac7230489e80000600890815561070860095560028054610100600160a81b0319169290911b610100600160a81b0316919091179055600380546001600160a01b03199081166001600160a01b03938416179091556004805482169383169390931790925560058054909216921691909117905561292390816103e9823960805181818161035901528181610451015281816104e9015281816107f90152818161095b01528181610fb401526114dc0152f35b631e4fbdf760e01b5f525f60045260245ffd5b630732d7b560e51b5f523060045260245ffd5b506001301615156101b8565b506002301615156101b1565b506004301615156101aa565b506008301615156101a3565b5060103016151561019c565b50602030161515610195565b5060403016151561018e565b5060803016151560011415610187565b5061010030161515610180565b5061020030161515610179565b5061040030161515610172565b506108003016151561016b565b5061100030161515610164565b5f80fd5b634e487b7160e01b5f52604160045260245ffd5b604051906101c082016001600160401b038111838210176103a057604052565b51906001600160a01b038216820361039c5756fe6080604052600436101561001a575b3615610018575f80fd5b005b5f3560e01c806321d0ee70146114b25780632513f4611461152a578063259982e5146114b257806332f39c8f1461147757806335b12333146114015780634dbf04e414611332578063551512de146111a1578063575e24b414610eef5780636c2bbe7e1461092f5780636cfccc2f14610e3c5780636fe7e6eb14610dc8578063715018a614610d2e578063749d9d3614610cf357806378553c7d14610b0e5780638777a920146108475780638da079ac14610ad35780638da5cb5b14610a8357806390beb9ae146109e45780639cf9b311146109a95780639f063efc1461092f578063a28fb7881461089d578063abcb56341461084c578063b187bd2614610847578063b47b2fb114610732578063b6a8b0fa1461032e578063c38212f3146101a0578063c4e833ce146105af578063cf5baffa1461055e578063d593df6d1461050d578063dc4c90d31461049f578063dc98354e146103cf578063e1b4af691461032e578063e6e55612146102f3578063f2fde38b146102075763f80a20570361000e575b346102035760207ffffffffffffffffffffffffffffffffffffffffffffffffffffffffffffffffc3601126102035773ffffffffffffffffffffffffffffffffffffffff6101ec61157e565b165f52600a602052602060405f2054604051908152f35b5f80fd5b346102035760207ffffffffffffffffffffffffffffffffffffffffffffffffffffffffffffffffc3601126102035773ffffffffffffffffffffffffffffffffffffffff61025361157e565b61025b611b77565b1680156102c75773ffffffffffffffffffffffffffffffffffffffff5f54827fffffffffffffffffffffffff00000000000000000000000000000000000000008216175f55167f8be0079c531659141344cd1fd0a4f28419497f9722a3daafe3b4186f6b6457e05f80a3005b7f1e4fbdf7000000000000000000000000000000000000000000000000000000005f525f60045260245ffd5b34610203575f7ffffffffffffffffffffffffffffffffffffffffffffffffffffffffffffffffc360112610203576020600854604051908152f35b346102035761033c366117ff565b50505050505073ffffffffffffffffffffffffffffffffffffffff7f00000000000000000000000000000000000000000000000000000000000000001633036103a7577f0a85dc29000000000000000000000000000000000000000000000000000000005f5260045ffd5b7fae18210a000000000000000000000000000000000000000000000000000000005f5260045ffd5b346102035760e07ffffffffffffffffffffffffffffffffffffffffffffffffffffffffffffffffc3601126102035761040661157e565b5060a07fffffffffffffffffffffffffffffffffffffffffffffffffffffffffffffffdc3601126102035761043961178c565b5073ffffffffffffffffffffffffffffffffffffffff7f00000000000000000000000000000000000000000000000000000000000000001633036103a7577f0a85dc29000000000000000000000000000000000000000000000000000000005f5260045ffd5b34610203575f7ffffffffffffffffffffffffffffffffffffffffffffffffffffffffffffffffc36011261020357602060405173ffffffffffffffffffffffffffffffffffffffff7f0000000000000000000000000000000000000000000000000000000000000000168152f35b34610203575f7ffffffffffffffffffffffffffffffffffffffffffffffffffffffffffffffffc36011261020357602073ffffffffffffffffffffffffffffffffffffffff60045416604051908152f35b34610203575f7ffffffffffffffffffffffffffffffffffffffffffffffffffffffffffffffffc36011261020357602073ffffffffffffffffffffffffffffffffffffffff60035416604051908152f35b34610203575f7ffffffffffffffffffffffffffffffffffffffffffffffffffffffffffffffffc360112610203575f6101a06040516105ed816118e9565b8281528260208201528260408201528260608201528260808201528260a08201528260c08201528260e0820152826101008201528261012082015282610140820152826101608201528261018082015201526101c06020604051610650816118e9565b5f8152818101905f8252604081015f8152606082015f8152608083015f815260a084015f815260c085016001815260e08601905f82526101008701925f84526101208801945f86526101408901965f88526101608a01985f8a526101a06101808c019b5f8d52019b5f8d526040519d8e915f835251151591015251151560408d015251151560608c015251151560808b015251151560a08a015251151560c089015251151560e08801525115156101008701525115156101208601525115156101408501525115156101608401525115156101808301525115156101a0820152f35b34610203576101607ffffffffffffffffffffffffffffffffffffffffffffffffffffffffffffffffc3601126102035761076a61157e565b5060a07fffffffffffffffffffffffffffffffffffffffffffffffffffffffffffffffdc3601126102035760607fffffffffffffffffffffffffffffffffffffffffffffffffffffffffffffff3c360112610203576101443567ffffffffffffffff8111610203576107e09036906004016115c2565b505073ffffffffffffffffffffffffffffffffffffffff7f00000000000000000000000000000000000000000000000000000000000000001633036103a7577f0a85dc29000000000000000000000000000000000000000000000000000000005f5260045ffd5b6117bf565b34610203575f7ffffffffffffffffffffffffffffffffffffffffffffffffffffffffffffffffc36011261020357602073ffffffffffffffffffffffffffffffffffffffff60055416604051908152f35b346102035760607ffffffffffffffffffffffffffffffffffffffffffffffffffffffffffffffffc360112610203577fd1df9ea585fa96cacfd37b45876312d2c04c0f6bf740539becffbec7e81822be60243560043561092a604435610901611b77565b826007558360085580600955604051938493846040919493926060820195825260208201520152565b0390a1005b346102035761093d366116bb565b5050505050505073ffffffffffffffffffffffffffffffffffffffff7f00000000000000000000000000000000000000000000000000000000000000001633036103a7577f0a85dc29000000000000000000000000000000000000000000000000000000005f5260045ffd5b34610203575f7ffffffffffffffffffffffffffffffffffffffffffffffffffffffffffffffffc360112610203576020600b54604051908152f35b346102035760207ffffffffffffffffffffffffffffffffffffffffffffffffffffffffffffffffc3601126102035760043580151580910361020357610a28611b77565b7fffffffffffffffffffffffffffffffffffffffffffffffffffffffffffffff006002541660ff8216176002556040519081527f81fb10540499dac6157b25576349c719be885b5774e4a0dda606c2f33947d51f60203392a2005b34610203575f7ffffffffffffffffffffffffffffffffffffffffffffffffffffffffffffffffc36011261020357602073ffffffffffffffffffffffffffffffffffffffff5f5416604051908152f35b34610203575f7ffffffffffffffffffffffffffffffffffffffffffffffffffffffffffffffffc360112610203576020600c54604051908152f35b34610203577ffffffffffffffffffffffffffffffffffffffffffffffffffffffffffffffffc36016101008112610203576060136102035760a07fffffffffffffffffffffffffffffffffffffffffffffffffffffffffffffff9c36011261020357610b78611af6565b50604051610b85816118a0565b338152604051610b94816118a0565b60643573ffffffffffffffffffffffffffffffffffffffff8116810361020357815260843573ffffffffffffffffffffffffffffffffffffffff8116810361020357602082015260a43562ffffff8116810361020357604082015260c4358060020b810361020357606082015260e43573ffffffffffffffffffffffffffffffffffffffff81168103610203576080820152602082015260405190610c3882611923565b600435801515810361020357825260243560208301526044359073ffffffffffffffffffffffffffffffffffffffff821682036102035782610ca29260406101009501526040820152466060820152604051610c9560208261193f565b5f81526080820152612206565b60e060405191805183526020810151602084015260408101516040840152606081015160608401526080810151608084015260a081015160a084015260c081015160c08401520151151560e0820152f35b34610203575f7ffffffffffffffffffffffffffffffffffffffffffffffffffffffffffffffffc360112610203576020600954604051908152f35b34610203575f7ffffffffffffffffffffffffffffffffffffffffffffffffffffffffffffffffc36011261020357610d64611b77565b5f73ffffffffffffffffffffffffffffffffffffffff81547fffffffffffffffffffffffff000000000000000000000000000000000000000081168355167f8be0079c531659141344cd1fd0a4f28419497f9722a3daafe3b4186f6b6457e08280a3005b34610203576101007ffffffffffffffffffffffffffffffffffffffffffffffffffffffffffffffffc36011261020357610e0061157e565b5060a07fffffffffffffffffffffffffffffffffffffffffffffffffffffffffffffffdc36011261020357610e3361178c565b506104396117af565b34610203575f7ffffffffffffffffffffffffffffffffffffffffffffffffffffffffffffffffc36011261020357600b54600c54908015610ee65761271082028281046127101483151715610eb957610e9882610eb592611abf565b604051938493846040919493926060820195825260208201520152565b0390f35b7f4e487b71000000000000000000000000000000000000000000000000000000005f52601160045260245ffd5b610eb55f610e98565b34610203576101407ffffffffffffffffffffffffffffffffffffffffffffffffffffffffffffffffc36011261020357610f2761157e565b60a07fffffffffffffffffffffffffffffffffffffffffffffffffffffffffffffffdc3601126102035760607fffffffffffffffffffffffffffffffffffffffffffffffffffffffffffffff3c360112610203576101243567ffffffffffffffff811161020357610f9c9036906004016115c2565b9173ffffffffffffffffffffffffffffffffffffffff7f00000000000000000000000000000000000000000000000000000000000000001633036103a75760ff6002541661117957604051610ff0816118a0565b60243573ffffffffffffffffffffffffffffffffffffffff811681036102035781526044359073ffffffffffffffffffffffffffffffffffffffff82168203610203576020810191825260643562ffffff811681036102035760408201526084358060020b810361020357606082015260a4359073ffffffffffffffffffffffffffffffffffffffff821682036102035773ffffffffffffffffffffffffffffffffffffffff916080820152511615908115611159575b50611131576002600154146111095760609262ffffff926110cc926002600155611bef565b90600180949394557fffffffff00000000000000000000000000000000000000000000000000000000604051941684526020840152166040820152f35b7f3ee5aeb5000000000000000000000000000000000000000000000000000000005f5260045ffd5b7fc256622b000000000000000000000000000000000000000000000000000000005f5260045ffd5b73ffffffffffffffffffffffffffffffffffffffff9150511615846110a7565b7f909b1917000000000000000000000000000000000000000000000000000000005f5260045ffd5b346102035760607ffffffffffffffffffffffffffffffffffffffffffffffffffffffffffffffffc360112610203576111d861157e565b6024356044359073ffffffffffffffffffffffffffffffffffffffff82169182810361020357611206611b77565b821561130a575f93849373ffffffffffffffffffffffffffffffffffffffff821661126b575050829182915af161123b611a83565b501561124357005b7f90b8ec18000000000000000000000000000000000000000000000000000000005f5260045ffd5b91509183906040519060208201937fa9059cbb00000000000000000000000000000000000000000000000000000000855260248301526044820152604481526112b560648261193f565b51925af16112c1611a83565b90159081156112d2575b5061124357005b80518015159250826112e7575b5050816112cb565b81925090602091810103126102035760206113029101611ab2565b1581806112df565b7fd92e233d000000000000000000000000000000000000000000000000000000005f5260045ffd5b346102035760a07ffffffffffffffffffffffffffffffffffffffffffffffffffffffffffffffffc36011261020357335f526006602052600360405f206004358155602435600182015560443560028201550160643580151590818103610203575060ff7fffffffffffffffffffffffffffffffffffffffffffffffffffffffffffffff00835416911617815560843580151590818103610203575081547fffffffffffffffffffffffffffffffffffffffffffffffffffffffffffff00ff1660089190911b61ff0016179055005b346102035760207ffffffffffffffffffffffffffffffffffffffffffffffffffffffffffffffffc3601126102035760a061144261143d61157e565b611980565b608060405191805183526020810151602084015260408101516040840152606081015115156060840152015115156080820152f35b34610203575f7ffffffffffffffffffffffffffffffffffffffffffffffffffffffffffffffffc360112610203576020600754604051908152f35b34610203576114c0366115f0565b505050505073ffffffffffffffffffffffffffffffffffffffff7f00000000000000000000000000000000000000000000000000000000000000001633036103a7577f0a85dc29000000000000000000000000000000000000000000000000000000005f5260045ffd5b34610203575f7ffffffffffffffffffffffffffffffffffffffffffffffffffffffffffffffffc36011261020357602073ffffffffffffffffffffffffffffffffffffffff60025460081c16604051908152f35b6004359073ffffffffffffffffffffffffffffffffffffffff8216820361020357565b359073ffffffffffffffffffffffffffffffffffffffff8216820361020357565b9181601f840112156102035782359167ffffffffffffffff8311610203576020838186019501011161020357565b906101607ffffffffffffffffffffffffffffffffffffffffffffffffffffffffffffffffc8301126102035760043573ffffffffffffffffffffffffffffffffffffffff81168103610203579160a07fffffffffffffffffffffffffffffffffffffffffffffffffffffffffffffffdc8201126102035760249160807fffffffffffffffffffffffffffffffffffffffffffffffffffffffffffffff3c8301126102035760c491610144359067ffffffffffffffff8211610203576116b7916004016115c2565b9091565b906101a07ffffffffffffffffffffffffffffffffffffffffffffffffffffffffffffffffc8301126102035760043573ffffffffffffffffffffffffffffffffffffffff81168103610203579160a07fffffffffffffffffffffffffffffffffffffffffffffffffffffffffffffffdc8201126102035760249160807fffffffffffffffffffffffffffffffffffffffffffffffffffffffffffffff3c8301126102035760c49161014435916101643591610184359067ffffffffffffffff8211610203576116b7916004016115c2565b60c4359073ffffffffffffffffffffffffffffffffffffffff8216820361020357565b60e435908160020b820361020357565b34610203575f7ffffffffffffffffffffffffffffffffffffffffffffffffffffffffffffffffc36011261020357602060ff600254166040519015158152f35b6101207ffffffffffffffffffffffffffffffffffffffffffffffffffffffffffffffffc8201126102035760043573ffffffffffffffffffffffffffffffffffffffff81168103610203579160a07fffffffffffffffffffffffffffffffffffffffffffffffffffffffffffffffdc8301126102035760249160c4359160e43591610104359067ffffffffffffffff8211610203576116b7916004016115c2565b60a0810190811067ffffffffffffffff8211176118bc57604052565b7f4e487b71000000000000000000000000000000000000000000000000000000005f52604160045260245ffd5b6101c0810190811067ffffffffffffffff8211176118bc57604052565b610100810190811067ffffffffffffffff8211176118bc57604052565b6060810190811067ffffffffffffffff8211176118bc57604052565b90601f7fffffffffffffffffffffffffffffffffffffffffffffffffffffffffffffffe0910116810190811067ffffffffffffffff8211176118bc57604052565b73ffffffffffffffffffffffffffffffffffffffff906040516119a2816118a0565b5f81525f60208201525f60408201525f60608201525f608082015250165f52600660205260405f20604051906119d7826118a0565b60ff6003825492838552600181015460208601526002810154604086015201548181161515606085015260081c161515608083015215611a145790565b506007546008546009549060405192611a2c846118a0565b835260208301526040820152600160608201526001608082015290565b67ffffffffffffffff81116118bc57601f017fffffffffffffffffffffffffffffffffffffffffffffffffffffffffffffffe01660200190565b3d15611aad573d90611a9482611a49565b91611aa2604051938461193f565b82523d5f602084013e565b606090565b5190811515820361020357565b8115611ac9570490565b7f4e487b71000000000000000000000000000000000000000000000000000000005f52601260045260245ffd5b60405190611b0382611906565b5f60e0838281528260208201528260408201528260608201528260808201528260a08201528260c08201520152565b919082606091031261020357604051611b4a81611923565b80928035908115158203610203576040611b72918193855260208101356020860152016115a1565b910152565b73ffffffffffffffffffffffffffffffffffffffff5f54163303611b9757565b7f118cdaa7000000000000000000000000000000000000000000000000000000005f523360045260245ffd5b7f80000000000000000000000000000000000000000000000000000000000000008114610eb9575f0390565b9190916020611bff3660c4611b32565b0151156121985773ffffffffffffffffffffffffffffffffffffffff60405191611c28836118a0565b169081815260a07fffffffffffffffffffffffffffffffffffffffffffffffffffffffffffffffdc3601126102035760405192611c64846118a0565b6024359373ffffffffffffffffffffffffffffffffffffffff85168503610203578481526044359173ffffffffffffffffffffffffffffffffffffffff831683036102035782602083015260643562ffffff811681036102035760408301526084358060020b810361020357606083015260a43573ffffffffffffffffffffffffffffffffffffffff8116810361020357608083015260208401918252611d0c3660c4611b32565b91604085019283526060850191468352611d2581611a49565b98611d336040519a8b61193f565b818a52368282011161020357815f92602092838d01378a01015260808501978852611d5d85612206565b60e0810151909590156120b15773ffffffffffffffffffffffffffffffffffffffff90511690519073ffffffffffffffffffffffffffffffffffffffff60208184511693015116936020815101515f81135f146120a157505160200151925b5160208701998a5160c089015161012c8101809111610eb957611ddf90426128a6565b91519260405194610120860186811067ffffffffffffffff8211176118bc576040528552602085019586526040850197885260608501968752608085015f815260a0860191825260c0860192835260e08601938452610100860194855260035473ffffffffffffffffffffffffffffffffffffffff1697604051998a9889987f35a0b18b000000000000000000000000000000000000000000000000000000008a5260048a01602090525173ffffffffffffffffffffffffffffffffffffffff1660248a01525173ffffffffffffffffffffffffffffffffffffffff1660448901525173ffffffffffffffffffffffffffffffffffffffff1660648801525160848701525160a48601525160c48501525160e4840152516101048301525161012482016101209052805180918161014485015260200161016484015e808201610164015f9052601f017fffffffffffffffffffffffffffffffffffffffffffffffffffffffffffffffe01681010361016401815a6020945f91f180156120965761206b575b5060808201918251845f52600a60205260405f20611f838282546128a6565b9055600b549060018201809211610eb957611fa391600b55600c546128a6565b600c5573ffffffffffffffffffffffffffffffffffffffff851694858103610203575073ffffffffffffffffffffffffffffffffffffffff821695868303610203577f1377983adfab2e560d9f275c6f8832eb9b8dee56f74f86b7874751cc9eacfdec936080935060e4355f81131561205c57925b519151905191604051938452602084015260408301526060820152a47f575e24b400000000000000000000000000000000000000000000000000000000905f905f90565b61206590611bc3565b92612018565b602090813d831161208f575b612081818361193f565b81010312610203575f611f64565b503d612077565b6040513d5f823e3d90fd5b6120ab9150611bc3565b92611dbc565b5050505093505073ffffffffffffffffffffffffffffffffffffffff821691828103610203575073ffffffffffffffffffffffffffffffffffffffff83169283810361020357507f5e7846b7b7ea2993f40a75d5029f7d19e3685ae3b622facf7f90f1fea9684e5c608060e4355f81131561218a575b60405190815260406020820152601760408201527f536176696e67732062656c6f77207468726573686f6c640000000000000000006060820152a47f575e24b400000000000000000000000000000000000000000000000000000000905f905f90565b61219390611bc3565b612127565b7f1f2a2005000000000000000000000000000000000000000000000000000000005f5260045ffd5b908160a0910312610203576080604051916121da836118a0565b805183526020810151602084015260408101516040840152606081015160608401520151608082015290565b61220e611af6565b5073ffffffffffffffffffffffffffffffffffffffff815116604051907f35b12333000000000000000000000000000000000000000000000000000000008252600482015260a081602481305afa908115612096575f9161282f575b506060810151156127ee576020820180519273ffffffffffffffffffffffffffffffffffffffff6020818651169501511691604082016020815101515f81135f146127de57505160200151915b84516040602087015196015195602096604051916122d5898461193f565b5f83525f3681376040519360e085019a858c1067ffffffffffffffff8d11176118bc5773ffffffffffffffffffffffffffffffffffffffff9b60409a959493929a52855289850193845260408501978852606085019889526080850190815260a0850191825260c085019283528a60025460081c16986040519b8c957f0d45b96b0000000000000000000000000000000000000000000000000000000087528c6004880152816101048801985116602488015251166044860152885160648601525160848501525160a48401525160c4830152519160e060e483015282518091528761012483019301905f5b898282106127c75750505050806040920381875afa928315612096575f965f9461278d575b506060820194855180891461274a57509061253993929160a08751855173ffffffffffffffffffffffffffffffffffffffff8b818351169201511685519073ffffffffffffffffffffffffffffffffffffffff885116926040519461244a86611906565b85528d850152604084015260608301526201d4c06080830152828201526201d4c060c08201523a60e0820152604051809781927f4b6ded6f0000000000000000000000000000000000000000000000000000000083526004830191909160e0806101008301948051845273ffffffffffffffffffffffffffffffffffffffff602082015116602085015273ffffffffffffffffffffffffffffffffffffffff6040820151166040850152606081015160608501526080810151608085015273ffffffffffffffffffffffffffffffffffffffff60a08201511660a085015260c081015160c08501520151910152565b0381845afa9283156120965761268b955f9461272a575b5060a09394519273ffffffffffffffffffffffffffffffffffffffff8a8186511695015116905173ffffffffffffffffffffffffffffffffffffffff620668a093511691604051956125a187611906565b8d87528c870152604086015260608501528160808501528484015260c08301523a60e083015260405180809681947f4b6ded6f0000000000000000000000000000000000000000000000000000000083526004830191909160e0806101008301948051845273ffffffffffffffffffffffffffffffffffffffff602082015116602085015273ffffffffffffffffffffffffffffffffffffffff6040820151166040850152606081015160608501526080810151608085015273ffffffffffffffffffffffffffffffffffffffff60a08201511660a085015260c081015160c08501520151910152565b03915afa918215612096575f926126f6575b506060019485519060806126b760608501938451906128b3565b95519751925193015195604051976126ce89611906565b885287015260408601526060850152608084015260a083015260c0820152600160e082015290565b606091925061271c9060a03d60a011612723575b612714818361193f565b8101906121c0565b919061269d565b503d61270a565b60a0945061274490853d871161272357612714818361193f565b93612550565b9697505050505050506040519161276083611906565b8183528201525f60408201525f60608201525f60808201525f60a08201525f60c08201525f60e082015290565b965092506040863d6040116127bf575b816127aa6040938361193f565b8101031261020357848651960151925f6123e6565b3d915061279d565b83518652948501948b9450909201916001016123c1565b6127e89150611bc3565b916122b7565b50606001516040519061280082611906565b80825260208201525f60408201525f60608201525f60808201525f60a08201525f60c08201525f60e082015290565b905060a0813d60a01161289e575b8161284a60a0938361193f565b8101031261020357612893608060405192612864846118a0565b80518452602081015160208501526040810151604085015261288860608201611ab2565b606085015201611ab2565b60808201525f61226a565b3d915061283d565b91908201809211610eb957565b808210156128e75781810391818311610eb9576127108302928304612710149082141715610eb9576128e491611abf565b90565b50505f9056fea2646970667358221220a151a8df0d72743920d742161f3049b8e34af4e489e0c2215c2047d0641ade6c64736f6c634300081a0033","linkReferences":{}},"methodIdentifiers":{"acrossIntegration()":"d593df6d","afterAddLiquidity(address,(address,address,uint24,int24,address),(int24,int24,int256,bytes32),int256,int256,bytes)":"9f063efc","afterDonate(address,(address,address,uint24,int24,address),uint256,uint256,bytes)":"e1b4af69","afterInitialize(address,(address,address,uint24,int24,address),uint160,int24)":"6fe7e6eb","afterRemoveLiquidity(address,(address,address,uint24,int24,address),(int24,int24,int256,bytes32),int256,int256,bytes)":"6c2bbe7e","afterSwap(address,(address,address,uint24,int24,address),(bool,int256,uint160),int256,bytes)":"b47b2fb1","beforeAddLiquidity(address,(address,address,uint24,int24,address),(int24,int24,int256,bytes32),bytes)":"259982e5","beforeDonate(address,(address,address,uint24,int24,address),uint256,uint256,bytes)":"b6a8b0fa","beforeInitialize(address,(address,address,uint24,int24,address),uint160)":"dc98354e","beforeRemoveLiquidity(address,(address,address,uint24,int24,address),(int24,int24,int256,bytes32),bytes)":"21d0ee70","beforeSwap(address,(address,address,uint24,int24,address),(bool,int256,uint160),bytes)":"575e24b4","chainlinkIntegration()":"abcb5634","costCalculator()":"2513f461","crossChainManager()":"cf5baffa","emergencyWithdraw(address,uint256,address)":"551512de","getHookPermissions()":"c4e833ce","getOptimizationQuote((bool,int256,uint160),(address,address,uint24,int24,address))":"78553c7d","getSystemMetrics()":"6cfccc2f","getUserPreferences(address)":"35b12333","getUserSavings(address)":"f80a2057","isHookPaused()":"8777a920","isPaused()":"b187bd26","maxBridgeTime()":"749d9d36","minAbsoluteSavingsUSD()":"e6e55612","minSavingsThresholdBPS()":"32f39c8f","owner()":"8da5cb5b","pauseHook(bool)":"90beb9ae","poolManager()":"dc4c90d3","renounceOwnership()":"715018a6","setUserPreferences((uint256,uint256,uint256,bool,bool))":"4dbf04e4","totalSwapsOptimized()":"9cf9b311","totalSystemSavingsUSD()":"8da079ac","transferOwnership(address)":"f2fde38b","updateSystemConfiguration(uint256,uint256,uint256)":"a28fb788","userTotalSavings(address)":"c38212f3"},"id":105}