{"abi":[{"type":"constructor","inputs":[{"name":"initialOwner","type":"address","internalType":"address"},{"name":"_hubPool","type":"address","internalType":"address"}],"stateMutability":"nonpayable"},{"type":"receive","stateMutability":"payable"},{"type":"function","name":"addTrustedRelayer","inputs":[{"name":"relayer","type":"address","internalType":"address"},{"name":"performanceScore","type":"uint256","internalType":"uint256"}],"outputs":[],"stateMutability":"nonpayable"},{"type":"function","name":"bridgeFeeConfig","inputs":[],"outputs":[{"name":"baseFeeUSD","type":"uint256","internalType":"uint256"},{"name":"percentageBPS","type":"uint256","internalType":"uint256"},{"name":"minRelayerFeePct","type":"uint256","internalType":"uint256"},{"name":"maxRelayerFeePct","type":"uint256","internalType":"uint256"}],"stateMutability":"view"},{"type":"function","name":"bridgePaused","inputs":[],"outputs":[{"name":"","type":"bool","internalType":"bool"}],"stateMutability":"view"},{"type":"function","name":"bridgeStatuses","inputs":[{"name":"","type":"bytes32","internalType":"bytes32"}],"outputs":[{"name":"isCompleted","type":"bool","internalType":"bool"},{"name":"isFailed","type":"bool","internalType":"bool"},{"name":"fillAmount","type":"uint256","internalType":"uint256"},{"name":"totalRelayerFeePct","type":"uint256","internalType":"uint256"},{"name":"depositId","type":"uint32","internalType":"uint32"},{"name":"transactionHash","type":"bytes32","internalType":"bytes32"}],"stateMutability":"view"},{"type":"function","name":"calculateBridgeCost","inputs":[{"name":"token","type":"address","internalType":"address"},{"name":"amount","type":"uint256","internalType":"uint256"},{"name":"destinationChain","type":"uint256","internalType":"uint256"}],"outputs":[{"name":"cost","type":"uint256","internalType":"uint256"}],"stateMutability":"view"},{"type":"function","name":"chainBridgeTimes","inputs":[{"name":"","type":"uint256","internalType":"uint256"}],"outputs":[{"name":"","type":"uint256","internalType":"uint256"}],"stateMutability":"view"},{"type":"function","name":"depositFor","inputs":[{"name":"params","type":"tuple","internalType":"struct IAcrossProtocol.BridgeParams","components":[{"name":"depositor","type":"address","internalType":"address"},{"name":"recipient","type":"address","internalType":"address"},{"name":"originToken","type":"address","internalType":"address"},{"name":"amount","type":"uint256","internalType":"uint256"},{"name":"destinationChainId","type":"uint256","internalType":"uint256"},{"name":"relayerFeePct","type":"int64","internalType":"int64"},{"name":"quoteTimestamp","type":"uint32","internalType":"uint32"},{"name":"message","type":"bytes","internalType":"bytes"},{"name":"maxCount","type":"uint256","internalType":"uint256"}]}],"outputs":[{"name":"depositHash","type":"bytes32","internalType":"bytes32"}],"stateMutability":"payable"},{"type":"function","name":"depositHashToId","inputs":[{"name":"","type":"bytes32","internalType":"bytes32"}],"outputs":[{"name":"","type":"uint32","internalType":"uint32"}],"stateMutability":"view"},{"type":"function","name":"depositHashToRelayer","inputs":[{"name":"","type":"bytes32","internalType":"bytes32"}],"outputs":[{"name":"","type":"address","internalType":"address"}],"stateMutability":"view"},{"type":"function","name":"emergencyPause","inputs":[],"outputs":[],"stateMutability":"nonpayable"},{"type":"function","name":"emergencyWithdraw","inputs":[{"name":"token","type":"address","internalType":"address"},{"name":"amount","type":"uint256","internalType":"uint256"},{"name":"to","type":"address","internalType":"address"}],"outputs":[],"stateMutability":"nonpayable"},{"type":"function","name":"getBridgeAnalytics","inputs":[{"name":"depositHash","type":"bytes32","internalType":"bytes32"}],"outputs":[{"name":"bridgeTime","type":"uint256","internalType":"uint256"},{"name":"relayer","type":"address","internalType":"address"},{"name":"actualFee","type":"uint256","internalType":"uint256"},{"name":"isOptimal","type":"bool","internalType":"bool"}],"stateMutability":"view"},{"type":"function","name":"getBridgeFeeQuote","inputs":[{"name":"","type":"address","internalType":"address"},{"name":"amount","type":"uint256","internalType":"uint256"},{"name":"destinationChainId","type":"uint256","internalType":"uint256"}],"outputs":[{"name":"bridgeFeeUSD","type":"uint256","internalType":"uint256"},{"name":"estimatedTime","type":"uint256","internalType":"uint256"}],"stateMutability":"view"},{"type":"function","name":"getDepositStatus","inputs":[{"name":"depositHash","type":"bytes32","internalType":"bytes32"}],"outputs":[{"name":"","type":"tuple","internalType":"struct IAcrossProtocol.BridgeStatus","components":[{"name":"isCompleted","type":"bool","internalType":"bool"},{"name":"isFailed","type":"bool","internalType":"bool"},{"name":"fillAmount","type":"uint256","internalType":"uint256"},{"name":"totalRelayerFeePct","type":"uint256","internalType":"uint256"},{"name":"depositId","type":"uint32","internalType":"uint32"},{"name":"transactionHash","type":"bytes32","internalType":"bytes32"}]}],"stateMutability":"view"},{"type":"function","name":"getMaxDepositAmount","inputs":[{"name":"token","type":"address","internalType":"address"},{"name":"chainId","type":"uint256","internalType":"uint256"}],"outputs":[{"name":"","type":"uint256","internalType":"uint256"}],"stateMutability":"view"},{"type":"function","name":"getMinDepositAmount","inputs":[{"name":"token","type":"address","internalType":"address"},{"name":"chainId","type":"uint256","internalType":"uint256"}],"outputs":[{"name":"","type":"uint256","internalType":"uint256"}],"stateMutability":"view"},{"type":"function","name":"getMinMaxDepositAmounts","inputs":[{"name":"token","type":"address","internalType":"address"}],"outputs":[{"name":"minAmount","type":"uint256","internalType":"uint256"},{"name":"maxAmount","type":"uint256","internalType":"uint256"}],"stateMutability":"view"},{"type":"function","name":"getOptimalRelayer","inputs":[{"name":"token","type":"address","internalType":"address"},{"name":"amount","type":"uint256","internalType":"uint256"},{"name":"destinationChainId","type":"uint256","internalType":"uint256"}],"outputs":[{"name":"optimalRelayer","type":"address","internalType":"address"},{"name":"estimatedFee","type":"uint256","internalType":"uint256"}],"stateMutability":"view"},{"type":"function","name":"getSpokePool","inputs":[{"name":"chainId","type":"uint256","internalType":"uint256"}],"outputs":[{"name":"spokePool","type":"address","internalType":"address"}],"stateMutability":"view"},{"type":"function","name":"getSupportedChains","inputs":[],"outputs":[{"name":"chains","type":"uint256[]","internalType":"uint256[]"}],"stateMutability":"view"},{"type":"function","name":"hubPool","inputs":[],"outputs":[{"name":"","type":"address","internalType":"contract V3SpokePoolInterface"}],"stateMutability":"view"},{"type":"function","name":"isChainSupported","inputs":[{"name":"chainId","type":"uint256","internalType":"uint256"}],"outputs":[{"name":"","type":"bool","internalType":"bool"}],"stateMutability":"view"},{"type":"function","name":"maxDepositAmounts","inputs":[{"name":"","type":"address","internalType":"address"},{"name":"","type":"uint256","internalType":"uint256"}],"outputs":[{"name":"","type":"uint256","internalType":"uint256"}],"stateMutability":"view"},{"type":"function","name":"minDepositAmounts","inputs":[{"name":"","type":"address","internalType":"address"},{"name":"","type":"uint256","internalType":"uint256"}],"outputs":[{"name":"","type":"uint256","internalType":"uint256"}],"stateMutability":"view"},{"type":"function","name":"nextDepositId","inputs":[],"outputs":[{"name":"","type":"uint32","internalType":"uint32"}],"stateMutability":"view"},{"type":"function","name":"owner","inputs":[],"outputs":[{"name":"","type":"address","internalType":"address"}],"stateMutability":"view"},{"type":"function","name":"pauseBridge","inputs":[{"name":"paused","type":"bool","internalType":"bool"}],"outputs":[],"stateMutability":"nonpayable"},{"type":"function","name":"relayerPerformance","inputs":[{"name":"","type":"address","internalType":"address"}],"outputs":[{"name":"","type":"uint256","internalType":"uint256"}],"stateMutability":"view"},{"type":"function","name":"removeTrustedRelayer","inputs":[{"name":"relayer","type":"address","internalType":"address"}],"outputs":[],"stateMutability":"nonpayable"},{"type":"function","name":"renounceOwnership","inputs":[],"outputs":[],"stateMutability":"nonpayable"},{"type":"function","name":"spokePools","inputs":[{"name":"","type":"uint256","internalType":"uint256"}],"outputs":[{"name":"","type":"address","internalType":"address"}],"stateMutability":"view"},{"type":"function","name":"supportedChains","inputs":[{"name":"","type":"uint256","internalType":"uint256"}],"outputs":[{"name":"","type":"bool","internalType":"bool"}],"stateMutability":"view"},{"type":"function","name":"transferOwnership","inputs":[{"name":"newOwner","type":"address","internalType":"address"}],"outputs":[],"stateMutability":"nonpayable"},{"type":"function","name":"trustedRelayers","inputs":[{"name":"","type":"uint256","internalType":"uint256"}],"outputs":[{"name":"","type":"address","internalType":"address"}],"stateMutability":"view"},{"type":"function","name":"updateBridgeFeeConfig","inputs":[{"name":"newBaseFeeUSD","type":"uint256","internalType":"uint256"},{"name":"newPercentageBPS","type":"uint256","internalType":"uint256"}],"outputs":[],"stateMutability":"nonpayable"},{"type":"function","name":"updateBridgeStatus","inputs":[{"name":"depositHash","type":"bytes32","internalType":"bytes32"},{"name":"isCompleted","type":"bool","internalType":"bool"},{"name":"fillAmount","type":"uint256","internalType":"uint256"},{"name":"transactionHash","type":"bytes32","internalType":"bytes32"}],"outputs":[],"stateMutability":"nonpayable"},{"type":"function","name":"updateBridgeTime","inputs":[{"name":"newMaxTime","type":"uint256","internalType":"uint256"}],"outputs":[],"stateMutability":"nonpayable"},{"type":"function","name":"updateBridgeTime","inputs":[{"name":"chainId","type":"uint256","internalType":"uint256"},{"name":"estimatedTime","type":"uint256","internalType":"uint256"}],"outputs":[],"stateMutability":"nonpayable"},{"type":"function","name":"updateChainConfiguration","inputs":[{"name":"chainId","type":"uint256","internalType":"uint256"},{"name":"newSpokePool","type":"address","internalType":"address"},{"name":"isSupported","type":"bool","internalType":"bool"}],"outputs":[],"stateMutability":"nonpayable"},{"type":"function","name":"updateDepositLimits","inputs":[{"name":"token","type":"address","internalType":"address"},{"name":"chainId","type":"uint256","internalType":"uint256"},{"name":"minAmount","type":"uint256","internalType":"uint256"},{"name":"maxAmount","type":"uint256","internalType":"uint256"}],"outputs":[],"stateMutability":"nonpayable"},{"type":"function","name":"updateDepositLimits","inputs":[{"name":"token","type":"address","internalType":"address"},{"name":"minAmount","type":"uint256","internalType":"uint256"},{"name":"maxAmount","type":"uint256","internalType":"uint256"}],"outputs":[],"stateMutability":"nonpayable"},{"type":"function","name":"updateRelayerPerformance","inputs":[{"name":"relayer","type":"address","internalType":"address"},{"name":"newScore","type":"uint256","internalType":"uint256"}],"outputs":[],"stateMutability":"nonpayable"},{"type":"function","name":"updateSpokePool","inputs":[{"name":"chainId","type":"uint256","internalType":"uint256"},{"name":"spokePool","type":"address","internalType":"address"}],"outputs":[],"stateMutability":"nonpayable"},{"type":"event","name":"BridgeCompleted","inputs":[{"name":"depositHash","type":"bytes32","indexed":true,"internalType":"bytes32"},{"name":"fillAmount","type":"uint256","indexed":false,"internalType":"uint256"},{"name":"totalRelayerFeePct","type":"uint256","indexed":false,"internalType":"uint256"}],"anonymous":false},{"type":"event","name":"BridgeFailed","inputs":[{"name":"depositHash","type":"bytes32","indexed":true,"internalType":"bytes32"},{"name":"reason","type":"string","indexed":false,"internalType":"string"}],"anonymous":false},{"type":"event","name":"BridgeFeeConfigUpdated","inputs":[{"name":"baseFeeUSD","type":"uint256","indexed":false,"internalType":"uint256"},{"name":"percentageBPS","type":"uint256","indexed":false,"internalType":"uint256"}],"anonymous":false},{"type":"event","name":"BridgeInitiated","inputs":[{"name":"depositHash","type":"bytes32","indexed":true,"internalType":"bytes32"},{"name":"depositor","type":"address","indexed":true,"internalType":"address"},{"name":"recipient","type":"address","indexed":true,"internalType":"address"},{"name":"originToken","type":"address","indexed":false,"internalType":"address"},{"name":"amount","type":"uint256","indexed":false,"internalType":"uint256"},{"name":"destinationChainId","type":"uint256","indexed":false,"internalType":"uint256"}],"anonymous":false},{"type":"event","name":"BridgeTimeUpdated","inputs":[{"name":"chainId","type":"uint256","indexed":true,"internalType":"uint256"},{"name":"oldTime","type":"uint256","indexed":false,"internalType":"uint256"},{"name":"newTime","type":"uint256","indexed":false,"internalType":"uint256"}],"anonymous":false},{"type":"event","name":"OwnershipTransferred","inputs":[{"name":"previousOwner","type":"address","indexed":true,"internalType":"address"},{"name":"newOwner","type":"address","indexed":true,"internalType":"address"}],"anonymous":false},{"type":"event","name":"RelayerOptimized","inputs":[{"name":"depositHash","type":"bytes32","indexed":true,"internalType":"bytes32"},{"name":"relayer","type":"address","indexed":true,"internalType":"address"},{"name":"expectedTime","type":"uint256","indexed":false,"internalType":"uint256"}],"anonymous":false},{"type":"event","name":"SpokePoolUpdated","inputs":[{"name":"chainId","type":"uint256","indexed":true,"internalType":"uint256"},{"name":"oldPool","type":"address","indexed":true,"internalType":"address"},{"name":"newPool","type":"address","indexed":true,"internalType":"address"}],"anonymous":false},{"type":"error","name":"BridgeNotFound","inputs":[{"name":"depositHash","type":"bytes32","internalType":"bytes32"}]},{"type":"error","name":"InsufficientBridgeFee","inputs":[]},{"type":"error","name":"InvalidBridgeAmount","inputs":[{"name":"amount","type":"uint256","internalType":"uint256"}]},{"type":"error","name":"OwnableInvalidOwner","inputs":[{"name":"owner","type":"address","internalType":"address"}]},{"type":"error","name":"OwnableUnauthorizedAccount","inputs":[{"name":"account","type":"address","internalType":"address"}]},{"type":"error","name":"ReentrancyGuardReentrantCall","inputs":[]},{"type":"error","name":"SafeERC20FailedOperation","inputs":[{"name":"token","type":"address","internalType":"address"}]},{"type":"error","name":"TransferFailed","inputs":[]},{"type":"error","name":"UnsupportedChain","inputs":[{"name":"chainId","type":"uint256","internalType":"uint256"}]}],"bytecode":{"object":"0x60a06040523461053857604051601f6136cb38819003918201601f19168301916001600160401b038311848410176105115780849260409485528339810103126105385761005860206100518361053c565b920161053c565b906001600160a01b03168015610525575f80546001600160a01b03198116831782556001600160a01b0316907f8be0079c531659141344cd1fd0a4f28419497f9722a3daafe3b4186f6b6457e09080a360018080556002805460ff19169055600f805463ffffffff191690911790556001600160a01b031660809081526040519081016001600160401b03811182821017610511576040908152671bc16d674ec8000080835260056020808501829052662386f26fc100008486018190526706f05b59d3b200006060909601869052600993909355600a91909155600b91909155600c929092557fa15bc60c955c405d20d9149c709e2460f1c2d9a497496a7f46004d1772c3054c80546001600160a01b0319908116735c7bcd6e7de5423a257d81b442095a1a6ced35c5179091557f6da21496ee3c71e35693bb2fb88efaa21b54d17c105fc747d0ca398ed7bab9d48054821673e35e9842fceaca96570b734083f4a58e8f7c5f2a1790557f9dcb9783ba5cd0b54745f65f4f918525e461e91888c334e5342cb380ac558d5380548216736f26bf09b1c792e3228e5467807a900a503c02811790557f0f7c2a22036bfa20acc9ee73aa9ab92bebf1413ecc0991a7c2b4d6178e9838ed80548216739295ee1d8c5b022be115a2ad3c30c72e34e7f0961790557f6ae340ffc0ca34b7018bb71046e01f0458aba60527fcbfc3c36b28e87d7d8eec80549091167309aea4b2242abc8bb4bb78d537a67a245a7bec641790557fb39221ace053465ec3453ce2b36430bd138b997ecea25c1043da0c366812b828805460ff1990811660019081179092557fa7540f530be45c6674dd99d492017379fb77c281d9721ac80290a13fa987750880548216831790557f3ed157e83ab1bb1f6b7b3760b3368106283d4e15d1f1b08e20d06576445a999480548216831790557f65420a8d28339aeca441a0c94a464f6387b468f3f5ea5c247a6df59a5f7b886680548216831790557ec926fc893501ce5ad439ad7af72d794e5fd17fa1b09c50e4c335249310c01380549091169091179055600890915261012c7fad67d757c34507f157cacfa2e3153e9f260a2244f30428821be7be64587ac55f5560b47f7e8bc9853458e96c6f3a5b5a9b420ab6feac098cbfa4fcf6c9966e813a3bb1828190557f586689db7536874b78a6eac0f58556a56a106985743f7c16a699b27bb02f88bd8190556102587f52971f1436f2cd6731141381bedac0ed3cd11e78565d9b0d11d11375f66a2abc556121055f527f4f278913b1c0a191cf7273bd8fe8a6a363cdd828060c2170092d5cc6fb2b73aa555160a081016001600160401b03811182821017610511576040526001815261a4b16020820152600a60408201526089606082015261210560808201525f5b60058110156104f957600581901b8201515f8181527f05b8ccbb9d4d8fb16ea74ce3c29a41f1b461fbdaff4714a0d9a8eb05499746bc6020526040902066038d7ea4c68000905560019190608981036104cf575f9081525f805160206136ab833981519152602052604090206802b5e3af16b188000090555b01610450565b5f9081525f805160206136ab8339815191526020526040902068056bc75e2d6310000090556104c9565b60405161315a90816105518239608051816104ff0152f35b634e487b7160e01b5f52604160045260245ffd5b631e4fbdf760e01b5f525f60045260245ffd5b5f80fd5b51906001600160a01b03821682036105385756fe608080604052600436101561001c575b50361561001a575f80fd5b005b5f905f3560e01c908163051287bc14612a38575080630715078614612909578063071dffb41461286e5780630ce46ecd146127295780631588392d146126a05780631a3947951461262b5780631f25a183146125bc5780633945abf61461255957806351858e27146125235780635221c1f0146124d6578063548d496f146124d6578063551512de1461240b5780635dc13b541461239957806361379a0d146122875780636421870314612201578063671ba0fe1461214e5780636ccf20d51461210e5780637111f61214611bbb578063715018a614612074578063740cc92b146120165780637de9a9d114611fc35780638070a4bd14611f82578063894e7ac114611ef05780638da5cb5b14611ea057806390ce191114611dad578063911d798c14611d4f5780639360413714611c2a5780639960a6e914611bbb5780639a94ef1114611b585780639d85631e14610c33578063ac21ee7f14610bc5578063b36fcb79146109db578063b40f6f8514610993578063c4bffe2b146107ca578063c905c9e714610748578063c9b32235146106f3578063c9eb791e14610658578063d32575e0146105eb578063dbfd2b2e14610523578063e1904402146104b4578063e43839bb14610466578063f2fde38b146103785763f9d8ec990361000f57346103755760207ffffffffffffffffffffffffffffffffffffffffffffffffffffffffffffffffc36011261037557610234612ac1565b907fffffffffffffffffffffffffffffffffffffffffffffffffffffffffffffffff90806040519361026585612bf1565b6001855261a4b16020860152600a6040860152608960608601526121056080860152815b600581106102d4575050604093507fffffffffffffffffffffffffffffffffffffffffffffffffffffffffffffffff83146102cc575b5082519182526020820152f35b91505f6102bf565b6102de8187612cb7565b51808452600760205260ff6040852054166102fd575b50600101610289565b73ffffffffffffffffffffffffffffffffffffffff83169081855260056020526040852081865260205260408520549185526006602052604085209085526020526040842054908015158061036c575b610364575b50848111156102f457935060016102f4565b95505f610352565b5086811061034d565b80fd5b50346103755760207ffffffffffffffffffffffffffffffffffffffffffffffffffffffffffffffffc3601126103755773ffffffffffffffffffffffffffffffffffffffff6103c5612ac1565b6103cd612df5565b16801561043a5773ffffffffffffffffffffffffffffffffffffffff8254827fffffffffffffffffffffffff00000000000000000000000000000000000000008216178455167f8be0079c531659141344cd1fd0a4f28419497f9722a3daafe3b4186f6b6457e08380a380f35b6024827f1e4fbdf700000000000000000000000000000000000000000000000000000000815280600452fd5b50346103755760207ffffffffffffffffffffffffffffffffffffffffffffffffffffffffffffffffc3601126103755763ffffffff6040602092600435815260108452205416604051908152f35b503461037557807ffffffffffffffffffffffffffffffffffffffffffffffffffffffffffffffffc36011261037557602060405173ffffffffffffffffffffffffffffffffffffffff7f0000000000000000000000000000000000000000000000000000000000000000168152f35b50346103755761053236612b07565b9150818352600760205260ff604084205416156105bf5761055961271091600a5490612de2565b04906009549182018092116105925782526008602052604091829020548015610589575b82519182526020820152f35b5061038461057d565b6024837f4e487b710000000000000000000000000000000000000000000000000000000081526011600452fd5b602483837fc3a55c98000000000000000000000000000000000000000000000000000000008252600452fd5b50346103755760407ffffffffffffffffffffffffffffffffffffffffffffffffffffffffffffffffc36011261037557604060209173ffffffffffffffffffffffffffffffffffffffff61063d612ac1565b16815260058352818120602435825283522054604051908152f35b50346103755761066736612b07565b61067393929193612df5565b6040519361068085612bf1565b6001855261a4b16020860152600a6040860152608960608601526121056080860152835b600581106106b0578480f35b806106bd60019288612cb7565b518652600760205260ff6040872054166106d8575b016106a4565b6106ee84846106e7848b612cb7565b5188612ea5565b6106d2565b503461037557807ffffffffffffffffffffffffffffffffffffffffffffffffffffffffffffffffc360112610375576080600954600a54600b54600c5491604051938452602084015260408301526060820152f35b50346103755760207ffffffffffffffffffffffffffffffffffffffffffffffffffffffffffffffffc3601126103755760c0610785600435612d0d565b60a060405191805115158352602081015115156020840152604081015160408401526060810151606084015263ffffffff6080820151166080840152015160a0820152f35b503461037557807ffffffffffffffffffffffffffffffffffffffffffffffffffffffffffffffffc3601126103755760405161080581612bf1565b6001815261a4b16020820152600a604082015260896060820152612105608082015281825b60058110610958575061085561083f82612cf5565b9161084d6040519384612c0d565b808352612cf5565b917fffffffffffffffffffffffffffffffffffffffffffffffffffffffffffffffe06020830193013684378390845b600581106108d15750505090604051928392602084019060208552518091526040840192915b8181106108b8575050500390f35b82518452859450602093840193909201916001016108aa565b6108db8183612cb7565b518652600760205260ff6040872054166108f8575b600101610884565b916109038383612cb7565b51845182101561092b578161092391602060019460051b88010152612cc8565b9290506108f0565b6024877f4e487b710000000000000000000000000000000000000000000000000000000081526032600452fd5b6109628184612cb7565b518452600760205260ff60408520541661097f575b60010161082a565b9061098b600191612cc8565b919050610977565b50346103755760207ffffffffffffffffffffffffffffffffffffffffffffffffffffffffffffffffc3601126103755760406020916004358152600883522054604051908152f35b50346103755760207ffffffffffffffffffffffffffffffffffffffffffffffffffffffffffffffffc36011261037557610a13612ac1565b610a1b612df5565b73ffffffffffffffffffffffffffffffffffffffff16815b600e5480821015610bbe578273ffffffffffffffffffffffffffffffffffffffff610a5d84612b90565b90549060031b1c1614610a735750600101610a33565b7fffffffffffffffffffffffffffffffffffffffffffffffffffffffffffffffff8101908111610b915790610ad073ffffffffffffffffffffffffffffffffffffffff610ac2610afc94612b90565b90549060031b1c1691612b90565b90919073ffffffffffffffffffffffffffffffffffffffff8084549260031b9316831b921b1916179055565b600e548015610b64577fffffffffffffffffffffffffffffffffffffffffffffffffffffffffffffffff01610b3081612b90565b73ffffffffffffffffffffffffffffffffffffffff82549160031b1b19169055600e555b8152600d60205280604081205580f35b6024837f4e487b710000000000000000000000000000000000000000000000000000000081526031600452fd5b6024847f4e487b710000000000000000000000000000000000000000000000000000000081526011600452fd5b5050610b54565b50346103755760207ffffffffffffffffffffffffffffffffffffffffffffffffffffffffffffffffc3601126103755760043590600e5482101561037557602073ffffffffffffffffffffffffffffffffffffffff610c2384612b90565b90549060031b1c16604051908152f35b5060207ffffffffffffffffffffffffffffffffffffffffffffffffffffffffffffffffc3601126117555760043567ffffffffffffffff81116117555780600401813603926101207ffffffffffffffffffffffffffffffffffffffffffffffffffffffffffffffffc85011261175557600260015414611b3057600260015560ff60025416611ad25760848301355f52600760205260ff60405f20541615611aa257606483013515611a2657465f52600360205273ffffffffffffffffffffffffffffffffffffffff60405f20541615611a765773ffffffffffffffffffffffffffffffffffffffff610d2860448501612f04565b16805f52600560205260405f2060848501355f5260205260405f2054905f52600660205260405f2060848501355f5260205260405f205490606485013510908115611a56575b50611a265760a48301358060070b810361175557610d9890610d9260448601612f04565b506130a2565b93600f54610da584612f04565b907fffffffff00000000000000000000000000000000000000000000000000000000610dd360248801612f04565b917fffffffffffffffffffffffffffffffffffffffff000000000000000000000000610e0160448a01612f04565b816040519581602088019860601b16885260601b16603486015260601b1660488401526064880135605c8401526084880135607c84015242609c84015260e01b1660bc8201524660c082015260c08152610e5c60e082612c0d565b51902094465f52600360205273ffffffffffffffffffffffffffffffffffffffff60405f20541673ffffffffffffffffffffffffffffffffffffffff610ea460448801612f04565b16611844575060648501353403611814575b60070b5f811261180d575b600463ffffffff600f54169163ffffffff60405193610edf85612bd5565b5f855260208501925f8452604086015f8152606087019182526080870192835260a08701945f86528c5f5286602052610f4a60405f2098511515899060ff7fffffffffffffffffffffffffffffffffffffffffffffffffffffffffffffff0083541691151516179055565b5115157fffffffffffffffffffffffffffffffffffffffffffffffffffffffffffff00ff61ff0089549260081b169116178755516001870155516002860155511663ffffffff6003850191167fffffffffffffffffffffffffffffffffffffffffffffffffffffffff000000008254161790555191015563ffffffff600f5416855f52601060205263ffffffff60405f2091167fffffffffffffffffffffffffffffffffffffffffffffffffffffffff00000000825416179055611078604061101560448701612f04565b81517f0ce46ecd00000000000000000000000000000000000000000000000000000000815273ffffffffffffffffffffffffffffffffffffffff909116600482015260648088013560248301526084880135604483015290928391829190820190565b0381305afa908115611802575f916117b3575b50855f52601160205273ffffffffffffffffffffffffffffffffffffffff60405f2091167fffffffffffffffffffffffff0000000000000000000000000000000000000000825416179055600f5463ffffffff811663ffffffff81146117865763ffffffff60017fffffffffffffffffffffffffffffffffffffffffffffffffffffffff00000000920116911617600f55465f52600360205273ffffffffffffffffffffffffffffffffffffffff60405f20541690855f52601160205273ffffffffffffffffffffffffffffffffffffffff60405f2054169161116d85612f04565b61117960248801612f04565b61118560448901612f04565b9160c48901359463ffffffff8616860361175557610e10420190814211611786577fffffffffffffffffffffffffffffffffffffffffffffffffffffffffffffffdd60e48c013591018112156117555767ffffffffffffffff6004828d01013511611755576004818c01013536036024828d01011361175557604051918261018081011067ffffffffffffffff610180850111176117595773ffffffffffffffffffffffffffffffffffffffff8c94610180850160405216835273ffffffffffffffffffffffffffffffffffffffff602084019516855273ffffffffffffffffffffffffffffffffffffffff604084019616865260608301975f895260808401936064860135855260a081015f815260c08201906084880135825260e08301925f845263ffffffff61010082019516855263ffffffff6101208201961686526101408101965f88526112dc6004828c010135612c4e565b996112ea6040519b8c612c0d565b600482820190810135808d5236910160240111611755578181016004013582820160240160208d0137016004013589016020015f9052886101608201525173ffffffffffffffffffffffffffffffffffffffff16985173ffffffffffffffffffffffffffffffffffffffff16995173ffffffffffffffffffffffffffffffffffffffff169b5173ffffffffffffffffffffffffffffffffffffffff16965190519151925173ffffffffffffffffffffffffffffffffffffffff16935163ffffffff16945163ffffffff16955163ffffffff16968b3b15611755576040519c8d9b8c9b7f7b939232000000000000000000000000000000000000000000000000000000008d5260048d015260248c015260448b015260648a0152608489015260a488015260c487015260e486015261010485015261012484015261014483015261016482016101809052610184820161144191612f25565b0381345a945f95f19081611740575b5061166557508060033d11611655575b6308c379a014611584575b6114ce929160406114b79261147e612c88565b508681526004602052206101007fffffffffffffffffffffffffffffffffffffffffffffffffffffffffffff00ff825416179055612f04565b6114c8604460648401359301612f04565b906130e0565b7fd2b4dd79c80ad92da5a6dd7455df9e531b9ad078fe353998dc6fc5c442ddc34f606060405160208152601560208201527f4c6f772d6c6576656c2063616c6c206661696c656400000000000000000000006040820152a260646040517f08c379a000000000000000000000000000000000000000000000000000000000815260206004820152601760248201527f42726964676520657865637574696f6e206661696c65640000000000000000006044820152fd5b61158c612f68565b80611597575061146b565b926114b78593604084611651986115de96526004602052206101007fffffffffffffffffffffffffffffffffffffffffffffffffffffffffffff00ff825416179055612f04565b7fd2b4dd79c80ad92da5a6dd7455df9e531b9ad078fe353998dc6fc5c442ddc34f60405160208152806116146020820186612f25565b0390a26040519182917f08c379a0000000000000000000000000000000000000000000000000000000008352602060048401526024830190612f25565b0390fd5b50600481803e805160e01c611460565b847fe14dd9f2bf9964ccf533361a3344a592bd91ca6ef7fe84736bed75190b4131fa60206040839560848961169a859a612f04565b6116a660248301612f04565b887f7b819e3a2b12b25c69c7d51d363edd880901deedefc0be31cdf0c1ba2998564973ffffffffffffffffffffffffffffffffffffffff6116e960448701612f04565b895173ffffffffffffffffffffffffffffffffffffffff91909116815260648701356020820152878701356040820152938116941692606090a401358152600883522054604051908152a360018055604051908152f35b61174d9193505f90612c0d565b5f915f611450565b5f80fd5b7f4e487b71000000000000000000000000000000000000000000000000000000005f52604160045260245ffd5b7f4e487b71000000000000000000000000000000000000000000000000000000005f52601160045260245ffd5b90506040813d6040116117fa575b816117ce60409383612c0d565b81010312611755575173ffffffffffffffffffffffffffffffffffffffff81168103611755575f61108b565b3d91506117c1565b6040513d5f823e3d90fd5b505f610ec1565b6064857fe7ab22b2000000000000000000000000000000000000000000000000000000005f52013560045260245ffd5b6118dc73ffffffffffffffffffffffffffffffffffffffff61186860448901612f04565b1661187287612f04565b9073ffffffffffffffffffffffffffffffffffffffff604051927f23b872dd00000000000000000000000000000000000000000000000000000000602085015216602483015230604483015260648901356064830152606482526118d7608483612c0d565b61301b565b73ffffffffffffffffffffffffffffffffffffffff6118fd60448801612f04565b166040519060205f89611991856119656064868301947f095ea7b3000000000000000000000000000000000000000000000000000000008652013589602484016020909392919373ffffffffffffffffffffffffffffffffffffffff60408201951681520152565b037fffffffffffffffffffffffffffffffffffffffffffffffffffffffffffffffe08101875286612c0d565b84519082855af15f513d82611a0a575b5050156119b1575b505050610eb6565b6118d7611a0293604051907f095ea7b300000000000000000000000000000000000000000000000000000000602083015260248201525f6044820152604481526119fc606482612c0d565b8261301b565b5f80806119a9565b909150611a1e5750803b15155b5f806119a1565b600114611a17565b6064837fe7ab22b2000000000000000000000000000000000000000000000000000000005f52013560045260245ffd5b801515915081611a68575b505f610d6e565b90506064840135115f611a61565b7fc3a55c98000000000000000000000000000000000000000000000000000000005f524660045260245ffd5b6084837fc3a55c98000000000000000000000000000000000000000000000000000000005f52013560045260245ffd5b60646040517f08c379a000000000000000000000000000000000000000000000000000000000815260206004820152601c60248201527f427269646765206f7065726174696f6e732061726520706175736564000000006044820152fd5b7f3ee5aeb5000000000000000000000000000000000000000000000000000000005f5260045ffd5b346117555760207ffffffffffffffffffffffffffffffffffffffffffffffffffffffffffffffffc3601126117555773ffffffffffffffffffffffffffffffffffffffff611ba4612ac1565b165f52600d602052602060405f2054604051908152f35b346117555760407ffffffffffffffffffffffffffffffffffffffffffffffffffffffffffffffffc3601126117555773ffffffffffffffffffffffffffffffffffffffff611c07612ac1565b165f52600660205260405f206024355f52602052602060405f2054604051908152f35b346117555760207ffffffffffffffffffffffffffffffffffffffffffffffffffffffffffffffffc36011261175557600435805f52600460205260405f20604051611c7481612bd5565b60ff82548181161515835260081c16151560208201526001820154604082015260a060046002840154936060840194855263ffffffff60038201541660808501520154910152815f52601060205263ffffffff60405f20541615611d23576080915f52601160205273ffffffffffffffffffffffffffffffffffffffff60405f2054169051815f52600d602052611f4060405f20541190604051925f8452602084015260408301526060820152f35b507f95a7b5b7000000000000000000000000000000000000000000000000000000005f5260045260245ffd5b346117555760207ffffffffffffffffffffffffffffffffffffffffffffffffffffffffffffffffc360112611755576004355f526003602052602073ffffffffffffffffffffffffffffffffffffffff60405f205416604051908152f35b346117555760407ffffffffffffffffffffffffffffffffffffffffffffffffffffffffffffffffc36011261175557600435611de7612ae4565b611def612df5565b5f828152600360209081526040808320805473ffffffffffffffffffffffffffffffffffffffff9586167fffffffffffffffffffffffff0000000000000000000000000000000000000000821681179092556007909352922080547fffffffffffffffffffffffffffffffffffffffffffffffffffffffffffffff001683151560ff1617905590929116907f862f095655e5454140261816c5c54efcc0de1fe7175f01d104bc12df865199195f80a4005b34611755575f7ffffffffffffffffffffffffffffffffffffffffffffffffffffffffffffffffc36011261175557602073ffffffffffffffffffffffffffffffffffffffff5f5416604051908152f35b346117555760207ffffffffffffffffffffffffffffffffffffffffffffffffffffffffffffffffc36011261175557600435805f52600360205273ffffffffffffffffffffffffffffffffffffffff60405f2054168015611f5657602090604051908152f35b507fc3a55c98000000000000000000000000000000000000000000000000000000005f5260045260245ffd5b34611755575f7ffffffffffffffffffffffffffffffffffffffffffffffffffffffffffffffffc36011261175557602063ffffffff600f5416604051908152f35b346117555760807ffffffffffffffffffffffffffffffffffffffffffffffffffffffffffffffffc3601126117555761001a611ffd612ac1565b612005612df5565b606435906044359060243590612ea5565b346117555760207ffffffffffffffffffffffffffffffffffffffffffffffffffffffffffffffffc360112611755576004355f526011602052602073ffffffffffffffffffffffffffffffffffffffff60405f205416604051908152f35b34611755575f7ffffffffffffffffffffffffffffffffffffffffffffffffffffffffffffffffc360112611755576120aa612df5565b5f73ffffffffffffffffffffffffffffffffffffffff81547fffffffffffffffffffffffff000000000000000000000000000000000000000081168355167f8be0079c531659141344cd1fd0a4f28419497f9722a3daafe3b4186f6b6457e08280a3005b34611755575f7ffffffffffffffffffffffffffffffffffffffffffffffffffffffffffffffffc36011261175557602060ff600254166040519015158152f35b3461175557604061215e36612b07565b83517fdbfd2b2e00000000000000000000000000000000000000000000000000000000815273ffffffffffffffffffffffffffffffffffffffff939093166004840152602483019190915260448201529081606481305afa8015611802575f906121ce575b602090604051908152f35b506040813d6040116121f9575b816121e860409383612c0d565b8101031261175557602090516121c3565b3d91506121db565b346117555761220f36612b5c565b90612218612df5565b6103e8821161225b57807fba9e6ccf219aadb23577525a8b2f9540c4a15ee61d8425e1d31eed0cd9ab70ea9260409260095580600a5582519182526020820152a1005b507fe7ab22b2000000000000000000000000000000000000000000000000000000005f5260045260245ffd5b346117555760607ffffffffffffffffffffffffffffffffffffffffffffffffffffffffffffffffc360112611755576004356122c1612ae4565b6044359081151582036117555773ffffffffffffffffffffffffffffffffffffffff906122ec612df5565b835f5260036020526123718260405f20541693855f52600360205260405f208484167fffffffffffffffffffffffff0000000000000000000000000000000000000000825416179055855f52600760205260405f209060ff7fffffffffffffffffffffffffffffffffffffffffffffffffffffffffffffff0083541691151516179055565b16917f862f095655e5454140261816c5c54efcc0de1fe7175f01d104bc12df865199195f80a4005b346117555760407ffffffffffffffffffffffffffffffffffffffffffffffffffffffffffffffffc360112611755576123d0612ac1565b602435906123dc612df5565b612710821161225b5773ffffffffffffffffffffffffffffffffffffffff165f52600d60205260405f20555f80f35b346117555760607ffffffffffffffffffffffffffffffffffffffffffffffffffffffffffffffffc36011261175557612442612ac1565b6024356044359173ffffffffffffffffffffffffffffffffffffffff831683036117555773ffffffffffffffffffffffffffffffffffffffff90612484612df5565b1691826124cd575f809350809281925af161249d612c88565b50156124a557005b7f90b8ec18000000000000000000000000000000000000000000000000000000005f5260045ffd5b61001a92612e41565b346117555760207ffffffffffffffffffffffffffffffffffffffffffffffffffffffffffffffffc360112611755576004355f526007602052602060ff60405f2054166040519015158152f35b34611755575f7ffffffffffffffffffffffffffffffffffffffffffffffffffffffffffffffffc3601126117555761001a612df5565b346117555760407fcef610c8c4f9af301b09e845d74ccd1ad93a5bb9f7ac01d966f991875bc9df0d61258a36612b5c565b612595939193612df5565b835f526008602052815f205490845f52600860205280835f205582519182526020820152a2005b346117555760407ffffffffffffffffffffffffffffffffffffffffffffffffffffffffffffffffc3601126117555773ffffffffffffffffffffffffffffffffffffffff612608612ac1565b165f52600560205260405f206024355f52602052602060405f2054604051908152f35b346117555760207ffffffffffffffffffffffffffffffffffffffffffffffffffffffffffffffffc360112611755576004358015158091036117555761266f612df5565b60ff7fffffffffffffffffffffffffffffffffffffffffffffffffffffffffffffff00600254169116176002555f80f35b346117555760207ffffffffffffffffffffffffffffffffffffffffffffffffffffffffffffffffc360112611755576004356126da612df5565b465f52600860205260405f205490465f5260086020528060405f205560405191825260208201527fcef610c8c4f9af301b09e845d74ccd1ad93a5bb9f7ac01d966f991875bc9df0d60404692a2005b346117555761273736612b07565b50600e545f925082805b82811061281c5750505073ffffffffffffffffffffffffffffffffffffffff821615612813575b61277861271091600a5490612de2565b049073ffffffffffffffffffffffffffffffffffffffff81165f52600d60205260405f205461232881115f146127ec575090605f810290808204605f14901517156117865760649004905b6040805173ffffffffffffffffffffffffffffffffffffffff9290921682526020820192909252f35b611b5811156127c35790606e810290808204606e14901517156117865760649004906127c3565b60019150612768565b73ffffffffffffffffffffffffffffffffffffffff61283a82612b90565b90549060031b1c16805f52600d60205260405f2054838111612861575b5050600101612741565b9095509150600186612857565b346117555760407ffffffffffffffffffffffffffffffffffffffffffffffffffffffffffffffffc360112611755576128a5612ac1565b602435906128b1612df5565b612710821161225b57600e549068010000000000000000821015611759576128f881610ad084600173ffffffffffffffffffffffffffffffffffffffff9601600e55612b90565b165f52600d60205260405f20555f80f35b346117555760807ffffffffffffffffffffffffffffffffffffffffffffffffffffffffffffffffc36011261175557600435602435801515810361175557604435612952612df5565b825f52600460205260405f209161299481849060ff7fffffffffffffffffffffffffffffffffffffffffffffffffffffffffffffff0083541691151516179055565b81600184015560643560048401556129a857005b60407f395cc3d68165dae4a9f9cac272bb1ea4e3f707a9c6f2ada34e6002e9bc86b71b9160028594015482519182526020820152a25f52601160205273ffffffffffffffffffffffffffffffffffffffff60405f20541680612a0657005b805f52600d60205260405f2054906127108210612a1f57005b600a8201809211611786575f52600d60205260405f2055005b346117555760207ffffffffffffffffffffffffffffffffffffffffffffffffffffffffffffffffc3601126117555760c0906004355f52600460205260405f20805490600181015460028201549060ff600463ffffffff600386015416940154948181161515875260081c161515602086015260408501526060840152608083015260a0820152f35b6004359073ffffffffffffffffffffffffffffffffffffffff8216820361175557565b6024359073ffffffffffffffffffffffffffffffffffffffff8216820361175557565b7ffffffffffffffffffffffffffffffffffffffffffffffffffffffffffffffffc60609101126117555760043573ffffffffffffffffffffffffffffffffffffffff8116810361175557906024359060443590565b7ffffffffffffffffffffffffffffffffffffffffffffffffffffffffffffffffc6040910112611755576004359060243590565b600e54811015612ba857600e5f5260205f2001905f90565b7f4e487b71000000000000000000000000000000000000000000000000000000005f52603260045260245ffd5b60c0810190811067ffffffffffffffff82111761175957604052565b60a0810190811067ffffffffffffffff82111761175957604052565b90601f7fffffffffffffffffffffffffffffffffffffffffffffffffffffffffffffffe0910116810190811067ffffffffffffffff82111761175957604052565b67ffffffffffffffff811161175957601f017fffffffffffffffffffffffffffffffffffffffffffffffffffffffffffffffe01660200190565b3d15612cb2573d90612c9982612c4e565b91612ca76040519384612c0d565b82523d5f602084013e565b606090565b906005811015612ba85760051b0190565b7fffffffffffffffffffffffffffffffffffffffffffffffffffffffffffffffff81146117865760010190565b67ffffffffffffffff81116117595760051b60200190565b604051612d1981612bd5565b5f81525f60208201525f60408201525f60608201525f60808201525f60a082015250805f52601060205263ffffffff60405f20541615612db1575f52600460205260405f20600460405191612d6d83612bd5565b60ff81548181161515855260081c1615156020840152600181015460408401526002810154606084015263ffffffff6003820154166080840152015460a082015290565b50604051612dbe81612bd5565b5f81525f60208201525f60408201525f60608201525f60808201525f60a082015290565b8181029291811591840414171561178657565b73ffffffffffffffffffffffffffffffffffffffff5f54163303612e1557565b7f118cdaa7000000000000000000000000000000000000000000000000000000005f523360045260245ffd5b6040517fa9059cbb00000000000000000000000000000000000000000000000000000000602082015273ffffffffffffffffffffffffffffffffffffffff929092166024830152604480830193909352918152612ea3916118d7606483612c0d565b565b91909183151580612efb575b61225b5773ffffffffffffffffffffffffffffffffffffffff1690815f52600560205260405f20835f5260205260405f20555f52600660205260405f20905f5260205260405f2055565b50838211612eb1565b3573ffffffffffffffffffffffffffffffffffffffff811681036117555790565b907fffffffffffffffffffffffffffffffffffffffffffffffffffffffffffffffe0601f602080948051918291828752018686015e5f8582860101520116010190565b5f60443d1061300a576040517ffffffffffffffffffffffffffffffffffffffffffffffffffffffffffffffffc3d016004823e8051913d602484011167ffffffffffffffff841117613015578282019283519167ffffffffffffffff831161300d577ffffffffffffffffffffffffffffffffffffffffffffffffffffffffffffffffc3d8501016020848701011161300d575061300a92910160200190612c0d565b90565b949350505050565b92915050565b905f602091828151910182855af115611802575f513d613099575073ffffffffffffffffffffffffffffffffffffffff81163b155b6130575750565b73ffffffffffffffffffffffffffffffffffffffff907f5274afe7000000000000000000000000000000000000000000000000000000005f521660045260245ffd5b60011415613050565b600781900b5f81126130d9575b600b548082106130d05750600c548091116130c8575090565b905060070b90565b91505060070b90565b505f6130af565b919073ffffffffffffffffffffffffffffffffffffffff169182155f1461311b575f809350809281925af1613113612c88565b50156124a557565b612ea392612e4156fea264697066735822122074dfeb4cf3645a62068a7470832fc5897d307aaf919c5fcc769a5676ae9c163564736f6c634300081a003354cdd369e4e8a8515e52ca72ec816c2101831ad1f18bf44102ed171459c9b4f8","linkReferences":{}},"methodIdentifiers":{"addTrustedRelayer(address,uint256)":"071dffb4","bridgeFeeConfig()":"c9b32235","bridgePaused()":"6ccf20d5","bridgeStatuses(bytes32)":"051287bc","calculateBridgeCost(address,uint256,uint256)":"671ba0fe","chainBridgeTimes(uint256)":"b40f6f85","depositFor((address,address,address,uint256,uint256,int64,uint32,bytes,uint256))":"9d85631e","depositHashToId(bytes32)":"e43839bb","depositHashToRelayer(bytes32)":"740cc92b","emergencyPause()":"51858e27","emergencyWithdraw(address,uint256,address)":"551512de","getBridgeAnalytics(bytes32)":"93604137","getBridgeFeeQuote(address,uint256,uint256)":"dbfd2b2e","getDepositStatus(bytes32)":"c905c9e7","getMaxDepositAmount(address,uint256)":"9960a6e9","getMinDepositAmount(address,uint256)":"1f25a183","getMinMaxDepositAmounts(address)":"f9d8ec99","getOptimalRelayer(address,uint256,uint256)":"0ce46ecd","getSpokePool(uint256)":"894e7ac1","getSupportedChains()":"c4bffe2b","hubPool()":"e1904402","isChainSupported(uint256)":"5221c1f0","maxDepositAmounts(address,uint256)":"7111f612","minDepositAmounts(address,uint256)":"d32575e0","nextDepositId()":"8070a4bd","owner()":"8da5cb5b","pauseBridge(bool)":"1a394795","relayerPerformance(address)":"9a94ef11","removeTrustedRelayer(address)":"b36fcb79","renounceOwnership()":"715018a6","spokePools(uint256)":"911d798c","supportedChains(uint256)":"548d496f","transferOwnership(address)":"f2fde38b","trustedRelayers(uint256)":"ac21ee7f","updateBridgeFeeConfig(uint256,uint256)":"64218703","updateBridgeStatus(bytes32,bool,uint256,bytes32)":"07150786","updateBridgeTime(uint256)":"1588392d","updateBridgeTime(uint256,uint256)":"3945abf6","updateChainConfiguration(uint256,address,bool)":"61379a0d","updateDepositLimits(address,uint256,uint256)":"c9eb791e","updateDepositLimits(address,uint256,uint256,uint256)":"7de9a9d1","updateRelayerPerformance(address,uint256)":"5dc13b54","updateSpokePool(uint256,address)":"90ce1911"},"id":107}