{"abi":[{"type":"constructor","inputs":[{"name":"initialOwner","type":"address","internalType":"address"},{"name":"_acrossIntegration","type":"address","internalType":"address"}],"stateMutability":"nonpayable"},{"type":"function","name":"acrossIntegration","inputs":[],"outputs":[{"name":"","type":"address","internalType":"contract IAcrossProtocol"}],"stateMutability":"view"},{"type":"function","name":"claimFailedSwap","inputs":[{"name":"swapId","type":"bytes32","internalType":"bytes32"}],"outputs":[],"stateMutability":"nonpayable"},{"type":"function","name":"completeCrossChainSwap","inputs":[{"name":"swapId","type":"bytes32","internalType":"bytes32"}],"outputs":[],"stateMutability":"nonpayable"},{"type":"function","name":"emergencyRecovery","inputs":[{"name":"swapId","type":"bytes32","internalType":"bytes32"}],"outputs":[],"stateMutability":"nonpayable"},{"type":"function","name":"failedSwaps","inputs":[],"outputs":[{"name":"","type":"uint256","internalType":"uint256"}],"stateMutability":"view"},{"type":"function","name":"getSwapState","inputs":[{"name":"swapId","type":"bytes32","internalType":"bytes32"}],"outputs":[{"name":"","type":"tuple","internalType":"struct ICrossChainManager.SwapState","components":[{"name":"user","type":"address","internalType":"address"},{"name":"tokenIn","type":"address","internalType":"address"},{"name":"tokenOut","type":"address","internalType":"address"},{"name":"amountIn","type":"uint256","internalType":"uint256"},{"name":"amountOut","type":"uint256","internalType":"uint256"},{"name":"sourceChainId","type":"uint256","internalType":"uint256"},{"name":"destinationChainId","type":"uint256","internalType":"uint256"},{"name":"initiatedAt","type":"uint256","internalType":"uint256"},{"name":"completedAt","type":"uint256","internalType":"uint256"},{"name":"deadline","type":"uint256","internalType":"uint256"},{"name":"status","type":"uint8","internalType":"enum ICrossChainManager.SwapStatus"},{"name":"bridgeTransactionId","type":"bytes32","internalType":"bytes32"}]}],"stateMutability":"view"},{"type":"function","name":"getSwapStatistics","inputs":[],"outputs":[{"name":"totalSwapsCount","type":"uint256","internalType":"uint256"},{"name":"successfulSwapsCount","type":"uint256","internalType":"uint256"},{"name":"failedSwapsCount","type":"uint256","internalType":"uint256"},{"name":"averageExecutionTime","type":"uint256","internalType":"uint256"}],"stateMutability":"view"},{"type":"function","name":"getUserActiveSwaps","inputs":[{"name":"user","type":"address","internalType":"address"}],"outputs":[{"name":"","type":"bytes32[]","internalType":"bytes32[]"}],"stateMutability":"view"},{"type":"function","name":"handleDestinationSwap","inputs":[{"name":"swapId","type":"bytes32","internalType":"bytes32"},{"name":"","type":"bytes","internalType":"bytes"}],"outputs":[],"stateMutability":"nonpayable"},{"type":"function","name":"initiateCrossChainSwap","inputs":[{"name":"params","type":"tuple","internalType":"struct ICrossChainManager.CrossChainSwapParams","components":[{"name":"user","type":"address","internalType":"address"},{"name":"tokenIn","type":"address","internalType":"address"},{"name":"tokenOut","type":"address","internalType":"address"},{"name":"amountIn","type":"uint256","internalType":"uint256"},{"name":"minAmountOut","type":"uint256","internalType":"uint256"},{"name":"sourceChainId","type":"uint256","internalType":"uint256"},{"name":"destinationChainId","type":"uint256","internalType":"uint256"},{"name":"deadline","type":"uint256","internalType":"uint256"},{"name":"swapData","type":"bytes","internalType":"bytes"}]}],"outputs":[{"name":"swapId","type":"bytes32","internalType":"bytes32"}],"stateMutability":"nonpayable"},{"type":"function","name":"isPaused","inputs":[],"outputs":[{"name":"","type":"bool","internalType":"bool"}],"stateMutability":"view"},{"type":"function","name":"isSwapActive","inputs":[{"name":"swapId","type":"bytes32","internalType":"bytes32"}],"outputs":[{"name":"","type":"bool","internalType":"bool"}],"stateMutability":"view"},{"type":"function","name":"owner","inputs":[],"outputs":[{"name":"","type":"address","internalType":"address"}],"stateMutability":"view"},{"type":"function","name":"pause","inputs":[],"outputs":[],"stateMutability":"nonpayable"},{"type":"function","name":"pauseCrossChainOperations","inputs":[{"name":"pauseState","type":"bool","internalType":"bool"}],"outputs":[],"stateMutability":"nonpayable"},{"type":"function","name":"renounceOwnership","inputs":[],"outputs":[],"stateMutability":"nonpayable"},{"type":"function","name":"successfulSwaps","inputs":[],"outputs":[{"name":"","type":"uint256","internalType":"uint256"}],"stateMutability":"view"},{"type":"function","name":"supportedChains","inputs":[{"name":"","type":"uint256","internalType":"uint256"}],"outputs":[{"name":"","type":"bool","internalType":"bool"}],"stateMutability":"view"},{"type":"function","name":"totalSwaps","inputs":[],"outputs":[{"name":"","type":"uint256","internalType":"uint256"}],"stateMutability":"view"},{"type":"function","name":"transferOwnership","inputs":[{"name":"newOwner","type":"address","internalType":"address"}],"outputs":[],"stateMutability":"nonpayable"},{"type":"function","name":"unpause","inputs":[],"outputs":[],"stateMutability":"nonpayable"},{"type":"function","name":"updateBridgeIntegration","inputs":[{"name":"newBridgeIntegration","type":"address","internalType":"address"}],"outputs":[],"stateMutability":"nonpayable"},{"type":"function","name":"updateChainConfiguration","inputs":[{"name":"chainId","type":"uint256","internalType":"uint256"},{"name":"enabled","type":"bool","internalType":"bool"},{"name":"maxGasPrice","type":"uint256","internalType":"uint256"}],"outputs":[],"stateMutability":"nonpayable"},{"type":"event","name":"ChainConfigUpdated","inputs":[{"name":"chainId","type":"uint256","indexed":true,"internalType":"uint256"},{"name":"enabled","type":"bool","indexed":false,"internalType":"bool"},{"name":"maxGasPrice","type":"uint256","indexed":false,"internalType":"uint256"}],"anonymous":false},{"type":"event","name":"CrossChainSwapCompleted","inputs":[{"name":"swapId","type":"bytes32","indexed":true,"internalType":"bytes32"},{"name":"user","type":"address","indexed":true,"internalType":"address"},{"name":"amountOut","type":"uint256","indexed":false,"internalType":"uint256"},{"name":"totalSavingsUSD","type":"uint256","indexed":false,"internalType":"uint256"}],"anonymous":false},{"type":"event","name":"CrossChainSwapInitiated","inputs":[{"name":"swapId","type":"bytes32","indexed":true,"internalType":"bytes32"},{"name":"user","type":"address","indexed":true,"internalType":"address"},{"name":"sourceChain","type":"uint256","indexed":false,"internalType":"uint256"},{"name":"destinationChain","type":"uint256","indexed":false,"internalType":"uint256"},{"name":"tokenIn","type":"address","indexed":false,"internalType":"address"},{"name":"tokenOut","type":"address","indexed":false,"internalType":"address"},{"name":"amountIn","type":"uint256","indexed":false,"internalType":"uint256"}],"anonymous":false},{"type":"event","name":"EmergencyPauseToggled","inputs":[{"name":"isPaused","type":"bool","indexed":false,"internalType":"bool"},{"name":"admin","type":"address","indexed":true,"internalType":"address"}],"anonymous":false},{"type":"event","name":"OwnershipTransferred","inputs":[{"name":"previousOwner","type":"address","indexed":true,"internalType":"address"},{"name":"newOwner","type":"address","indexed":true,"internalType":"address"}],"anonymous":false},{"type":"error","name":"BridgeTimeout","inputs":[]},{"type":"error","name":"CrossChainSwapFailed","inputs":[]},{"type":"error","name":"EmergencyPauseActive","inputs":[]},{"type":"error","name":"InvalidBridgeParams","inputs":[]},{"type":"error","name":"InvalidChainId","inputs":[]},{"type":"error","name":"InvalidDestinationChain","inputs":[]},{"type":"error","name":"OwnableInvalidOwner","inputs":[{"name":"owner","type":"address","internalType":"address"}]},{"type":"error","name":"OwnableUnauthorizedAccount","inputs":[{"name":"account","type":"address","internalType":"address"}]},{"type":"error","name":"ReentrancyGuardReentrantCall","inputs":[]},{"type":"error","name":"UnauthorizedSender","inputs":[]},{"type":"error","name":"ZeroAddress","inputs":[]},{"type":"error","name":"ZeroAmount","inputs":[]}],"bytecode":{"object":"0x6080346101ce57601f611bcc38819003918201601f19168301916001600160401b038311848410176101d25780849260409485528339810103126101ce57610052602061004b836101e6565b92016101e6565b6001600160a01b039091169081156101bb575f80546001600160a01b031981168417825560405193916001600160a01b03909116907f8be0079c531659141344cd1fd0a4f28419497f9722a3daafe3b4186f6b6457e09080a36001808055600580546001600160a01b0319166001600160a01b03939093169290921790915560046020527fabd6e7cb50984ff9c2f3e18a2660c3353dadf4e3291deeb275dae2cd1e44fe05805460ff1990811683179091557f6b9ac384f7f53524c5ccf3206e339a1858e866a93c0b5f8485b15dfdf97905e280548216831790557f5c6b02db8b672415ffad906d7ccee10bd53dbad7d0b29e2bc0e50c93d5f3109380548216831790557f907b08434ac958ede2a264ebafec1874958c44bd102e1bc36a06cd703932da0b80548216831790556121055f527f88c3635684bf227e4f0401916bcd508d25456108be47808174ccf7961c8cbd95805490911690911790556119d190816101fb8239f35b631e4fbdf760e01b5f525f60045260245ffd5b5f80fd5b634e487b7160e01b5f52604160045260245ffd5b51906001600160a01b03821682036101ce5756fe60806040526004361015610011575f80fd5b5f3560e01c80630dd4114514611599578063118c12de146114b757806335a0b18b146110475780633f4ba83a14610fbb57806345f7ecfd14610db357806349cdea0014610d78578063543871ff14610c50578063548d496f14610c0357806359d1b05b14610b4c578063704928fa14610a99578063715018a6146109ff5780638456cb591461095b5780638a21d347146107d15780638da5cb5b14610781578063962bc38514610746578063a61dac1214610628578063b187bd26146105e5578063b4a800ce146105aa578063d593df6d14610559578063db9b6d0614610362578063de57337b146102c3578063ebace8b8146102095763f2fde38b14610116575f80fd5b346102055760207ffffffffffffffffffffffffffffffffffffffffffffffffffffffffffffffffc3601126102055760043573ffffffffffffffffffffffffffffffffffffffff81168091036102055761016e611820565b80156101d95773ffffffffffffffffffffffffffffffffffffffff5f54827fffffffffffffffffffffffff00000000000000000000000000000000000000008216175f55167f8be0079c531659141344cd1fd0a4f28419497f9722a3daafe3b4186f6b6457e05f80a3005b7f1e4fbdf7000000000000000000000000000000000000000000000000000000005f525f60045260245ffd5b5f80fd5b346102055760207ffffffffffffffffffffffffffffffffffffffffffffffffffffffffffffffffc360112610205576004355f52600260205260ff600a60405f2001541660078110158061028957600482141590816102b6575b81610276575b6020826040519015158152f35b9050610289576006602091141582610269565b7f4e487b71000000000000000000000000000000000000000000000000000000005f52602160045260245ffd5b505060058114155f610263565b34610205575f7ffffffffffffffffffffffffffffffffffffffffffffffffffffffffffffffffc36011261020557600654600754600854811592919083610357576009549361032a578160809404915b604051938452602084015260408301526060820152f35b7f4e487b71000000000000000000000000000000000000000000000000000000005f52601260045260245ffd5b608093505f91610313565b346102055760207ffffffffffffffffffffffffffffffffffffffffffffffffffffffffffffffffc360112610205575f6101606040516103a1816116c8565b8281528260208201528260408201528260608201528260808201528260a08201528260c08201528260e082015282610100820152826101208201528261014082015201526004355f52600260205260405f206040516103ff816116c8565b73ffffffffffffffffffffffffffffffffffffffff825416815273ffffffffffffffffffffffffffffffffffffffff600183015416916020820192835273ffffffffffffffffffffffffffffffffffffffff60028201541660408301908152600382015460608401908152600483015460808501908152600584015460a0860190815260068501549060c0870191825260078601549260e0880193845260088701549461010089019586526009880154966101208a0197885260ff600a8a015416906101408b0199600783101561028957600b73ffffffffffffffffffffffffffffffffffffffff939184928d5201549c6101608d019d8e52816040519d51168d52511660208c0152511660408a01525160608901525160808801525160a08701525160c08601525160e0850152516101008401525161012083015251916007831015610289576101809261014083015251610160820152f35b34610205575f7ffffffffffffffffffffffffffffffffffffffffffffffffffffffffffffffffc36011261020557602073ffffffffffffffffffffffffffffffffffffffff60055416604051908152f35b34610205575f7ffffffffffffffffffffffffffffffffffffffffffffffffffffffffffffffffc360112610205576020600654604051908152f35b34610205575f7ffffffffffffffffffffffffffffffffffffffffffffffffffffffffffffffffc36011261020557602060ff60055460a01c166040519015158152f35b346102055760207ffffffffffffffffffffffffffffffffffffffffffffffffffffffffffffffffc360112610205576004356106626117c3565b805f52600260205260405f209073ffffffffffffffffffffffffffffffffffffffff825416330361071e57600a820160ff8154166007811015610289576005036106f6576106f09273ffffffffffffffffffffffffffffffffffffffff9160067fffffffffffffffffffffffffffffffffffffffffffffffffffffffffffffff00825416179055541661186c565b60018055005b7f5cfbf1a9000000000000000000000000000000000000000000000000000000005f5260045ffd5b7f08094908000000000000000000000000000000000000000000000000000000005f5260045ffd5b34610205575f7ffffffffffffffffffffffffffffffffffffffffffffffffffffffffffffffffc360112610205576020600754604051908152f35b34610205575f7ffffffffffffffffffffffffffffffffffffffffffffffffffffffffffffffffc36011261020557602073ffffffffffffffffffffffffffffffffffffffff5f5416604051908152f35b346102055760207ffffffffffffffffffffffffffffffffffffffffffffffffffffffffffffffffc3601126102055760043561080b6117c3565b805f52600260205260405f209073ffffffffffffffffffffffffffffffffffffffff8254163314158061093a575b61071e57600a820160ff8154166007811015610289576004811490811561092f575b506106f65773ffffffffffffffffffffffffffffffffffffffff5f541633036108d7575b6106f09273ffffffffffffffffffffffffffffffffffffffff9160067fffffffffffffffffffffffffffffffffffffffffffffffffffffffffffffff008254161790556108cd600854611789565b600855541661186c565b60098301544211610e106108ef6007860154426117b6565b1090159081610927575b501561087f577f3893f41f000000000000000000000000000000000000000000000000000000005f5260045ffd5b9050846108f9565b60069150148461085b565b5073ffffffffffffffffffffffffffffffffffffffff5f5416331415610839565b34610205575f7ffffffffffffffffffffffffffffffffffffffffffffffffffffffffffffffffc36011261020557610991611820565b740100000000000000000000000000000000000000007fffffffffffffffffffffff00ffffffffffffffffffffffffffffffffffffffff6005541617600555604051600181527f81fb10540499dac6157b25576349c719be885b5774e4a0dda606c2f33947d51f60203392a2005b34610205575f7ffffffffffffffffffffffffffffffffffffffffffffffffffffffffffffffffc36011261020557610a35611820565b5f73ffffffffffffffffffffffffffffffffffffffff81547fffffffffffffffffffffffff000000000000000000000000000000000000000081168355167f8be0079c531659141344cd1fd0a4f28419497f9722a3daafe3b4186f6b6457e08280a3005b346102055760207ffffffffffffffffffffffffffffffffffffffffffffffffffffffffffffffffc3601126102055760043573ffffffffffffffffffffffffffffffffffffffff811680910361020557610af1611820565b8015610b24577fffffffffffffffffffffffff000000000000000000000000000000000000000060055416176005555f80f35b7fd92e233d000000000000000000000000000000000000000000000000000000005f5260045ffd5b346102055760207ffffffffffffffffffffffffffffffffffffffffffffffffffffffffffffffffc3601126102055760043580151580910361020557610b90611820565b6005547fffffffffffffffffffffff00ffffffffffffffffffffffffffffffffffffffff74ff00000000000000000000000000000000000000008360a01b169116176005556040519081527f81fb10540499dac6157b25576349c719be885b5774e4a0dda606c2f33947d51f60203392a2005b346102055760207ffffffffffffffffffffffffffffffffffffffffffffffffffffffffffffffffc360112610205576004355f526004602052602060ff60405f2054166040519015158152f35b346102055760607ffffffffffffffffffffffffffffffffffffffffffffffffffffffffffffffffc3601126102055760043560243580151580910361020557610c97611820565b600182148015610d6d575b8015610d63575b8015610d59575b8015610d4e575b15610d265760407fdcc5d68f58c59137f750b7b1d90bbe2069612c8d035b02f4b5667915fd9383a691835f526004602052815f207fffffffffffffffffffffffffffffffffffffffffffffffffffffffffffffff0081541660ff831617905581519081526044356020820152a2005b7f7a47c9a2000000000000000000000000000000000000000000000000000000005f5260045ffd5b506121058214610cb7565b5060898214610cb0565b50600a8214610ca9565b5061a4b18214610ca2565b34610205575f7ffffffffffffffffffffffffffffffffffffffffffffffffffffffffffffffffc360112610205576020600854604051908152f35b346102055760207ffffffffffffffffffffffffffffffffffffffffffffffffffffffffffffffffc36011261020557600435610ded6117c3565b60ff60055460a01c16610f9357805f52600260205260405f209073ffffffffffffffffffffffffffffffffffffffff825416156106f657600a820160ff81541660078110158061028957600382141580610f86575b6106f65761028957600114610f6f575b60047fffffffffffffffffffffffffffffffffffffffffffffffffffffffffffffff00825416179055610e9f60088301428155610e90600754611789565b600755546007840154906117b6565b600954908101809111610f4257600955610ed08173ffffffffffffffffffffffffffffffffffffffff84541661186c565b7f295c5774aabd2380b28f246b9b408006b5f53dc7a9166239362c500bd4385847604073ffffffffffffffffffffffffffffffffffffffff8454169360036004820154910154818082115f14610f3a57610f29916117b6565b82519182526020820152a360018055005b50505f610f29565b7f4e487b71000000000000000000000000000000000000000000000000000000005f52601160045260245ffd5b610f7c60038401546117fc565b6004840155610e52565b50505f6001821415610e42565b7f909b1917000000000000000000000000000000000000000000000000000000005f5260045ffd5b34610205575f7ffffffffffffffffffffffffffffffffffffffffffffffffffffffffffffffffc36011261020557610ff1611820565b7fffffffffffffffffffffff00ffffffffffffffffffffffffffffffffffffffff600554166005556040515f81527f81fb10540499dac6157b25576349c719be885b5774e4a0dda606c2f33947d51f60203392a2005b346102055760207ffffffffffffffffffffffffffffffffffffffffffffffffffffffffffffffffc3601126102055760043567ffffffffffffffff81116102055780600401906101207ffffffffffffffffffffffffffffffffffffffffffffffffffffffffffffffffc8236030112610205576110c26117c3565b60ff60055460a01c16610f935760c4810135805f52600460205260ff60405f2054161561148f5773ffffffffffffffffffffffffffffffffffffffff61110784611726565b1615610b245760648201359081156114675760e48301359142831061143f5761112f85611726565b6024850195600a61113f88611726565b92604488019361114e85611726565b7fffffffffffffffffffffffffffffffffffffffff00000000000000000000000060065491816040519481602087019760601b16875260601b16603485015260601b16604883015286605c83015287607c83015242609c83015260bc82015260bc81526111bc60dc826116e5565b51902096875f52600260205260a460405f209173ffffffffffffffffffffffffffffffffffffffff6111ed86611726565b167fffffffffffffffffffffffff000000000000000000000000000000000000000084541617835561121e8b611726565b73ffffffffffffffffffffffffffffffffffffffff6001850191167fffffffffffffffffffffffff000000000000000000000000000000000000000082541617905561126986611726565b73ffffffffffffffffffffffffffffffffffffffff6002850191167fffffffffffffffffffffffff000000000000000000000000000000000000000082541617905586600384015501359687600583015586600683015542600783015560098201550160017fffffffffffffffffffffffffffffffffffffffffffffffffffffffffffffff0082541617905573ffffffffffffffffffffffffffffffffffffffff61131382611726565b165f52600360205260405f2096875493680100000000000000008510156114125773ffffffffffffffffffffffffffffffffffffffff88968160a0966113e76113e16113db60209f996113c88e6113927f9d8603ca06b4c19f641a281f307b8d00c990f26e21ba03a44e7670e7e81547199f899e600182018155611747565b9091907fffffffffffffffffffffffffffffffffffffffffffffffffffffffffffffffff83549160031b92831b921b1916179055565b6113d3600654611789565b600655611726565b97611726565b91611726565b926040519b8c528d8c01521660408a015216606088015260808701521693a360018055604051908152f35b7f4e487b71000000000000000000000000000000000000000000000000000000005f52604160045260245ffd5b7fd2ba3b59000000000000000000000000000000000000000000000000000000005f5260045ffd5b7f1f2a2005000000000000000000000000000000000000000000000000000000005f5260045ffd5b7fb86ac1ef000000000000000000000000000000000000000000000000000000005f5260045ffd5b346102055760207ffffffffffffffffffffffffffffffffffffffffffffffffffffffffffffffffc3601126102055760043573ffffffffffffffffffffffffffffffffffffffff8116809103610205575f52600360205260405f20604051806020835491828152019081935f5260205f20905f5b81811061158357505050816115419103826116e5565b604051918291602083019060208452518091526040830191905f5b81811061156a575050500390f35b825184528594506020938401939092019160010161155c565b825484526020909301926001928301920161152b565b346102055760407ffffffffffffffffffffffffffffffffffffffffffffffffffffffffffffffffc3601126102055760243567ffffffffffffffff8111610205573660238201121561020557806004013567ffffffffffffffff811161020557369101602401116102055761160c6117c3565b60ff60055460a01c16610f93576004355f52600260205260405f2073ffffffffffffffffffffffffffffffffffffffff815416156106f657600a81019060ff8254166007811015610289576001036106f65760027fffffffffffffffffffffffffffffffffffffffffffffffffffffffffffffff00835416178255600461169660038301546117fc565b91015580547fffffffffffffffffffffffffffffffffffffffffffffffffffffffffffffff0016600317905560018055005b610180810190811067ffffffffffffffff82111761141257604052565b90601f7fffffffffffffffffffffffffffffffffffffffffffffffffffffffffffffffe0910116810190811067ffffffffffffffff82111761141257604052565b3573ffffffffffffffffffffffffffffffffffffffff811681036102055790565b805482101561175c575f5260205f2001905f90565b7f4e487b71000000000000000000000000000000000000000000000000000000005f52603260045260245ffd5b7fffffffffffffffffffffffffffffffffffffffffffffffffffffffffffffffff8114610f425760010190565b91908203918211610f4257565b6002600154146117d4576002600155565b7f3ee5aeb5000000000000000000000000000000000000000000000000000000005f5260045ffd5b601e810290808204601e1481151715610f425761271061181d9204906117b6565b90565b73ffffffffffffffffffffffffffffffffffffffff5f5416330361184057565b7f118cdaa7000000000000000000000000000000000000000000000000000000005f523360045260245ffd5b73ffffffffffffffffffffffffffffffffffffffff165f52600360205260405f205f5b81548082101561199557836118a48385611747565b90549060031b1c146118b9575060010161188f565b9192507fffffffffffffffffffffffffffffffffffffffffffffffffffffffffffffffff8201918211610f42576113926118f66119049385611747565b90549060031b1c9184611747565b80548015611968577fffffffffffffffffffffffffffffffffffffffffffffffffffffffffffffffff01906119398282611747565b7fffffffffffffffffffffffffffffffffffffffffffffffffffffffffffffffff82549160031b1b1916905555565b7f4e487b71000000000000000000000000000000000000000000000000000000005f52603160045260245ffd5b5050505056fea2646970667358221220cf38762129f506efa0110ed018e1335f888784962d71fa852c6920c60e90494d64736f6c634300081a0033","linkReferences":{}},"methodIdentifiers":{"acrossIntegration()":"d593df6d","claimFailedSwap(bytes32)":"a61dac12","completeCrossChainSwap(bytes32)":"45f7ecfd","emergencyRecovery(bytes32)":"8a21d347","failedSwaps()":"49cdea00","getSwapState(bytes32)":"db9b6d06","getSwapStatistics()":"de57337b","getUserActiveSwaps(address)":"118c12de","handleDestinationSwap(bytes32,bytes)":"0dd41145","initiateCrossChainSwap((address,address,address,uint256,uint256,uint256,uint256,uint256,bytes))":"35a0b18b","isPaused()":"b187bd26","isSwapActive(bytes32)":"ebace8b8","owner()":"8da5cb5b","pause()":"8456cb59","pauseCrossChainOperations(bool)":"59d1b05b","renounceOwnership()":"715018a6","successfulSwaps()":"962bc385","supportedChains(uint256)":"548d496f","totalSwaps()":"b4a800ce","transferOwnership(address)":"f2fde38b","unpause()":"3f4ba83a","updateBridgeIntegration(address)":"704928fa","updateChainConfiguration(uint256,bool,uint256)":"543871ff"},"id":103}