{"abi":[{"type":"constructor","inputs":[{"name":"_poolManager","type":"address","internalType":"contract IPoolManager"},{"name":"_permit2","type":"address","internalType":"contract IAllowanceTransfer"},{"name":"_unsubscribeGasLimit","type":"uint256","internalType":"uint256"},{"name":"_tokenDescriptor","type":"address","internalType":"contract IPositionDescriptor"},{"name":"_weth9","type":"address","internalType":"contract IWETH9"}],"stateMutability":"nonpayable"},{"type":"receive","stateMutability":"payable"},{"type":"function","name":"DOMAIN_SEPARATOR","inputs":[],"outputs":[{"name":"","type":"bytes32","internalType":"bytes32"}],"stateMutability":"view"},{"type":"function","name":"WETH9","inputs":[],"outputs":[{"name":"","type":"address","internalType":"contract IWETH9"}],"stateMutability":"view"},{"type":"function","name":"approve","inputs":[{"name":"spender","type":"address","internalType":"address"},{"name":"id","type":"uint256","internalType":"uint256"}],"outputs":[],"stateMutability":"nonpayable"},{"type":"function","name":"balanceOf","inputs":[{"name":"owner","type":"address","internalType":"address"}],"outputs":[{"name":"","type":"uint256","internalType":"uint256"}],"stateMutability":"view"},{"type":"function","name":"getApproved","inputs":[{"name":"","type":"uint256","internalType":"uint256"}],"outputs":[{"name":"","type":"address","internalType":"address"}],"stateMutability":"view"},{"type":"function","name":"getPoolAndPositionInfo","inputs":[{"name":"tokenId","type":"uint256","internalType":"uint256"}],"outputs":[{"name":"poolKey","type":"tuple","internalType":"struct PoolKey","components":[{"name":"currency0","type":"address","internalType":"Currency"},{"name":"currency1","type":"address","internalType":"Currency"},{"name":"fee","type":"uint24","internalType":"uint24"},{"name":"tickSpacing","type":"int24","internalType":"int24"},{"name":"hooks","type":"address","internalType":"contract IHooks"}]},{"name":"info","type":"uint256","internalType":"PositionInfo"}],"stateMutability":"view"},{"type":"function","name":"getPositionLiquidity","inputs":[{"name":"tokenId","type":"uint256","internalType":"uint256"}],"outputs":[{"name":"liquidity","type":"uint128","internalType":"uint128"}],"stateMutability":"view"},{"type":"function","name":"initializePool","inputs":[{"name":"key","type":"tuple","internalType":"struct PoolKey","components":[{"name":"currency0","type":"address","internalType":"Currency"},{"name":"currency1","type":"address","internalType":"Currency"},{"name":"fee","type":"uint24","internalType":"uint24"},{"name":"tickSpacing","type":"int24","internalType":"int24"},{"name":"hooks","type":"address","internalType":"contract IHooks"}]},{"name":"sqrtPriceX96","type":"uint160","internalType":"uint160"}],"outputs":[{"name":"","type":"int24","internalType":"int24"}],"stateMutability":"payable"},{"type":"function","name":"isApprovedForAll","inputs":[{"name":"","type":"address","internalType":"address"},{"name":"","type":"address","internalType":"address"}],"outputs":[{"name":"","type":"bool","internalType":"bool"}],"stateMutability":"view"},{"type":"function","name":"modifyLiquidities","inputs":[{"name":"unlockData","type":"bytes","internalType":"bytes"},{"name":"deadline","type":"uint256","internalType":"uint256"}],"outputs":[],"stateMutability":"payable"},{"type":"function","name":"modifyLiquiditiesWithoutUnlock","inputs":[{"name":"actions","type":"bytes","internalType":"bytes"},{"name":"params","type":"bytes[]","internalType":"bytes[]"}],"outputs":[],"stateMutability":"payable"},{"type":"function","name":"msgSender","inputs":[],"outputs":[{"name":"","type":"address","internalType":"address"}],"stateMutability":"view"},{"type":"function","name":"multicall","inputs":[{"name":"data","type":"bytes[]","internalType":"bytes[]"}],"outputs":[{"name":"results","type":"bytes[]","internalType":"bytes[]"}],"stateMutability":"payable"},{"type":"function","name":"name","inputs":[],"outputs":[{"name":"","type":"string","internalType":"string"}],"stateMutability":"view"},{"type":"function","name":"nextTokenId","inputs":[],"outputs":[{"name":"","type":"uint256","internalType":"uint256"}],"stateMutability":"view"},{"type":"function","name":"nonces","inputs":[{"name":"owner","type":"address","internalType":"address"},{"name":"word","type":"uint256","internalType":"uint256"}],"outputs":[{"name":"bitmap","type":"uint256","internalType":"uint256"}],"stateMutability":"view"},{"type":"function","name":"ownerOf","inputs":[{"name":"id","type":"uint256","internalType":"uint256"}],"outputs":[{"name":"owner","type":"address","internalType":"address"}],"stateMutability":"view"},{"type":"function","name":"permit","inputs":[{"name":"spender","type":"address","internalType":"address"},{"name":"tokenId","type":"uint256","internalType":"uint256"},{"name":"deadline","type":"uint256","internalType":"uint256"},{"name":"nonce","type":"uint256","internalType":"uint256"},{"name":"signature","type":"bytes","internalType":"bytes"}],"outputs":[],"stateMutability":"payable"},{"type":"function","name":"permit","inputs":[{"name":"owner","type":"address","internalType":"address"},{"name":"permitSingle","type":"tuple","internalType":"struct IAllowanceTransfer.PermitSingle","components":[{"name":"details","type":"tuple","internalType":"struct IAllowanceTransfer.PermitDetails","components":[{"name":"token","type":"address","internalType":"address"},{"name":"amount","type":"uint160","internalType":"uint160"},{"name":"expiration","type":"uint48","internalType":"uint48"},{"name":"nonce","type":"uint48","internalType":"uint48"}]},{"name":"spender","type":"address","internalType":"address"},{"name":"sigDeadline","type":"uint256","internalType":"uint256"}]},{"name":"signature","type":"bytes","internalType":"bytes"}],"outputs":[{"name":"err","type":"bytes","internalType":"bytes"}],"stateMutability":"payable"},{"type":"function","name":"permit2","inputs":[],"outputs":[{"name":"","type":"address","internalType":"contract IAllowanceTransfer"}],"stateMutability":"view"},{"type":"function","name":"permitBatch","inputs":[{"name":"owner","type":"address","internalType":"address"},{"name":"_permitBatch","type":"tuple","internalType":"struct IAllowanceTransfer.PermitBatch","components":[{"name":"details","type":"tuple[]","internalType":"struct IAllowanceTransfer.PermitDetails[]","components":[{"name":"token","type":"address","internalType":"address"},{"name":"amount","type":"uint160","internalType":"uint160"},{"name":"expiration","type":"uint48","internalType":"uint48"},{"name":"nonce","type":"uint48","internalType":"uint48"}]},{"name":"spender","type":"address","internalType":"address"},{"name":"sigDeadline","type":"uint256","internalType":"uint256"}]},{"name":"signature","type":"bytes","internalType":"bytes"}],"outputs":[{"name":"err","type":"bytes","internalType":"bytes"}],"stateMutability":"payable"},{"type":"function","name":"permitForAll","inputs":[{"name":"owner","type":"address","internalType":"address"},{"name":"operator","type":"address","internalType":"address"},{"name":"approved","type":"bool","internalType":"bool"},{"name":"deadline","type":"uint256","internalType":"uint256"},{"name":"nonce","type":"uint256","internalType":"uint256"},{"name":"signature","type":"bytes","internalType":"bytes"}],"outputs":[],"stateMutability":"payable"},{"type":"function","name":"poolKeys","inputs":[{"name":"poolId","type":"bytes25","internalType":"bytes25"}],"outputs":[{"name":"currency0","type":"address","internalType":"Currency"},{"name":"currency1","type":"address","internalType":"Currency"},{"name":"fee","type":"uint24","internalType":"uint24"},{"name":"tickSpacing","type":"int24","internalType":"int24"},{"name":"hooks","type":"address","internalType":"contract IHooks"}],"stateMutability":"view"},{"type":"function","name":"poolManager","inputs":[],"outputs":[{"name":"","type":"address","internalType":"contract IPoolManager"}],"stateMutability":"view"},{"type":"function","name":"positionInfo","inputs":[{"name":"tokenId","type":"uint256","internalType":"uint256"}],"outputs":[{"name":"info","type":"uint256","internalType":"PositionInfo"}],"stateMutability":"view"},{"type":"function","name":"revokeNonce","inputs":[{"name":"nonce","type":"uint256","internalType":"uint256"}],"outputs":[],"stateMutability":"payable"},{"type":"function","name":"safeTransferFrom","inputs":[{"name":"from","type":"address","internalType":"address"},{"name":"to","type":"address","internalType":"address"},{"name":"id","type":"uint256","internalType":"uint256"}],"outputs":[],"stateMutability":"nonpayable"},{"type":"function","name":"safeTransferFrom","inputs":[{"name":"from","type":"address","internalType":"address"},{"name":"to","type":"address","internalType":"address"},{"name":"id","type":"uint256","internalType":"uint256"},{"name":"data","type":"bytes","internalType":"bytes"}],"outputs":[],"stateMutability":"nonpayable"},{"type":"function","name":"setApprovalForAll","inputs":[{"name":"operator","type":"address","internalType":"address"},{"name":"approved","type":"bool","internalType":"bool"}],"outputs":[],"stateMutability":"nonpayable"},{"type":"function","name":"subscribe","inputs":[{"name":"tokenId","type":"uint256","internalType":"uint256"},{"name":"newSubscriber","type":"address","internalType":"address"},{"name":"data","type":"bytes","internalType":"bytes"}],"outputs":[],"stateMutability":"payable"},{"type":"function","name":"subscriber","inputs":[{"name":"tokenId","type":"uint256","internalType":"uint256"}],"outputs":[{"name":"subscriber","type":"address","internalType":"contract ISubscriber"}],"stateMutability":"view"},{"type":"function","name":"supportsInterface","inputs":[{"name":"interfaceId","type":"bytes4","internalType":"bytes4"}],"outputs":[{"name":"","type":"bool","internalType":"bool"}],"stateMutability":"view"},{"type":"function","name":"symbol","inputs":[],"outputs":[{"name":"","type":"string","internalType":"string"}],"stateMutability":"view"},{"type":"function","name":"tokenDescriptor","inputs":[],"outputs":[{"name":"","type":"address","internalType":"contract IPositionDescriptor"}],"stateMutability":"view"},{"type":"function","name":"tokenURI","inputs":[{"name":"tokenId","type":"uint256","internalType":"uint256"}],"outputs":[{"name":"","type":"string","internalType":"string"}],"stateMutability":"view"},{"type":"function","name":"transferFrom","inputs":[{"name":"from","type":"address","internalType":"address"},{"name":"to","type":"address","internalType":"address"},{"name":"id","type":"uint256","internalType":"uint256"}],"outputs":[],"stateMutability":"nonpayable"},{"type":"function","name":"unlockCallback","inputs":[{"name":"data","type":"bytes","internalType":"bytes"}],"outputs":[{"name":"","type":"bytes","internalType":"bytes"}],"stateMutability":"nonpayable"},{"type":"function","name":"unsubscribe","inputs":[{"name":"tokenId","type":"uint256","internalType":"uint256"}],"outputs":[],"stateMutability":"payable"},{"type":"function","name":"unsubscribeGasLimit","inputs":[],"outputs":[{"name":"","type":"uint256","internalType":"uint256"}],"stateMutability":"view"},{"type":"event","name":"Approval","inputs":[{"name":"owner","type":"address","indexed":true,"internalType":"address"},{"name":"spender","type":"address","indexed":true,"internalType":"address"},{"name":"id","type":"uint256","indexed":true,"internalType":"uint256"}],"anonymous":false},{"type":"event","name":"ApprovalForAll","inputs":[{"name":"owner","type":"address","indexed":true,"internalType":"address"},{"name":"operator","type":"address","indexed":true,"internalType":"address"},{"name":"approved","type":"bool","indexed":false,"internalType":"bool"}],"anonymous":false},{"type":"event","name":"Subscription","inputs":[{"name":"tokenId","type":"uint256","indexed":true,"internalType":"uint256"},{"name":"subscriber","type":"address","indexed":true,"internalType":"address"}],"anonymous":false},{"type":"event","name":"Transfer","inputs":[{"name":"from","type":"address","indexed":true,"internalType":"address"},{"name":"to","type":"address","indexed":true,"internalType":"address"},{"name":"id","type":"uint256","indexed":true,"internalType":"uint256"}],"anonymous":false},{"type":"event","name":"Unsubscription","inputs":[{"name":"tokenId","type":"uint256","indexed":true,"internalType":"uint256"},{"name":"subscriber","type":"address","indexed":true,"internalType":"address"}],"anonymous":false},{"type":"error","name":"AlreadySubscribed","inputs":[{"name":"tokenId","type":"uint256","internalType":"uint256"},{"name":"subscriber","type":"address","internalType":"address"}]},{"type":"error","name":"BurnNotificationReverted","inputs":[{"name":"subscriber","type":"address","internalType":"address"},{"name":"reason","type":"bytes","internalType":"bytes"}]},{"type":"error","name":"ContractLocked","inputs":[]},{"type":"error","name":"DeadlinePassed","inputs":[{"name":"deadline","type":"uint256","internalType":"uint256"}]},{"type":"error","name":"DeltaNotNegative","inputs":[{"name":"currency","type":"address","internalType":"Currency"}]},{"type":"error","name":"DeltaNotPositive","inputs":[{"name":"currency","type":"address","internalType":"Currency"}]},{"type":"error","name":"GasLimitTooLow","inputs":[]},{"type":"error","name":"InputLengthMismatch","inputs":[]},{"type":"error","name":"InsufficientBalance","inputs":[]},{"type":"error","name":"InvalidContractSignature","inputs":[]},{"type":"error","name":"InvalidEthSender","inputs":[]},{"type":"error","name":"InvalidSignature","inputs":[]},{"type":"error","name":"InvalidSignatureLength","inputs":[]},{"type":"error","name":"InvalidSigner","inputs":[]},{"type":"error","name":"MaximumAmountExceeded","inputs":[{"name":"maximumAmount","type":"uint128","internalType":"uint128"},{"name":"amountRequested","type":"uint128","internalType":"uint128"}]},{"type":"error","name":"MinimumAmountInsufficient","inputs":[{"name":"minimumAmount","type":"uint128","internalType":"uint128"},{"name":"amountReceived","type":"uint128","internalType":"uint128"}]},{"type":"error","name":"ModifyLiquidityNotificationReverted","inputs":[{"name":"subscriber","type":"address","internalType":"address"},{"name":"reason","type":"bytes","internalType":"bytes"}]},{"type":"error","name":"NoCodeSubscriber","inputs":[]},{"type":"error","name":"NoSelfPermit","inputs":[]},{"type":"error","name":"NonceAlreadyUsed","inputs":[]},{"type":"error","name":"NotApproved","inputs":[{"name":"caller","type":"address","internalType":"address"}]},{"type":"error","name":"NotPoolManager","inputs":[]},{"type":"error","name":"NotSubscribed","inputs":[]},{"type":"error","name":"PoolManagerMustBeLocked","inputs":[]},{"type":"error","name":"SignatureDeadlineExpired","inputs":[]},{"type":"error","name":"SubscriptionReverted","inputs":[{"name":"subscriber","type":"address","internalType":"address"},{"name":"reason","type":"bytes","internalType":"bytes"}]},{"type":"error","name":"Unauthorized","inputs":[]},{"type":"error","name":"UnsupportedAction","inputs":[{"name":"action","type":"uint256","internalType":"uint256"}]}],"bytecode":{"object":"0x61018080604052346105365760a081616eb28038038091610020828561053a565b8339810103126105365780516001600160a01b03811681036105365760208201516001600160a01b03811681036105365760408301516060840151936001600160a01b03851685036105365760800151926001600160a01b03841684036105365760405161008f60408261053a565b6018815260208101907f556e697377617020763420506f736974696f6e73204e4654000000000000000082526040516100c960408261053a565b600b81526a554e492d56342d504f534d60a81b602082015281516001600160401b03811161044a575f54600181811c9116801561052c575b602082101461042c57601f81116104ca575b50806020601f8211600114610469575f9161045e575b508160011b915f199060031b1c1916175f555b8051906001600160401b03821161044a5760015490600182811c92168015610440575b602083101461042c5781601f8493116103be575b50602090601f8311600114610358575f9261034d575b50508160011b915f199060031b1c1916176001555b5190208060c0524660a05260405160208101917f8cad95687ba82c2ce50e74f7b754645e5117c3a5bec8151c0726d5857980a86683526040820152466060820152306080820152608081526101f460a08261053a565b51902060805260e052610100526101205261014052600160085561016052604051616954908161055e823960805181612c77015260a05181612c51015260c05181612cc6015260e051818181610d0b015281816111a2015281816114d101528181611e480152818161223c015281816122ef01528181612781015281816128b00152818161316f0152818161325d015281816137a7015281816146c9015281816147c901528181614879015281816149aa01528181614cf901528181614f6c0152818161552f015281816156e0015281816158ac015281816159c501528181615a6f01526163140152610100518181816118090152613aa10152610120518181816103e501528181610bbc0152818161107e0152615a03015261014051818181611876015281816131ee01528181614384015281816143ed0152818161451e01526145b4015261016051818181611aaa01526126350152f35b015190505f80610189565b60015f9081528281209350601f198516905b8181106103a6575090846001959493921061038e575b505050811b0160015561019e565b01515f1960f88460031b161c191690555f8080610380565b9293602060018192878601518155019501930161036a565b60015f529091507fb10e2d527612073b26eecdfd717e6a320cf44b4afac2b0732d9fcbe2b7fa0cf6601f840160051c81019160208510610422575b90601f859493920160051c01905b8181106104145750610173565b5f8155849350600101610407565b90915081906103f9565b634e487b7160e01b5f52602260045260245ffd5b91607f169161015f565b634e487b7160e01b5f52604160045260245ffd5b90508301515f610129565b5f8080528181209250601f198416905b8181106104b25750908360019493921061049a575b5050811b015f5561013c565b8501515f1960f88460031b161c191690555f8061048e565b9192602060018192868a015181550194019201610479565b5f80527f290decd9548b62a8d60345a988386fc84ba6bc95484008f6362f93160ef3e563601f830160051c81019160208410610522575b601f0160051c01905b8181106105175750610113565b5f815560010161050a565b9091508190610501565b90607f1690610101565b5f80fd5b601f909101601f19168101906001600160401b0382119082101761044a5760405256fe60806040526004361015610022575b3615610018575f80fd5b6100206131d7565b005b5f3560e01c80622a3e3a1461029057806301ffc9a71461028b57806305c1ee201461028657806306fdde0314610281578063081812fc1461027c578063095ea7b3146102775780630f5730f11461027257806312261ee71461026d57806316a24131146102685780631efeed331461026357806323b872dd1461025e5780632b67b570146102595780632b9261de146102545780633644e5151461024f5780633aea60f01461024a57806342842e0e146102455780634767565f146102405780634aa4a4fc1461023b5780634afe393c14610236578063502e1a16146102315780635a9d7a681461022c5780636352211e1461022757806370a082311461022257806375794a3c1461021d5780637ba03aad1461021857806386b6be7d1461021357806389097a6a1461020e57806391dd73461461020957806395d89b4114610204578063a22cb465146101ff578063ac9650d8146101fa578063ad0b27fb146101f5578063b88d4fde146101f0578063c87b56dd146101eb578063d737d0c7146101e6578063dc4c90d3146101e1578063dd46508f146101dc578063e985e9c5146101d75763f70204050361000e576129fe565b612960565b6127a5565b612737565b6126c7565b6125b5565b61227c565b61220a565b6120ef565b612021565b611f4e565b611de1565b611d99565b611cd2565b611c38565b611bfd565b611b28565b611ace565b611a60565b6119eb565b6118cb565b61182c565b6117d4565b6114be565b6113ba565b61136b565b611141565b610fe2565b610cf7565b610c3e565b610be0565b610b72565b610a2b565b61094c565b6108ee565b6107b9565b6106ea565b6105fa565b610349565b73ffffffffffffffffffffffffffffffffffffffff8116036102b357565b5f80fd5b35906102c282610295565b565b9181601f840112156102b35782359167ffffffffffffffff83116102b357602083818601950101116102b357565b907fffffffffffffffffffffffffffffffffffffffffffffffffffffffffffffffe0601f602080948051918291828752018686015e5f8582860101520116010190565b9060206103469281815201906102f2565b90565b60607ffffffffffffffffffffffffffffffffffffffffffffffffffffffffffffffffc3601126102b35760043561037f81610295565b6024359067ffffffffffffffff82116102b3578136039160607ffffffffffffffffffffffffffffffffffffffffffffffffffffffffffffffffc8401126102b35760443567ffffffffffffffff81116102b3576103e09036906004016102c4565b6060947f000000000000000000000000000000000000000000000000000000000000000073ffffffffffffffffffffffffffffffffffffffff1693909290843b156102b35773ffffffffffffffffffffffffffffffffffffffff604051967f2a2d80d10000000000000000000000000000000000000000000000000000000088521660048701526060602487015260c48601937fffffffffffffffffffffffffffffffffffffffffffffffffffffffffffffffdd826004013591018112156102b35781016024600482013591019467ffffffffffffffff82116102b3578160071b360386136102b35760606064890152819052869460e48601949392915f5b8181106105a8575050506105595f96948694889460448561052361050660248b99016102b7565b73ffffffffffffffffffffffffffffffffffffffff166084890152565b013560a48601527ffffffffffffffffffffffffffffffffffffffffffffffffffffffffffffffffc858403016044860152612b62565b03925af1908161058e575b506105855750610581610575612c08565b60405191829182610335565b0390f35b61058190610575565b8061059c5f6105a293610778565b80610720565b5f610564565b91965091929394608080826105bf6001948b612ae9565b0197019101918896959493926104df565b7fffffffff000000000000000000000000000000000000000000000000000000008116036102b357565b346102b35760207ffffffffffffffffffffffffffffffffffffffffffffffffffffffffffffffffc3601126102b35760207fffffffff00000000000000000000000000000000000000000000000000000000600435610658816105d0565b167f01ffc9a70000000000000000000000000000000000000000000000000000000081149081156106c0575b8115610696575b506040519015158152f35b7f5b5e139f000000000000000000000000000000000000000000000000000000009150145f61068b565b7f80ac58cd0000000000000000000000000000000000000000000000000000000081149150610684565b60207ffffffffffffffffffffffffffffffffffffffffffffffffffffffffffffffffc3601126102b35761002060043533613285565b5f9103126102b357565b7f4e487b71000000000000000000000000000000000000000000000000000000005f52604160045260245ffd5b60a0810190811067ffffffffffffffff82111761077357604052565b61072a565b90601f7fffffffffffffffffffffffffffffffffffffffffffffffffffffffffffffffe0910116810190811067ffffffffffffffff82111761077357604052565b346102b3575f7ffffffffffffffffffffffffffffffffffffffffffffffffffffffffffffffffc3601126102b3576040515f80548060011c90600181169081156108e4575b6020831082146108b75782855260208501919081156108805750600114610830575b6105818461057581860382610778565b5f8080529250907f290decd9548b62a8d60345a988386fc84ba6bc95484008f6362f93160ef3e5635b81841061086c5750500161057582610820565b805484840152602090930192600101610859565b7fffffffffffffffffffffffffffffffffffffffffffffffffffffffffffffff001682525090151560051b01905061057582610820565b7f4e487b71000000000000000000000000000000000000000000000000000000005f52602260045260245ffd5b91607f16916107fe565b346102b35760207ffffffffffffffffffffffffffffffffffffffffffffffffffffffffffffffffc3601126102b3576004355f526004602052602073ffffffffffffffffffffffffffffffffffffffff60405f205416604051908152f35b346102b35760407ffffffffffffffffffffffffffffffffffffffffffffffffffffffffffffffffc3601126102b35760043561098781610295565b602435805f52600260205273ffffffffffffffffffffffffffffffffffffffff60405f2054169182331415806109ed575b6109c557610020926132f3565b7f82b42900000000000000000000000000000000000000000000000000000000005f5260045ffd5b50825f52600560205260ff610a233360405f209073ffffffffffffffffffffffffffffffffffffffff165f5260205260405f2090565b5416156109b8565b60a07ffffffffffffffffffffffffffffffffffffffffffffffffffffffffffffffffc3601126102b357600435610a6181610295565b602435604435916064359260843567ffffffffffffffff81116102b357610a8c9036906004016102c4565b94824211610b4a57610b3f85610b459361002098610b39885f80998682526002602052818973ffffffffffffffffffffffffffffffffffffffff6040832054169c8d9981604051977f49ecf333e5b8c95c40fdafc95c1ad136e8914a8fb55e9dc8bb01eaa83a2df9ad895273ffffffffffffffffffffffffffffffffffffffff60208a01911681526040890192835260608901948552608089019687528160a08a20995252525252613384565b9161343d565b82613285565b6132f3565b7f5a9165ff000000000000000000000000000000000000000000000000000000005f5260045ffd5b346102b3575f7ffffffffffffffffffffffffffffffffffffffffffffffffffffffffffffffffc3601126102b357602060405173ffffffffffffffffffffffffffffffffffffffff7f0000000000000000000000000000000000000000000000000000000000000000168152f35b346102b35760207ffffffffffffffffffffffffffffffffffffffffffffffffffffffffffffffffc3601126102b3576004355f526007602052602073ffffffffffffffffffffffffffffffffffffffff60405f205416604051908152f35b346102b35760207ffffffffffffffffffffffffffffffffffffffffffffffffffffffffffffffffc3601126102b3576020610c93600435610c7e81612e18565b919082851c60020b9260081c60020b916136e7565b6fffffffffffffffffffffffffffffffff60405191168152f35b7ffffffffffffffffffffffffffffffffffffffffffffffffffffffffffffffffc60609101126102b357600435610ce381610295565b90602435610cf081610295565b9060443590565b346102b357610d0536610cad565b91610d2f7f0000000000000000000000000000000000000000000000000000000000000000613828565b610fba578291610eb1610d83610d6a610d50865f52600260205260405f2090565b5473ffffffffffffffffffffffffffffffffffffffff1690565b73ffffffffffffffffffffffffffffffffffffffff1690565b91610da673ffffffffffffffffffffffffffffffffffffffff85169384146138c8565b610e0a73ffffffffffffffffffffffffffffffffffffffff821694610dcc86151561392d565b8433148015610f62575b8015610f3d575b610de690613992565b73ffffffffffffffffffffffffffffffffffffffff165f52600360205260405f2090565b80547fffffffffffffffffffffffffffffffffffffffffffffffffffffffffffffffff019055610e588173ffffffffffffffffffffffffffffffffffffffff165f52600360205260405f2090565b80546001019055610e71855f52600260205260405f2090565b9073ffffffffffffffffffffffffffffffffffffffff167fffffffffffffffffffffffff0000000000000000000000000000000000000000825416179055565b610eee610ec6845f52600460205260405f2090565b80547fffffffffffffffffffffffff0000000000000000000000000000000000000000169055565b7fddf252ad1be2c89b69c2b068fc378daa952ba7f163c4a11628f55a4df523b3ef5f80a4610f2e610f27825f52600960205260405f2090565b5460ff1690565b610f3457005b610020906139f7565b50610de6610f59610d6a610d508a5f52600460205260405f2090565b33149050610ddd565b50610fb5610f2733610f928473ffffffffffffffffffffffffffffffffffffffff165f52600560205260405f2090565b9073ffffffffffffffffffffffffffffffffffffffff165f5260205260405f2090565b610dd6565b7fd4b05fe0000000000000000000000000000000000000000000000000000000005f5260045ffd5b6101007ffffffffffffffffffffffffffffffffffffffffffffffffffffffffffffffffc3601126102b35760043561101981610295565b60c07fffffffffffffffffffffffffffffffffffffffffffffffffffffffffffffffdc3601126102b35760e43567ffffffffffffffff81116102b3576110639036906004016102c4565b9160609273ffffffffffffffffffffffffffffffffffffffff7f000000000000000000000000000000000000000000000000000000000000000016803b156102b35773ffffffffffffffffffffffffffffffffffffffff5f8094610559604051978896879586947f2b67b5700000000000000000000000000000000000000000000000000000000086521660048501526110ff60248501612a64565b73ffffffffffffffffffffffffffffffffffffffff60a43561112081610295565b1660a485015260c43560c485015261010060e4850152610104840191612b62565b60607ffffffffffffffffffffffffffffffffffffffffffffffffffffffffffffffffc3601126102b35760243560043561117a82610295565b60443567ffffffffffffffff81116102b35761119a9036906004016102c4565b6111c69391937f0000000000000000000000000000000000000000000000000000000000000000613828565b610fba576111d48333613b5c565b1561133f5773ffffffffffffffffffffffffffffffffffffffff611203610d50855f52600760205260405f2090565b16806112f657505f838152600960205260409020805460011790556112c6906112c2906112bc73ffffffffffffffffffffffffffffffffffffffff85169661125788610e71895f52600760205260405f2090565b6112906040519384927f8d57f6b20000000000000000000000000000000000000000000000000000000060208501528960248501612c37565b037fffffffffffffffffffffffffffffffffffffffffffffffffffffffffffffffe08101835282610778565b83613c32565b1590565b6112f157507f9709492381f90bdc5938bb4e3b8e35b7e0eac8af058619e27191c5a40ce79fa95f80a3005b613c73565b7f25fbd8be000000000000000000000000000000000000000000000000000000005f52600484905273ffffffffffffffffffffffffffffffffffffffff1660245260445ffd5b5ffd5b7f0ca968d8000000000000000000000000000000000000000000000000000000005f523360045260245ffd5b346102b3575f7ffffffffffffffffffffffffffffffffffffffffffffffffffffffffffffffffc3601126102b35760206113a3612c4e565b604051908152f35b6044359081151582036102b357565b60c07ffffffffffffffffffffffffffffffffffffffffffffffffffffffffffffffffc3601126102b3576004356113f081610295565b6024356113fc81610295565b6114046113ab565b906064359260843560a43567ffffffffffffffff81116102b35761142c9036906004016102c4565b869291924211610b4a57836114b993610b3f92610b39885f6100209c8189818f81604051977f6673cb397ee2a50b6b8401653d3638b4ac8b3db9c28aa6870ffceb7574ec2f76895273ffffffffffffffffffffffffffffffffffffffff60208a0191168152600160408a019316835260608901948552608089019687528160a08a20995252525252613384565b613fd3565b346102b3576114cc36610cad565b6114f57f0000000000000000000000000000000000000000000000000000000000000000613828565b610fba57611511610d6a610d50835f52600260205260405f2090565b9161153473ffffffffffffffffffffffffffffffffffffffff85169384146138c8565b8173ffffffffffffffffffffffffffffffffffffffff8216809461155982151561392d565b803314801561179f575b801561177a575b61157390613992565b61159b8773ffffffffffffffffffffffffffffffffffffffff165f52600360205260405f2090565b80547fffffffffffffffffffffffffffffffffffffffffffffffffffffffffffffffff0190556115e98473ffffffffffffffffffffffffffffffffffffffff165f52600360205260405f2090565b8054600101905561160684610e71855f52600260205260405f2090565b61161b610ec6845f52600460205260405f2090565b7fddf252ad1be2c89b69c2b068fc378daa952ba7f163c4a11628f55a4df523b3ef5f80a4611654610f27835f52600960205260405f2090565b61176c575b3b1591821561166c575b61002083612d20565b6040517f150b7a0200000000000000000000000000000000000000000000000000000000815233600482015273ffffffffffffffffffffffffffffffffffffffff9490941660248501526044840191909152608060648401525f6084840181905260209250839160a49183915af18015611767577fffffffff000000000000000000000000000000000000000000000000000000007f150b7a020000000000000000000000000000000000000000000000000000000091610020935f91611738575b5016145f80611663565b61175a915060203d602011611760575b6117528183610778565b810190612d0b565b5f61172e565b503d611748565b612ba0565b611775826139f7565b611659565b50611573611796610d6a610d50865f52600460205260405f2090565b3314905061156a565b506117cf610f2733610f928a73ffffffffffffffffffffffffffffffffffffffff165f52600560205260405f2090565b611563565b346102b3575f7ffffffffffffffffffffffffffffffffffffffffffffffffffffffffffffffffc3601126102b35760206040517f00000000000000000000000000000000000000000000000000000000000000008152f35b346102b3575f7ffffffffffffffffffffffffffffffffffffffffffffffffffffffffffffffffc3601126102b357602060405173ffffffffffffffffffffffffffffffffffffffff7f0000000000000000000000000000000000000000000000000000000000000000168152f35b9181601f840112156102b35782359167ffffffffffffffff83116102b3576020808501948460051b0101116102b357565b60407ffffffffffffffffffffffffffffffffffffffffffffffffffffffffffffffffc3601126102b35760043567ffffffffffffffff81116102b3576119159036906004016102c4565b60243567ffffffffffffffff81116102b35761193590369060040161189a565b9173ffffffffffffffffffffffffffffffffffffffff7f0aedd6bde10e3aa2adec092b02a3e3e805795516cda41f27aa145b8f300af87a5c166119c35761199e93337f0aedd6bde10e3aa2adec092b02a3e3e805795516cda41f27aa145b8f300af87a5d6140a0565b5f7f0aedd6bde10e3aa2adec092b02a3e3e805795516cda41f27aa145b8f300af87a5d005b7f6f5ffb7e000000000000000000000000000000000000000000000000000000005f5260045ffd5b346102b35760407ffffffffffffffffffffffffffffffffffffffffffffffffffffffffffffffffc3601126102b357600435611a2681610295565b73ffffffffffffffffffffffffffffffffffffffff60243591165f52600660205260405f20905f52602052602060405f2054604051908152f35b346102b3575f7ffffffffffffffffffffffffffffffffffffffffffffffffffffffffffffffffc3601126102b357602060405173ffffffffffffffffffffffffffffffffffffffff7f0000000000000000000000000000000000000000000000000000000000000000168152f35b346102b35760207ffffffffffffffffffffffffffffffffffffffffffffffffffffffffffffffffc3601126102b3576020611b0a600435612dea565b73ffffffffffffffffffffffffffffffffffffffff60405191168152f35b346102b35760207ffffffffffffffffffffffffffffffffffffffffffffffffffffffffffffffffc3601126102b35773ffffffffffffffffffffffffffffffffffffffff600435611b7881610295565b168015611b9f575f52600360205261058160405f2054604051918291829190602083019252565b60646040517f08c379a000000000000000000000000000000000000000000000000000000000815260206004820152600c60248201527f5a45524f5f4144445245535300000000000000000000000000000000000000006044820152fd5b346102b3575f7ffffffffffffffffffffffffffffffffffffffffffffffffffffffffffffffffc3601126102b3576020600854604051908152f35b346102b35760207ffffffffffffffffffffffffffffffffffffffffffffffffffffffffffffffffc3601126102b35760c0611c74600435612e18565b611ccb604051809373ffffffffffffffffffffffffffffffffffffffff6080809282815116855282602082015116602086015262ffffff6040820151166040860152606081015160020b6060860152015116910152565b60a0820152f35b346102b35760207ffffffffffffffffffffffffffffffffffffffffffffffffffffffffffffffffc3601126102b3576004357fffffffffffffffffffffffffffffffffffffffffffffffffff0000000000000081168091036102b3575f908152600a602090815260409182902080546001820154600292830154855173ffffffffffffffffffffffffffffffffffffffff93841681528383169581019590955260a082811c62ffffff169686019690965260b89190911c90920b6060840152166080820152f35b346102b35760207ffffffffffffffffffffffffffffffffffffffffffffffffffffffffffffffffc3601126102b3576004355f526009602052602060405f2054604051908152f35b346102b35760207ffffffffffffffffffffffffffffffffffffffffffffffffffffffffffffffffc3601126102b35760043567ffffffffffffffff81116102b357611e309036906004016102c4565b9073ffffffffffffffffffffffffffffffffffffffff7f0000000000000000000000000000000000000000000000000000000000000000163303611f265760408135189063ffffffff60408201351663ffffffe0601f8201169260608401602084013518179282019260608401359483641fffffffe08760051b16805f905b88818310611ef75790506080929150010191011017611eea576060608063ffffffff611edf9616940192016140a0565b610581610575612bf4565b633b99b53d5f526004601cfd5b8294509263ffffffe0601f60808060209687969801013599848b1817998d010135011601019201869291611eaf565b7fae18210a000000000000000000000000000000000000000000000000000000005f5260045ffd5b346102b3575f7ffffffffffffffffffffffffffffffffffffffffffffffffffffffffffffffffc3601126102b3576040515f6001548060011c9060018116908115612017575b6020831082146108b75782855260208501919081156108805750600114611fc5576105818461057581860382610778565b60015f9081529250907fb10e2d527612073b26eecdfd717e6a320cf44b4afac2b0732d9fcbe2b7fa0cf65b8184106120035750500161057582610820565b805484840152602090930192600101611ff0565b91607f1691611f94565b346102b35760407ffffffffffffffffffffffffffffffffffffffffffffffffffffffffffffffffc3601126102b35760043561205c81610295565b60243580151581036102b3576100209133613fd3565b602081016020825282518091526040820191602060408360051b8301019401925f915b8383106120a457505050505090565b90919293946020806120e0837fffffffffffffffffffffffffffffffffffffffffffffffffffffffffffffffc0866001960301875289516102f2565b97019301930191939290612095565b60207ffffffffffffffffffffffffffffffffffffffffffffffffffffffffffffffffc3601126102b35760043567ffffffffffffffff81116102b35761213990369060040161189a565b9061214382612f2a565b916121516040519384610778565b8083527fffffffffffffffffffffffffffffffffffffffffffffffffffffffffffffffe061217e82612f2a565b015f5b8181106121f95750505f5b8181106121a157604051806105818682612072565b5f806121ae838587612f6f565b906121be60405180938193612fd4565b0390305af46121cb612c08565b90156121f157906001916121df8287612fe1565b526121ea8186612fe1565b500161218c565b602081519101fd5b806060602080938801015201612181565b60207ffffffffffffffffffffffffffffffffffffffffffffffffffffffffffffffffc3601126102b3576004356122607f0000000000000000000000000000000000000000000000000000000000000000613828565b610fba5761226e8133613b5c565b1561133f57610020906139f7565b346102b35760807ffffffffffffffffffffffffffffffffffffffffffffffffffffffffffffffffc3601126102b3576004356122b781610295565b602435906122c482610295565b60443560643567ffffffffffffffff81116102b3576122e79036906004016102c4565b9390916123137f0000000000000000000000000000000000000000000000000000000000000000613828565b610fba5761232f610d6a610d50835f52600260205260405f2090565b9161235273ffffffffffffffffffffffffffffffffffffffff86169384146138c8565b8173ffffffffffffffffffffffffffffffffffffffff8216809461237782151561392d565b8033148015612580575b801561255b575b61239190613992565b6123b98873ffffffffffffffffffffffffffffffffffffffff165f52600360205260405f2090565b80547fffffffffffffffffffffffffffffffffffffffffffffffffffffffffffffffff0190556124078473ffffffffffffffffffffffffffffffffffffffff165f52600360205260405f2090565b8054600101905561242484610e71855f52600260205260405f2090565b612439610ec6845f52600460205260405f2090565b7fddf252ad1be2c89b69c2b068fc378daa952ba7f163c4a11628f55a4df523b3ef5f80a4612472610f27835f52600960205260405f2090565b61254d575b3b1593841561248a575b61002085612d20565b602094505f906124ca604051978896879586947f150b7a020000000000000000000000000000000000000000000000000000000086523360048701612ff5565b03925af18015611767577fffffffff000000000000000000000000000000000000000000000000000000007f150b7a020000000000000000000000000000000000000000000000000000000091610020935f9161252e575b5016145f808080612481565b612547915060203d602011611760576117528183610778565b5f612522565b612556826139f7565b612477565b50612391612577610d6a610d50865f52600460205260405f2090565b33149050612388565b506125b0610f2733610f928b73ffffffffffffffffffffffffffffffffffffffff165f52600560205260405f2090565b612381565b346102b35760207ffffffffffffffffffffffffffffffffffffffffffffffffffffffffffffffffc3601126102b357600435604051907fe9dc637500000000000000000000000000000000000000000000000000000000825230600483015260248201525f8160448173ffffffffffffffffffffffffffffffffffffffff7f0000000000000000000000000000000000000000000000000000000000000000165afa8015611767575f90612674575b6105819060405191829182610335565b503d805f833e6126848183610778565b8101906020818303126102b35780519067ffffffffffffffff82116102b3570181601f820112156102b357610581918160206126c293519101613030565b612664565b346102b3575f7ffffffffffffffffffffffffffffffffffffffffffffffffffffffffffffffffc3601126102b35760207f0aedd6bde10e3aa2adec092b02a3e3e805795516cda41f27aa145b8f300af87a5c73ffffffffffffffffffffffffffffffffffffffff60405191168152f35b346102b3575f7ffffffffffffffffffffffffffffffffffffffffffffffffffffffffffffffffc3601126102b357602060405173ffffffffffffffffffffffffffffffffffffffff7f0000000000000000000000000000000000000000000000000000000000000000168152f35b60407ffffffffffffffffffffffffffffffffffffffffffffffffffffffffffffffffc3601126102b35760043567ffffffffffffffff81116102b3576127ef9036906004016102c4565b60243573ffffffffffffffffffffffffffffffffffffffff7f0aedd6bde10e3aa2adec092b02a3e3e805795516cda41f27aa145b8f300af87a5c166119c357337f0aedd6bde10e3aa2adec092b02a3e3e805795516cda41f27aa145b8f300af87a5d804211612935576040517f48c89491000000000000000000000000000000000000000000000000000000008152602060048201525f8180612896602482018789612b62565b03818373ffffffffffffffffffffffffffffffffffffffff7f0000000000000000000000000000000000000000000000000000000000000000165af18015611767576128e5575b61002061407b565b3d805f833e6128f48183610778565b8101906020818303126102b35780519067ffffffffffffffff82116102b357019080601f830112156102b357815161292e92602001613030565b50806128dd565b7fbfb22adf000000000000000000000000000000000000000000000000000000005f5260045260245ffd5b346102b35760407ffffffffffffffffffffffffffffffffffffffffffffffffffffffffffffffffc3601126102b357602060ff6129f26004356129a281610295565b73ffffffffffffffffffffffffffffffffffffffff602435916129c483610295565b165f526005845260405f209073ffffffffffffffffffffffffffffffffffffffff165f5260205260405f2090565b54166040519015158152f35b7ffffffffffffffffffffffffffffffffffffffffffffffffffffffffffffffffc360160c081126102b35760a0136102b3576020612a4660a435612a4181610295565b613093565b6040519060020b8152f35b359065ffffffffffff821682036102b357565b73ffffffffffffffffffffffffffffffffffffffff602435612a8581610295565b16815273ffffffffffffffffffffffffffffffffffffffff604435612aa981610295565b16602082015260643565ffffffffffff81168091036102b357604082015260843565ffffffffffff811681036102b35765ffffffffffff60609116910152565b65ffffffffffff612b5c6060809373ffffffffffffffffffffffffffffffffffffffff8135612b1781610295565b16865273ffffffffffffffffffffffffffffffffffffffff6020820135612b3d81610295565b16602087015283612b5060408301612a51565b16604087015201612a51565b16910152565b601f82602094937fffffffffffffffffffffffffffffffffffffffffffffffffffffffffffffffe093818652868601375f8582860101520116010190565b6040513d5f823e3d90fd5b604051906102c2608083610778565b67ffffffffffffffff811161077357601f017fffffffffffffffffffffffffffffffffffffffffffffffffffffffffffffffe01660200190565b60405190612c03602083610778565b5f8252565b3d15612c32573d90612c1982612bba565b91612c276040519384610778565b82523d5f602084013e565b606090565b604090610346949281528160208201520191612b62565b467f000000000000000000000000000000000000000000000000000000000000000003612c99577f000000000000000000000000000000000000000000000000000000000000000090565b60405160208101907f8cad95687ba82c2ce50e74f7b754645e5117c3a5bec8151c0726d5857980a86682527f0000000000000000000000000000000000000000000000000000000000000000604082015246606082015230608082015260808152612d0560a082610778565b51902090565b908160209103126102b35751610346816105d0565b15612d2757565b60646040517f08c379a000000000000000000000000000000000000000000000000000000000815260206004820152601060248201527f554e534146455f524543495049454e54000000000000000000000000000000006044820152fd5b15612d8c57565b60646040517f08c379a000000000000000000000000000000000000000000000000000000000815260206004820152600a60248201527f4e4f545f4d494e544544000000000000000000000000000000000000000000006044820152fd5b5f52600260205273ffffffffffffffffffffffffffffffffffffffff60405f205416906102c2821515612d85565b5f6080604051612e2781610757565b82815282602082015282604082015282606082015201525f52600960205260405f2054807fffffffffffffffffffffffffffffffffffffffffffffffffff00000000000000165f52600a60205260405f20612f27612f0a600260405193612e8d85610757565b73ffffffffffffffffffffffffffffffffffffffff8154168552612eef612ee5600183015473ffffffffffffffffffffffffffffffffffffffff8116602089015262ffffff8160a01c16604089015260b81c60020b90565b60020b6060870152565b015473ffffffffffffffffffffffffffffffffffffffff1690565b73ffffffffffffffffffffffffffffffffffffffff166080830152565b91565b67ffffffffffffffff81116107735760051b60200190565b7f4e487b71000000000000000000000000000000000000000000000000000000005f52603260045260245ffd5b9190811015612fcf5760051b810135907fffffffffffffffffffffffffffffffffffffffffffffffffffffffffffffffe1813603018212156102b357019081359167ffffffffffffffff83116102b35760200182360381136102b3579190565b612f42565b908092918237015f815290565b8051821015612fcf5760209160051b010190565b909273ffffffffffffffffffffffffffffffffffffffff60809381610346989616845216602083015260408201528160608201520191612b62565b92919261303c82612bba565b9161304a6040519384610778565b8294818452818301116102b3578281602093845f96015e010152565b8060020b036102b357565b908160209103126102b3575161034681613066565b62ffffff8116036102b357565b73ffffffffffffffffffffffffffffffffffffffff604051917f6276cbbe000000000000000000000000000000000000000000000000000000008352816004356130dc81610295565b166004840152816024356130ef81610295565b16602484015262ffffff60443561310581613086565b16604484015260643561311781613066565b60020b606484015261314b60843561312e81610295565b73ffffffffffffffffffffffffffffffffffffffff166084850152565b1660a482015260208160c4815f73ffffffffffffffffffffffffffffffffffffffff7f0000000000000000000000000000000000000000000000000000000000000000165af15f91816131a6575b506103465750627fffff90565b6131c991925060203d6020116131d0575b6131c18183610778565b810190613071565b905f613199565b503d6131b7565b73ffffffffffffffffffffffffffffffffffffffff7f00000000000000000000000000000000000000000000000000000000000000001633141580613245575b61321d57565b7f38bbd576000000000000000000000000000000000000000000000000000000005f5260045ffd5b5073ffffffffffffffffffffffffffffffffffffffff7f000000000000000000000000000000000000000000000000000000000000000016331415613217565b9073ffffffffffffffffffffffffffffffffffffffff600160ff83161b92165f52600660205260405f209060081c5f5260205260405f208181541880915516156132cb57565b7f1fb09b80000000000000000000000000000000000000000000000000000000005f5260045ffd5b9073ffffffffffffffffffffffffffffffffffffffff8091845f52600460205261335b8160405f209073ffffffffffffffffffffffffffffffffffffffff167fffffffffffffffffffffffff0000000000000000000000000000000000000000825416179055565b1691167f8c5be1e5ebec7d5bd14f71427d1e84f3dd0314c0f7b2291e5b200ac8c7c3b9255f80a4565b9061338d612c4e565b91604051927f19010000000000000000000000000000000000000000000000000000000000008452600284015260228301525f604060428420938281528260208201520152565b91908260409103126102b3576020823592013590565b7f4e487b71000000000000000000000000000000000000000000000000000000005f52601160045260245ffd5b60ff601b9116019060ff821161342957565b6133ea565b9060401015612fcf5760400190565b90833b6135ec576041810361356057906020926134c68361349e61349861347261346a5f988801886133d4565b94909761342e565b357fff000000000000000000000000000000000000000000000000000000000000001690565b60f81c90565b935b604051948594859094939260ff6060936080840197845216602083015260408201520152565b838052039060015afa156117675773ffffffffffffffffffffffffffffffffffffffff5f51169081156135385773ffffffffffffffffffffffffffffffffffffffff160361351057565b7f815e1d64000000000000000000000000000000000000000000000000000000005f5260045ffd5b7f8baa579f000000000000000000000000000000000000000000000000000000005f5260045ffd5b90604082036135c45760209261357d825f946134c69401906133d4565b9290926135be6135b96135b37f7fffffffffffffffffffffffffffffffffffffffffffffffffffffffffffffff84169360ff1c90565b60ff1690565b613417565b936134a0565b7f4be6321b000000000000000000000000000000000000000000000000000000005f5260045ffd5b90926136409373ffffffffffffffffffffffffffffffffffffffff602094604051968795869485937f1626ba7e00000000000000000000000000000000000000000000000000000000855260048501612c37565b0392165afa908115611767577f1626ba7e00000000000000000000000000000000000000000000000000000000917fffffffff00000000000000000000000000000000000000000000000000000000915f916136c8575b5016036136a057565b7fb0669cbc000000000000000000000000000000000000000000000000000000005f5260045ffd5b6136e1915060203d602011611760576117528183610778565b5f613697565b92906137229260a092604051956026870152600686015260038501523084525f603a600c86012094816040820152816020820152522061561f565b60068101809111613429576040805160208181019485529181019290925261378e9290916137538160608101611290565b519020604051809381927f1e2eaeaf000000000000000000000000000000000000000000000000000000008352600483019190602083019252565b038173ffffffffffffffffffffffffffffffffffffffff7f0000000000000000000000000000000000000000000000000000000000000000165afa8015611767576fffffffffffffffffffffffffffffffff915f916137ec57501690565b61380e915060203d602011613812575b6138068183610778565b810190613819565b1690565b503d6137fc565b908160209103126102b3575190565b602073ffffffffffffffffffffffffffffffffffffffff916024604051809481937ff135baaa0000000000000000000000000000000000000000000000000000000083527fc090fc4683624cfc3884e9d8de5eca132f2d0ec062aff75d43c0465d5ceeab236004840152165afa908115611767575f916138a9575b50151590565b6138c2915060203d602011613812576138068183610778565b5f6138a3565b156138cf57565b60646040517f08c379a000000000000000000000000000000000000000000000000000000000815260206004820152600a60248201527f57524f4e475f46524f4d000000000000000000000000000000000000000000006044820152fd5b1561393457565b60646040517f08c379a000000000000000000000000000000000000000000000000000000000815260206004820152601160248201527f494e56414c49445f524543495049454e540000000000000000000000000000006044820152fd5b1561399957565b60646040517f08c379a000000000000000000000000000000000000000000000000000000000815260206004820152600e60248201527f4e4f545f415554484f52495a45440000000000000000000000000000000000006044820152fd5b73ffffffffffffffffffffffffffffffffffffffff613a21610d50835f52600760205260405f2090565b16908115613b34575f81815260096020526040902080547fffffffffffffffffffffffffffffffffffffffffffffffffffffffffffffff00169055613a71610ec6825f52600760205260405f2090565b813b613a9e575b7fa0ebb1de82db929a9153472f37d3a66dbede4436258311ad0f52a35a2c91d1505f80a3565b5a7f0000000000000000000000000000000000000000000000000000000000000000809110613b2f57823b156102b3575f60405180927faf45dd1400000000000000000000000000000000000000000000000000000000825281838782613b0d89600483019190602083019252565b0393f1613b1b575b50613a78565b8061059c5f613b2993610778565b5f613b15565b614109565b7f237e6c28000000000000000000000000000000000000000000000000000000005f5260045ffd5b73ffffffffffffffffffffffffffffffffffffffff613b7a83612dea565b169173ffffffffffffffffffffffffffffffffffffffff8216928314928315613c04575b508215613baa57505090565b60ff92509073ffffffffffffffffffffffffffffffffffffffff613bd0613bff93612dea565b165f52600560205260405f209073ffffffffffffffffffffffffffffffffffffffff165f5260205260405f2090565b541690565b908093505f52600460205273ffffffffffffffffffffffffffffffffffffffff60405f20541614915f613b9e565b803b15613c4b57815f92918360208194519301915af190565b7f7c402b21000000000000000000000000000000000000000000000000000000005f5260045ffd5b7fffffffffffffffffffffffffffffffffffffffffffffffffffffffffffffffe0601f3d011673ffffffffffffffffffffffffffffffffffffffff604051927f90bfb8650000000000000000000000000000000000000000000000000000000084521660048301527f8d57f6b2000000000000000000000000000000000000000000000000000000006024830152608060448301528060a00160648301523d60848301523d5f60a484013e7f81ea5e9e0000000000000000000000000000000000000000000000000000000060c4828401600460a4820152015260e40190fd5b7fffffffffffffffffffffffffffffffffffffffffffffffffffffffffffffffe0601f3d011673ffffffffffffffffffffffffffffffffffffffff604051927f90bfb8650000000000000000000000000000000000000000000000000000000084521660048301527fa9059cbb000000000000000000000000000000000000000000000000000000006024830152608060448301528060a00160648301523d60848301523d5f60a484013e7ff27f64e40000000000000000000000000000000000000000000000000000000060c4828401600460a4820152015260e40190fd5b7fffffffffffffffffffffffffffffffffffffffffffffffffffffffffffffffe0601f3d011673ffffffffffffffffffffffffffffffffffffffff604051927f90bfb8650000000000000000000000000000000000000000000000000000000084521660048301525f6024830152608060448301528060a00160648301523d60848301523d5f60a484013e7ff4b3b1bc0000000000000000000000000000000000000000000000000000000060c4828401600460a4820152015260e40190fd5b7fffffffffffffffffffffffffffffffffffffffffffffffffffffffffffffffe0601f3d011673ffffffffffffffffffffffffffffffffffffffff604051927f90bfb8650000000000000000000000000000000000000000000000000000000084521660048301527fb1a9116f000000000000000000000000000000000000000000000000000000006024830152608060448301528060a00160648301523d60848301523d5f60a484013e7face944810000000000000000000000000000000000000000000000000000000060c4828401600460a4820152015260e40190fd5b602073ffffffffffffffffffffffffffffffffffffffff807f17307eab39ab6107e8899845ad3d59bd9653f200f220920489ca2b5937696c31931693845f52600583526140418160405f209073ffffffffffffffffffffffffffffffffffffffff165f5260205260405f2090565b951515957fffffffffffffffffffffffffffffffffffffffffffffffffffffffffffffff0081541660ff88161790556040519586521693a3565b5f7f0aedd6bde10e3aa2adec092b02a3e3e805795516cda41f27aa145b8f300af87a5d565b909291938284036140e1575f5b848110156140d9576001906140d38185016140c983888b612f6f565b913560f81c614131565b016140ad565b509350505050565b7faaad13f7000000000000000000000000000000000000000000000000000000005f5260045ffd5b7fed43c3a6000000000000000000000000000000000000000000000000000000005f5260045ffd5b909190600b81101561424c578061415c5750614150906102c292615412565b949390939291926155c3565b6004810361417b5750614172906102c292614b56565b939290926154bf565b6001810361419d5750614191906102c292615412565b94939093929192615454565b600281036141cc57506141b66141c6916102c293614fd7565b989097969195929594939461462b565b956151a9565b600581036141f857506141e56141f2916102c293614e79565b979096959194929461462b565b94614f3b565b916003831461423457505061133c91505b7f5cda29d7000000000000000000000000000000000000000000000000000000005f52600452602490565b6102c292509061424391614b56565b93929092614b92565b600d81036142685750614262906102c292614618565b90614b18565b60118103614290575061428161428a916102c29361482e565b9290919261462b565b91614afd565b600b81036142c457506142be6142ac6142b8926102c29461482e565b9382949392919361491d565b9261494b565b9161498c565b600e81036142f657506142ea6142e06142f0926102c29461482e565b928294929161462b565b92614846565b9161485a565b60128103614311575061430c906102c292614417565b6147c2565b6013810361432d5750614327906102c292614618565b9061469b565b60148103614354575061434661434e916102c293614618565b91909161462b565b9061467d565b601581036143af575061436d6143aa916102c293614417565b73ffffffffffffffffffffffffffffffffffffffff7f000000000000000000000000000000000000000000000000000000000000000016906144a3565b614595565b91601683146143c457505061133c9150614209565b6102c29250614412916143d691614417565b73ffffffffffffffffffffffffffffffffffffffff7f000000000000000000000000000000000000000000000000000000000000000016614423565b6144ff565b90602011611eea573590565b61442e90309061563f565b7f8000000000000000000000000000000000000000000000000000000000000000821461449e57811561448d575b81116144655790565b7ff4d678b8000000000000000000000000000000000000000000000000000000005f5260045ffd5b90506144985f6156d9565b9061445c565b905090565b906144ae305f61563f565b907f800000000000000000000000000000000000000000000000000000000000000083146144f95782156144e7575b5081116144655790565b6144f29192506156d9565b905f6144dd565b50905090565b806145075750565b73ffffffffffffffffffffffffffffffffffffffff7f00000000000000000000000000000000000000000000000000000000000000001690813b156102b3575f916024839260405194859384927f2e1a7d4d00000000000000000000000000000000000000000000000000000000845260048401525af180156117675761458b5750565b5f6102c291610778565b8061459d5750565b73ffffffffffffffffffffffffffffffffffffffff7f000000000000000000000000000000000000000000000000000000000000000016803b156102b3575f906004604051809481937fd0e30db00000000000000000000000000000000000000000000000000000000083525af180156117675761458b5750565b9190604011611eea576020823592013590565b73ffffffffffffffffffffffffffffffffffffffff8116600181036146715750507f0aedd6bde10e3aa2adec092b02a3e3e805795516cda41f27aa145b8f300af87a5c90565b60020361034657503090565b9061468782615758565b908161469257505050565b6102c2926157d8565b906146a5826158a5565b9081156147915781116147655773ffffffffffffffffffffffffffffffffffffffff7f00000000000000000000000000000000000000000000000000000000000000001691823b156102b3575f9283926040519485809481937f80f0b44c00000000000000000000000000000000000000000000000000000000835260206004840173ffffffffffffffffffffffffffffffffffffffff6040820194168152015203925af18015611767576147575750565b8061059c5f6102c293610778565b6102c2917f0aedd6bde10e3aa2adec092b02a3e3e805795516cda41f27aa145b8f300af87a5c9061485a565b505050565b7f80000000000000000000000000000000000000000000000000000000000000008114613429575f0390565b6147ed81307f000000000000000000000000000000000000000000000000000000000000000061591e565b907f0aedd6bde10e3aa2adec092b02a3e3e805795516cda41f27aa145b8f300af87a5c5f831215614824576142be6102c293614796565b6102c2929161485a565b90606011611eea578035916040602083013592013590565b90816148565761034691506158a5565b5090565b909180156147915773ffffffffffffffffffffffffffffffffffffffff7f000000000000000000000000000000000000000000000000000000000000000016803b156102b3575f928360649273ffffffffffffffffffffffffffffffffffffffff948560405198899788967f0b0d9c0900000000000000000000000000000000000000000000000000000000885216600487015216602485015260448401525af18015611767576149085750565b806149145f8093610778565b8003126102b357565b15614947577f0aedd6bde10e3aa2adec092b02a3e3e805795516cda41f27aa145b8f300af87a5c90565b3090565b907f8000000000000000000000000000000000000000000000000000000000000000820361497d576103469150615758565b816148565761034691506156d9565b9082156147915773ffffffffffffffffffffffffffffffffffffffff7f00000000000000000000000000000000000000000000000000000000000000001691823b156102b3576040517fa584119400000000000000000000000000000000000000000000000000000000815273ffffffffffffffffffffffffffffffffffffffff821660048201525f8160248183885af1801561176757614ae9575b5073ffffffffffffffffffffffffffffffffffffffff8116614a9f5750506020906004604051809481937f11da60b40000000000000000000000000000000000000000000000000000000083525af1801561176757614a845750565b614a9c9060203d602011613812576138068183610778565b50565b5f9360209392614aae92615989565b6004604051809481937f11da60b40000000000000000000000000000000000000000000000000000000083525af1801561176757614a845750565b8061059c5f614af793610778565b5f614a28565b91614b0f6102c293826142f0826158a5565b6142f0826158a5565b906102c291614b4d7f0aedd6bde10e3aa2adec092b02a3e3e805795516cda41f27aa145b8f300af87a5c91826142be826156d9565b6142be826156d9565b919082359260208101359260408201359263ffffffff60608401351683019063ffffffff82351693602080840193860101910110611eea579190565b939290927f0aedd6bde10e3aa2adec092b02a3e3e805795516cda41f27aa145b8f300af87a5c614bc28682613b5c565b15614d8c5750614bd185612e18565b9290938360081c60020b958460201c60020b96614c08614bf389838a8d6136e7565b6fffffffffffffffffffffffffffffffff1690565b96614c128a612dea565b955f614c268c5f52600960205260405f2090565b55614c308b615ac0565b5f9989614c62575b505050505050508160ff16614c4f575b5050505050565b614c5894615cf1565b5f80808080614c48565b60409495969a5090614cdf91614ca2614c82614c7d8d615bbb565b614796565b91614c98614c8e612bab565b97889060020b9052565b60020b6020870152565b858501528b606085015284519a8b9485947f5a6bcfda00000000000000000000000000000000000000000000000000000000865260048601614de4565b03815f73ffffffffffffffffffffffffffffffffffffffff7f0000000000000000000000000000000000000000000000000000000000000000165af18015611767575f965f91614d4c575b5090614d3b82614d40949398615bed565b615c2a565b5f808080808080614c38565b614d3b9750614d4093929150614d799060403d604011614d85575b614d718183610778565b810190614dce565b97909791929350614d2a565b503d614d67565b73ffffffffffffffffffffffffffffffffffffffff907f0ca968d8000000000000000000000000000000000000000000000000000000005f521660045260245ffd5b91908260409103126102b3576020825192015190565b60606103469593614e42836101409573ffffffffffffffffffffffffffffffffffffffff6080809282815116855282602082015116602086015262ffffff6040820151166040860152606081015160020b6060860152015116910152565b805160020b60a0840152602081015160020b60c0840152604081015160e08401520151610100820152816101208201520191612b62565b91908260a08101359260c08201359260e083013592610100810135926101208201359263ffffffff6101408401351683019063ffffffff82351693602080840193860101910110611eea579190565b91908260a09103126102b357604051614ee081610757565b60808082948035614ef081610295565b84526020810135614f0081610295565b60208501526040810135614f1381613086565b60408501526060810135614f2681613066565b6060850152013591614f3783610295565b0152565b90916102c29796959493926fffffffffffffffffffffffffffffffff614fd0614f9060a0614f693688614ec8565b207f0000000000000000000000000000000000000000000000000000000000000000615dae565b505050614f9c84615e67565b614fa586615e67565b614fb88835614fb381610295565b6158a5565b91614fca60208a0135614fb381610295565b936161b3565b16926151a9565b9091819260a08301359260c08101359260e08201359261010083013592610120810135926101408201359263ffffffff6101608401351683019063ffffffff82351693602080840193860101910110611eea579190565b600260806102c293615085813561504481610295565b859073ffffffffffffffffffffffffffffffffffffffff167fffffffffffffffffffffffff0000000000000000000000000000000000000000825416179055565b600184016150db602083013561509a81610295565b829073ffffffffffffffffffffffffffffffffffffffff167fffffffffffffffffffffffff0000000000000000000000000000000000000000825416179055565b60408201356150e981613086565b81547fffffffffffff000000000000ffffffffffffffffffffffffffffffffffffffff76ffffff0000000000000000000000000000000000000000606086013561513281613066565b60b81b79ffffff0000000000000000000000000000000000000000000000169360a01b1691161717905501359161516883610295565b019073ffffffffffffffffffffffffffffffffffffffff167fffffffffffffffffffffffff0000000000000000000000000000000000000000825416179055565b909194969297939597600854926001840160085573ffffffffffffffffffffffffffffffffffffffff8a16996151e08b151561392d565b845f52600260205273ffffffffffffffffffffffffffffffffffffffff60405f2054166153b4576152d061536b9861536593876102c29e61525f8661524661535d9873ffffffffffffffffffffffffffffffffffffffff165f52600360205260405f2090565b80546001019055610e71845f52600260205260405f2090565b5f7fddf252ad1be2c89b69c2b068fc378daa952ba7f163c4a11628f55a4df523b3ef8180a461528e3688614ec8565b63ffffff007fffffffffffffffffffffffffffffffffffffffffffffffffff0000000000000060a066ffffff000000009320169260081b169260201b16171790565b92836152e4875f52600960205260405f2090565b55837fffffffffffffffffffffffffffffffffffffffffffffffffff00000000000000168561534d6001615342847fffffffffffffffffffffffffffffffffffffffffffffffffff00000000000000165f52600a60205260405f2090565b015460b81c60020b90565b60020b15615371575b5050615bbb565b923690614ec8565b90616294565b50616383565b6153a86153ad927fffffffffffffffffffffffffffffffffffffffffffffffffff00000000000000165f52600a60205260405f2090565b61502e565b5f85615356565b60646040517f08c379a000000000000000000000000000000000000000000000000000000000815260206004820152600e60248201527f414c52454144595f4d494e5445440000000000000000000000000000000000006044820152fd5b909181359260208301359260408101359260608201359263ffffffff60808401351683019063ffffffff82351693602080840193860101910110611eea579190565b90959495939192937f0aedd6bde10e3aa2adec092b02a3e3e805795516cda41f27aa145b8f300af87a5c6154888382613b5c565b15614d8c575095614d3b9282614c7d6102c298996154b36154ab6154b997612e18565b939092615bbb565b91616294565b90615bed565b949394929091927f0aedd6bde10e3aa2adec092b02a3e3e805795516cda41f27aa145b8f300af87a5c6154f28282613b5c565b15614d8c57506102c294956155be928261550e6154b994612e18565b906154b36fffffffffffffffffffffffffffffffff6155b861555360a085207f0000000000000000000000000000000000000000000000000000000000000000615dae565b5050506155658660081c60020b615e67565b6155748760201c60020b615e67565b61559473ffffffffffffffffffffffffffffffffffffffff8851166158a5565b91614fca73ffffffffffffffffffffffffffffffffffffffff60208a0151166158a5565b16615bbb565b616383565b90959495939192937f0aedd6bde10e3aa2adec092b02a3e3e805795516cda41f27aa145b8f300af87a5c6155f78382613b5c565b15614d8c5750956155be92826154b36102c298996156176154b996612e18565b929091615bbb565b604051602081019182526006604082015260408152612d05606082610778565b73ffffffffffffffffffffffffffffffffffffffff811661565f57503190565b9073ffffffffffffffffffffffffffffffffffffffff60246020928260405195869485937f70a08231000000000000000000000000000000000000000000000000000000008552166004840152165afa908115611767575f916156c0575090565b610346915060203d602011613812576138068183610778565b61570481307f000000000000000000000000000000000000000000000000000000000000000061591e565b905f8213615716575061034690614796565b73ffffffffffffffffffffffffffffffffffffffff907f3351b260000000000000000000000000000000000000000000000000000000005f521660045260245ffd5b73ffffffffffffffffffffffffffffffffffffffff811661577857504790565b6040517f70a08231000000000000000000000000000000000000000000000000000000008152306004820152906020908290602490829073ffffffffffffffffffffffffffffffffffffffff165afa908115611767575f916156c0575090565b90919073ffffffffffffffffffffffffffffffffffffffff811661581257505f80808061580694865af11590565b61580d5750565b613e33565b919073ffffffffffffffffffffffffffffffffffffffff604051927fa9059cbb00000000000000000000000000000000000000000000000000000000845216600483015260248201525f604060208260448582885af13d15601f3d1160018551141617169282815282602082015201521561588a5750565b73ffffffffffffffffffffffffffffffffffffffff16613d53565b6158d081307f000000000000000000000000000000000000000000000000000000000000000061591e565b905f82126158dc575090565b73ffffffffffffffffffffffffffffffffffffffff907f4c085bf1000000000000000000000000000000000000000000000000000000005f521660045260245ffd5b73ffffffffffffffffffffffffffffffffffffffff809381602094165f52168252602460405f2060405194859384927ff135baaa0000000000000000000000000000000000000000000000000000000084526004840152165afa908115611767575f916156c0575090565b90919073ffffffffffffffffffffffffffffffffffffffff831630036159eb576102c2925073ffffffffffffffffffffffffffffffffffffffff7f000000000000000000000000000000000000000000000000000000000000000016906157d8565b9073ffffffffffffffffffffffffffffffffffffffff7f000000000000000000000000000000000000000000000000000000000000000016803b156102b3576040517f36c7851600000000000000000000000000000000000000000000000000000000815273ffffffffffffffffffffffffffffffffffffffff94851660048201527f00000000000000000000000000000000000000000000000000000000000000008516602482015291841660448301529190921660648301525f908290608490829084905af18015611767576147575750565b805f5260026020525f73ffffffffffffffffffffffffffffffffffffffff604082205416615aef811515612d85565b8082526003602052604082207fffffffffffffffffffffffffffffffffffffffffffffffffffffffffffffffff8154019055615b33835f52600260205260405f2090565b80548360031b9073ffffffffffffffffffffffffffffffffffffffff808616831b921b1916179055615b6d835f52600460205260405f2090565b80548360031b9073ffffffffffffffffffffffffffffffffffffffff808616831b921b19161790557fddf252ad1be2c89b69c2b068fc378daa952ba7f163c4a11628f55a4df523b3ef8280a4565b905f8212615bc557565b7f93dafdf1000000000000000000000000000000000000000000000000000000005f5260045ffd5b615c1090615c028360801d8260801d036164d1565b92600f0b90600f0b036164d1565b6fffffffffffffffffffffffffffffffff169060801b1790565b929190926fffffffffffffffffffffffffffffffff8160801d9481615c4e876164df565b91169182911610615cd657506fffffffffffffffffffffffffffffffff929350600f0b9082615c7c836164df565b91169283911610615c8b575050565b90615ca66fffffffffffffffffffffffffffffffff926164df565b907f12816f22000000000000000000000000000000000000000000000000000000005f526004521660245260445ffd5b6fffffffffffffffffffffffffffffffff90615ca6866164df565b5f81815260076020526040902080547fffffffffffffffffffffffff0000000000000000000000000000000000000000811690915573ffffffffffffffffffffffffffffffffffffffff90811695615da2956112c2959394919390929091604051957fb1a9116f00000000000000000000000000000000000000000000000000000000602088015260248701521660448501526064840152608483015260a482015260a481526112bc60c482610778565b615da95750565b613ef3565b6020906024615dd273ffffffffffffffffffffffffffffffffffffffff959461561f565b60405195869384927f1e2eaeaf0000000000000000000000000000000000000000000000000000000084526004840152165afa918215611767575f92615e46575b5073ffffffffffffffffffffffffffffffffffffffff8216918060a01c60020b9162ffffff808360b81c169260d01c1690565b615e6091925060203d602011613812576138068183610778565b905f615e13565b60020b908160ff1d82810118620d89e881116161ad5763ffffffff9192600182167001fffcb933bd6fad37aa2d162d1a59400102700100000000000000000000000000000000189160028116616191575b60048116616175575b60088116616159575b6010811661613d575b60208116616121575b60408116616105575b608081166160e9575b61010081166160cd575b61020081166160b1575b6104008116616095575b6108008116616079575b611000811661605d575b6120008116616041575b6140008116616025575b6180008116616009575b620100008116615fed575b620200008116615fd2575b620400008116615fb7575b6208000016615f9e575b5f12615f77575b0160201c90565b7fffffffffffffffffffffffffffffffffffffffffffffffffffffffffffffffff04615f70565b6b048a170391f7dc42444e8fa290910260801c90615f69565b6d2216e584f5fa1ea926041bedfe9890920260801c91615f5f565b916e5d6af8dedb81196699c329225ee6040260801c91615f54565b916f09aa508b5b7a84e1c677de54f3e99bc90260801c91615f49565b916f31be135f97d08fd981231505542fcfa60260801c91615f3e565b916f70d869a156d2a1b890bb3df62baf32f70260801c91615f34565b916fa9f746462d870fdf8a65dc1f90e061e50260801c91615f2a565b916fd097f3bdfd2022b8845ad8f792aa58250260801c91615f20565b916fe7159475a2c29b7443b29c7fa6e889d90260801c91615f16565b916ff3392b0822b70005940c7a398e4b70f30260801c91615f0c565b916ff987a7253ac413176f2b074cf7815e540260801c91615f02565b916ffcbe86c7900a88aedcffc83b479aa3a40260801c91615ef8565b916ffe5dee046a99a2a811c461f1969c30530260801c91615eee565b916fff2ea16466c96a3843ec78b326b528610260801c91615ee5565b916fff973b41fa98c081472e6896dfb254c00260801c91615edc565b916fffcb9843d60f6159c9db58835c9266440260801c91615ed3565b916fffe5caca7e10e4e61c3624eaa0941cd00260801c91615eca565b916ffff2e50f5f656932ef12357cf3c7fdcc0260801c91615ec1565b916ffff97272373d413259a46990580e213a0260801c91615eb8565b826164fe565b9373ffffffffffffffffffffffffffffffffffffffff831673ffffffffffffffffffffffffffffffffffffffff83161161628c575b73ffffffffffffffffffffffffffffffffffffffff8581169590831686116162165750506103469350616569565b929093919473ffffffffffffffffffffffffffffffffffffffff8216115f146162805782916162499161624f9594616569565b9361652c565b6fffffffffffffffffffffffffffffffff81166fffffffffffffffffffffffffffffffff8316105f1461449e575090565b9150506103469261652c565b9091906161e8565b9593946040916162fa6162a5612bab565b60088a901c60020b81529260208a811c60020b908501528585850152866060850152845198899485947f5a6bcfda00000000000000000000000000000000000000000000000000000000865260048601614de4565b03815f73ffffffffffffffffffffffffffffffffffffffff7f0000000000000000000000000000000000000000000000000000000000000000165af1908115611767575f945f9261635f575b5081949560ff1661635657505050565b6102c2926165d9565b90945061637b915060403d604011614d8557614d718183610778565b90935f616346565b908160801d600f0b91600f0b915f81128061649c575b61643a5750505f811280616403575b6163b0575050565b906163c0614bf361133c93614796565b7f31e30ad0000000000000000000000000000000000000000000000000000000005f526fffffffffffffffffffffffffffffffff91821660045216602452604490565b506fffffffffffffffffffffffffffffffff8061641f83614796565b16166fffffffffffffffffffffffffffffffff8316106163a8565b906fffffffffffffffffffffffffffffffff61645861133c93614796565b7f31e30ad0000000000000000000000000000000000000000000000000000000005f526fffffffffffffffffffffffffffffffff9283166004521616602452604490565b506fffffffffffffffffffffffffffffffff6164b782614796565b166fffffffffffffffffffffffffffffffff831610616399565b9081600f0b918203615bc557565b5f81600f0b12615bc5576fffffffffffffffffffffffffffffffff1690565b7f8b86327a000000000000000000000000000000000000000000000000000000005f5260020b60045260245ffd5b9173ffffffffffffffffffffffffffffffffffffffff6103469361655e9382811683831611616563575b031690616729565b616901565b90616556565b9161655e916103469373ffffffffffffffffffffffffffffffffffffffff821673ffffffffffffffffffffffffffffffffffffffff8216116165d3575b73ffffffffffffffffffffffffffffffffffffffff906165ca8284168383166167e5565b9203169161685f565b906165a6565b6166509192815f52600760205273ffffffffffffffffffffffffffffffffffffffff60405f20541693604051927fd8865c270000000000000000000000000000000000000000000000000000000060208501526024840152604483015260648201526064815261664a608482610778565b82613c32565b156166585750565b7fffffffffffffffffffffffffffffffffffffffffffffffffffffffffffffffe0601f3d0116604051917f90bfb86500000000000000000000000000000000000000000000000000000000835260048301527fd8865c27000000000000000000000000000000000000000000000000000000006024830152608060448301528060a00160648301523d60848301523d5f60a484013e7fe94f10e20000000000000000000000000000000000000000000000000000000060c4828401600460a4820152015260e40190fd5b156102b357565b908160601b907fffffffffffffffffffffffffffffffffffffffffffffffffffffffffffffffff6c010000000000000000000000008409928280851094039380850394616777868511616722565b146167de576c0100000000000000000000000082910981805f03168092046002816003021880820260020302808202600203028082026002030280820260020302808202600203028091026002030293600183805f03040190848311900302920304170290565b5091500490565b90808202917fffffffffffffffffffffffffffffffffffffffffffffffffffffffffffffffff828209918380841093039280840393846c0100000000000000000000000011156102b35714616856576c01000000000000000000000000910990828211900360a01b910360601c1790565b50505060601c90565b91818302917fffffffffffffffffffffffffffffffffffffffffffffffffffffffffffffffff81850993838086109503948086039561689f878611616722565b146168f9579082910981805f03168092046002816003021880820260020302808202600203028082026002030280820260020302808202600203028091026002030293600183805f03040190848311900302920304170290565b505091500490565b906fffffffffffffffffffffffffffffffff8216809203615bc55756fea2646970667358221220335be5a164cd3ade0936985c0f749cbf3fd113b4e8f0be729f50f9f94e0aa05364736f6c634300081a0033","linkReferences":{}},"methodIdentifiers":{"DOMAIN_SEPARATOR()":"3644e515","WETH9()":"4aa4a4fc","approve(address,uint256)":"095ea7b3","balanceOf(address)":"70a08231","getApproved(uint256)":"081812fc","getPoolAndPositionInfo(uint256)":"7ba03aad","getPositionLiquidity(uint256)":"1efeed33","initializePool((address,address,uint24,int24,address),uint160)":"f7020405","isApprovedForAll(address,address)":"e985e9c5","modifyLiquidities(bytes,uint256)":"dd46508f","modifyLiquiditiesWithoutUnlock(bytes,bytes[])":"4afe393c","msgSender()":"d737d0c7","multicall(bytes[])":"ac9650d8","name()":"06fdde03","nextTokenId()":"75794a3c","nonces(address,uint256)":"502e1a16","ownerOf(uint256)":"6352211e","permit(address,((address,uint160,uint48,uint48),address,uint256),bytes)":"2b67b570","permit(address,uint256,uint256,uint256,bytes)":"0f5730f1","permit2()":"12261ee7","permitBatch(address,((address,uint160,uint48,uint48)[],address,uint256),bytes)":"002a3e3a","permitForAll(address,address,bool,uint256,uint256,bytes)":"3aea60f0","poolKeys(bytes25)":"86b6be7d","poolManager()":"dc4c90d3","positionInfo(uint256)":"89097a6a","revokeNonce(uint256)":"05c1ee20","safeTransferFrom(address,address,uint256)":"42842e0e","safeTransferFrom(address,address,uint256,bytes)":"b88d4fde","setApprovalForAll(address,bool)":"a22cb465","subscribe(uint256,address,bytes)":"2b9261de","subscriber(uint256)":"16a24131","supportsInterface(bytes4)":"01ffc9a7","symbol()":"95d89b41","tokenDescriptor()":"5a9d7a68","tokenURI(uint256)":"c87b56dd","transferFrom(address,address,uint256)":"23b872dd","unlockCallback(bytes)":"91dd7346","unsubscribe(uint256)":"ad0b27fb","unsubscribeGasLimit()":"4767565f"},"id":63}