{"abi":[{"type":"constructor","inputs":[{"name":"_poolManager","type":"address","internalType":"contract IPoolManager"},{"name":"_positionManager","type":"address","internalType":"address"},{"name":"_router","type":"address","internalType":"address"},{"name":"initialOwner","type":"address","internalType":"address"}],"stateMutability":"nonpayable"},{"type":"receive","stateMutability":"payable"},{"type":"function","name":"MAX_SLIPPAGE_BPS","inputs":[],"outputs":[{"name":"","type":"uint256","internalType":"uint256"}],"stateMutability":"view"},{"type":"function","name":"addPoolToMonitoring","inputs":[{"name":"key","type":"tuple","internalType":"struct PoolKey","components":[{"name":"currency0","type":"address","internalType":"Currency"},{"name":"currency1","type":"address","internalType":"Currency"},{"name":"fee","type":"uint24","internalType":"uint24"},{"name":"tickSpacing","type":"int24","internalType":"int24"},{"name":"hooks","type":"address","internalType":"contract IHooks"}]}],"outputs":[],"stateMutability":"nonpayable"},{"type":"function","name":"defaultMaxSlippageBPS","inputs":[],"outputs":[{"name":"","type":"uint256","internalType":"uint256"}],"stateMutability":"view"},{"type":"function","name":"emergencyWithdraw","inputs":[{"name":"currency","type":"address","internalType":"Currency"},{"name":"amount","type":"uint256","internalType":"uint256"},{"name":"to","type":"address","internalType":"address"}],"outputs":[],"stateMutability":"nonpayable"},{"type":"function","name":"executeSwapWithSlippage","inputs":[{"name":"key","type":"tuple","internalType":"struct PoolKey","components":[{"name":"currency0","type":"address","internalType":"Currency"},{"name":"currency1","type":"address","internalType":"Currency"},{"name":"fee","type":"uint24","internalType":"uint24"},{"name":"tickSpacing","type":"int24","internalType":"int24"},{"name":"hooks","type":"address","internalType":"contract IHooks"}]},{"name":"params","type":"tuple","internalType":"struct SwapParams","components":[{"name":"zeroForOne","type":"bool","internalType":"bool"},{"name":"amountSpecified","type":"int256","internalType":"int256"},{"name":"sqrtPriceLimitX96","type":"uint160","internalType":"uint160"}]},{"name":"minAmountOut","type":"uint256","internalType":"uint256"},{"name":"recipient","type":"address","internalType":"address"}],"outputs":[{"name":"amountOut","type":"uint256","internalType":"uint256"}],"stateMutability":"payable"},{"type":"function","name":"getLiquidityDepth","inputs":[{"name":"key","type":"tuple","internalType":"struct PoolKey","components":[{"name":"currency0","type":"address","internalType":"Currency"},{"name":"currency1","type":"address","internalType":"Currency"},{"name":"fee","type":"uint24","internalType":"uint24"},{"name":"tickSpacing","type":"int24","internalType":"int24"},{"name":"hooks","type":"address","internalType":"contract IHooks"}]}],"outputs":[{"name":"depth","type":"tuple","internalType":"struct UniswapV4Integration.LiquidityDepth","components":[{"name":"totalLiquidity","type":"uint256","internalType":"uint256"},{"name":"activeRangeLiquidity","type":"uint256","internalType":"uint256"},{"name":"tickSpacing","type":"uint256","internalType":"uint256"},{"name":"nearestActiveTick","type":"int24","internalType":"int24"},{"name":"currentTick","type":"int24","internalType":"int24"}]}],"stateMutability":"view"},{"type":"function","name":"getOptimalFeeTier","inputs":[{"name":"currency0","type":"address","internalType":"Currency"},{"name":"currency1","type":"address","internalType":"Currency"},{"name":"","type":"uint256","internalType":"uint256"}],"outputs":[{"name":"optimalFee","type":"uint24","internalType":"uint24"},{"name":"bestAmountOut","type":"uint256","internalType":"uint256"}],"stateMutability":"view"},{"type":"function","name":"getPoolLiquidityInfo","inputs":[{"name":"key","type":"tuple","internalType":"struct PoolKey","components":[{"name":"currency0","type":"address","internalType":"Currency"},{"name":"currency1","type":"address","internalType":"Currency"},{"name":"fee","type":"uint24","internalType":"uint24"},{"name":"tickSpacing","type":"int24","internalType":"int24"},{"name":"hooks","type":"address","internalType":"contract IHooks"}]}],"outputs":[{"name":"info","type":"tuple","internalType":"struct UniswapV4Integration.LiquidityInfo","components":[{"name":"liquidity","type":"uint128","internalType":"uint128"},{"name":"feeGrowthGlobal0X128","type":"uint256","internalType":"uint256"},{"name":"feeGrowthGlobal1X128","type":"uint256","internalType":"uint256"},{"name":"protocolFeesAccrued0","type":"uint128","internalType":"uint128"},{"name":"protocolFeesAccrued1","type":"uint128","internalType":"uint128"}]}],"stateMutability":"view"},{"type":"function","name":"getPoolState","inputs":[{"name":"key","type":"tuple","internalType":"struct PoolKey","components":[{"name":"currency0","type":"address","internalType":"Currency"},{"name":"currency1","type":"address","internalType":"Currency"},{"name":"fee","type":"uint24","internalType":"uint24"},{"name":"tickSpacing","type":"int24","internalType":"int24"},{"name":"hooks","type":"address","internalType":"contract IHooks"}]}],"outputs":[{"name":"state","type":"tuple","internalType":"struct UniswapV4Integration.PoolState","components":[{"name":"sqrtPriceX96","type":"uint160","internalType":"uint160"},{"name":"tick","type":"int24","internalType":"int24"},{"name":"protocolFee","type":"uint24","internalType":"uint24"},{"name":"lpFee","type":"uint24","internalType":"uint24"}]}],"stateMutability":"view"},{"type":"function","name":"getSwapQuote","inputs":[{"name":"key","type":"tuple","internalType":"struct PoolKey","components":[{"name":"currency0","type":"address","internalType":"Currency"},{"name":"currency1","type":"address","internalType":"Currency"},{"name":"fee","type":"uint24","internalType":"uint24"},{"name":"tickSpacing","type":"int24","internalType":"int24"},{"name":"hooks","type":"address","internalType":"contract IHooks"}]},{"name":"params","type":"tuple","internalType":"struct SwapParams","components":[{"name":"zeroForOne","type":"bool","internalType":"bool"},{"name":"amountSpecified","type":"int256","internalType":"int256"},{"name":"sqrtPriceLimitX96","type":"uint160","internalType":"uint160"}]}],"outputs":[{"name":"quote","type":"tuple","internalType":"struct UniswapV4Integration.SwapQuote","components":[{"name":"amountOut","type":"uint256","internalType":"uint256"},{"name":"priceImpact","type":"uint256","internalType":"uint256"},{"name":"liquidityUsed","type":"uint256","internalType":"uint256"},{"name":"feeAmount","type":"uint256","internalType":"uint256"},{"name":"isValid","type":"bool","internalType":"bool"},{"name":"poolState","type":"tuple","internalType":"struct UniswapV4Integration.PoolState","components":[{"name":"sqrtPriceX96","type":"uint160","internalType":"uint160"},{"name":"tick","type":"int24","internalType":"int24"},{"name":"protocolFee","type":"uint24","internalType":"uint24"},{"name":"lpFee","type":"uint24","internalType":"uint24"}]}]}],"stateMutability":"view"},{"type":"function","name":"hasSufficientLiquidity","inputs":[{"name":"key","type":"tuple","internalType":"struct PoolKey","components":[{"name":"currency0","type":"address","internalType":"Currency"},{"name":"currency1","type":"address","internalType":"Currency"},{"name":"fee","type":"uint24","internalType":"uint24"},{"name":"tickSpacing","type":"int24","internalType":"int24"},{"name":"hooks","type":"address","internalType":"contract IHooks"}]},{"name":"amountIn","type":"uint256","internalType":"uint256"},{"name":"minLiquidityThreshold","type":"uint256","internalType":"uint256"}],"outputs":[{"name":"","type":"bool","internalType":"bool"}],"stateMutability":"view"},{"type":"function","name":"monitoredPools","inputs":[{"name":"","type":"bytes32","internalType":"PoolId"}],"outputs":[{"name":"","type":"bool","internalType":"bool"}],"stateMutability":"view"},{"type":"function","name":"owner","inputs":[],"outputs":[{"name":"","type":"address","internalType":"address"}],"stateMutability":"view"},{"type":"function","name":"poolLiquidityInfo","inputs":[{"name":"","type":"bytes32","internalType":"PoolId"}],"outputs":[{"name":"liquidity","type":"uint128","internalType":"uint128"},{"name":"feeGrowthGlobal0X128","type":"uint256","internalType":"uint256"},{"name":"feeGrowthGlobal1X128","type":"uint256","internalType":"uint256"},{"name":"protocolFeesAccrued0","type":"uint128","internalType":"uint128"},{"name":"protocolFeesAccrued1","type":"uint128","internalType":"uint128"}],"stateMutability":"view"},{"type":"function","name":"poolManager","inputs":[],"outputs":[{"name":"","type":"address","internalType":"contract IPoolManager"}],"stateMutability":"view"},{"type":"function","name":"positionManager","inputs":[],"outputs":[{"name":"","type":"address","internalType":"contract PositionManager"}],"stateMutability":"view"},{"type":"function","name":"removePoolFromMonitoring","inputs":[{"name":"key","type":"tuple","internalType":"struct PoolKey","components":[{"name":"currency0","type":"address","internalType":"Currency"},{"name":"currency1","type":"address","internalType":"Currency"},{"name":"fee","type":"uint24","internalType":"uint24"},{"name":"tickSpacing","type":"int24","internalType":"int24"},{"name":"hooks","type":"address","internalType":"contract IHooks"}]}],"outputs":[],"stateMutability":"nonpayable"},{"type":"function","name":"renounceOwnership","inputs":[],"outputs":[],"stateMutability":"nonpayable"},{"type":"function","name":"router","inputs":[],"outputs":[{"name":"","type":"address","internalType":"contract IV4Router"}],"stateMutability":"view"},{"type":"function","name":"simulateSwap","inputs":[{"name":"key","type":"tuple","internalType":"struct PoolKey","components":[{"name":"currency0","type":"address","internalType":"Currency"},{"name":"currency1","type":"address","internalType":"Currency"},{"name":"fee","type":"uint24","internalType":"uint24"},{"name":"tickSpacing","type":"int24","internalType":"int24"},{"name":"hooks","type":"address","internalType":"contract IHooks"}]},{"name":"params","type":"tuple","internalType":"struct SwapParams","components":[{"name":"zeroForOne","type":"bool","internalType":"bool"},{"name":"amountSpecified","type":"int256","internalType":"int256"},{"name":"sqrtPriceLimitX96","type":"uint160","internalType":"uint160"}]}],"outputs":[{"name":"amountOut","type":"uint256","internalType":"uint256"},{"name":"feeAmount","type":"uint256","internalType":"uint256"},{"name":"resultingState","type":"tuple","internalType":"struct UniswapV4Integration.PoolState","components":[{"name":"sqrtPriceX96","type":"uint160","internalType":"uint160"},{"name":"tick","type":"int24","internalType":"int24"},{"name":"protocolFee","type":"uint24","internalType":"uint24"},{"name":"lpFee","type":"uint24","internalType":"uint24"}]}],"stateMutability":"view"},{"type":"function","name":"transferOwnership","inputs":[{"name":"newOwner","type":"address","internalType":"address"}],"outputs":[],"stateMutability":"nonpayable"},{"type":"function","name":"updateSlippageSettings","inputs":[{"name":"newMaxSlippageBPS","type":"uint256","internalType":"uint256"}],"outputs":[],"stateMutability":"nonpayable"},{"type":"event","name":"OwnershipTransferred","inputs":[{"name":"previousOwner","type":"address","indexed":true,"internalType":"address"},{"name":"newOwner","type":"address","indexed":true,"internalType":"address"}],"anonymous":false},{"type":"event","name":"PoolStateUpdated","inputs":[{"name":"poolId","type":"bytes32","indexed":true,"internalType":"PoolId"},{"name":"sqrtPriceX96","type":"uint160","indexed":false,"internalType":"uint160"},{"name":"tick","type":"int24","indexed":false,"internalType":"int24"}],"anonymous":false},{"type":"event","name":"SwapExecuted","inputs":[{"name":"poolId","type":"bytes32","indexed":true,"internalType":"PoolId"},{"name":"user","type":"address","indexed":true,"internalType":"address"},{"name":"amountIn","type":"uint256","indexed":false,"internalType":"uint256"},{"name":"amountOut","type":"uint256","indexed":false,"internalType":"uint256"}],"anonymous":false},{"type":"error","name":"ExceedsMaxSlippage","inputs":[]},{"type":"error","name":"InvalidSlippageBPS","inputs":[]},{"type":"error","name":"InvalidSwapParams","inputs":[]},{"type":"error","name":"NotPoolManager","inputs":[]},{"type":"error","name":"OwnableInvalidOwner","inputs":[{"name":"owner","type":"address","internalType":"address"}]},{"type":"error","name":"OwnableUnauthorizedAccount","inputs":[{"name":"account","type":"address","internalType":"address"}]},{"type":"error","name":"SafeERC20FailedOperation","inputs":[{"name":"token","type":"address","internalType":"address"}]},{"type":"error","name":"TransferFailed","inputs":[]}],"bytecode":{"object":"0x60e03461014e57601f61227838819003918201601f19168301916001600160401b038311848410176101525780849260809460405283398101031261014e578051906001600160a01b038216820361014e5761005d60208201610166565b91610076606061006f60408501610166565b9301610166565b6080919091526001600160a01b031691821561013b575f80546001600160a01b031981168517825560405194916001600160a01b03909116907f8be0079c531659141344cd1fd0a4f28419497f9722a3daafe3b4186f6b6457e09080a360326003556001600160a01b0390811660a0521660c0526120fd908161017b82396080518181816101d60152818161078f0152818161081101528181610b8401528181611adf01528181611c930152611e5e015260a05181610cc9015260c051816101640152f35b631e4fbdf760e01b5f525f60045260245ffd5b5f80fd5b634e487b7160e01b5f52604160045260245ffd5b51906001600160a01b038216820361014e5756fe608080604052600436101561001c575b50361561001a575f80fd5b005b5f3560e01c9081630bc7940714611668575080630efd590b14611328578063101d765f146110ff5780632819e32c1461108f5780632d9d241f1461103b5780633e298e4314610fee578063551512de14610f235780635a920e7114610dc25780635c70d1c414610d87578063715018a614610ced578063791b98bc14610c7f5780638da5cb5b14610c2f578063a399face14610b34578063b30665151461093b578063c2648b32146108a3578063da8ff76b146107b3578063dc4c90d314610745578063e229cd761461070b578063f2fde38b1461061f578063f5289a0e1461025f578063f85e40631461018c5763f887ea401461011a575f61000f565b34610188575f7ffffffffffffffffffffffffffffffffffffffffffffffffffffffffffffffffc36011261018857602060405173ffffffffffffffffffffffffffffffffffffffff7f0000000000000000000000000000000000000000000000000000000000000000168152f35b5f80fd5b346101885760a07ffffffffffffffffffffffffffffffffffffffffffffffffffffffffffffffffc3601126101885760a06101fa816101ca366117e0565b6101d2611c12565b50207f0000000000000000000000000000000000000000000000000000000000000000611d7b565b6fffffffffffffffffffffffffffffffff806040519261021984611760565b16918281528160208201915f8352604081015f8152608060608301925f845201935f85526040519687525160208701525160408601525116606084015251166080820152f35b346101885760a07ffffffffffffffffffffffffffffffffffffffffffffffffffffffffffffffffc36011261018857610297366117e0565b61029f611d2f565b60a0812090815f52600260205260405f2060017fffffffffffffffffffffffffffffffffffffffffffffffffffffffffffffff008254161790556040517ff85e4063000000000000000000000000000000000000000000000000000000008152610356600482018373ffffffffffffffffffffffffffffffffffffffff6080809282815116855282602082015116602086015262ffffff6040820151166040860152606081015160020b6060860152015116910152565b60a08160a481305afa908115610596575f916105a1575b50825f5260016020526080600360405f206fffffffffffffffffffffffffffffffff80855116167fffffffffffffffffffffffffffffffff00000000000000000000000000000000825416178155602084015160018201556040840151600282015501916fffffffffffffffffffffffffffffffff80606083015116167fffffffffffffffffffffffffffffffff0000000000000000000000000000000084541617835501516fffffffffffffffffffffffffffffffff7fffffffffffffffffffffffffffffffff0000000000000000000000000000000083549260801b1691161790556104cf604051917fa399face000000000000000000000000000000000000000000000000000000008352600483019073ffffffffffffffffffffffffffffffffffffffff6080809282815116855282602082015116602086015262ffffff6040820151166040860152606081015160020b6060860152015116910152565b60808160a481305afa908115610596575f91610538575b50604081602073ffffffffffffffffffffffffffffffffffffffff7f4d0da4eef5eb76b66cccd3b19493812e320776cbca11ed9f5f7e90375270a0df94511691015160020b82519182526020820152a2005b905060803d60801161058f575b61054f818361177c565b8101608082820312610188576105886040917f4d0da4eef5eb76b66cccd3b19493812e320776cbca11ed9f5f7e90375270a0df93611942565b91506104e6565b503d610545565b6040513d5f823e3d90fd5b905060a0813d60a011610617575b816105bc60a0938361177c565b810103126101885761060c6080604051926105d684611760565b6105df81611c3c565b8452602081015160208501526040810151604085015261060160608201611c3c565b606085015201611c3c565b60808201528361036d565b3d91506105af565b346101885760207ffffffffffffffffffffffffffffffffffffffffffffffffffffffffffffffffc3601126101885773ffffffffffffffffffffffffffffffffffffffff61066b6117bd565b610673611d2f565b1680156106df5773ffffffffffffffffffffffffffffffffffffffff5f54827fffffffffffffffffffffffff00000000000000000000000000000000000000008216175f55167f8be0079c531659141344cd1fd0a4f28419497f9722a3daafe3b4186f6b6457e05f80a3005b7f1e4fbdf7000000000000000000000000000000000000000000000000000000005f525f60045260245ffd5b34610188575f7ffffffffffffffffffffffffffffffffffffffffffffffffffffffffffffffffc3601126101885760206040516103e88152f35b34610188575f7ffffffffffffffffffffffffffffffffffffffffffffffffffffffffffffffffc36011261018857602060405173ffffffffffffffffffffffffffffffffffffffff7f0000000000000000000000000000000000000000000000000000000000000000168152f35b346101885760a07ffffffffffffffffffffffffffffffffffffffffffffffffffffffffffffffffc3601126101885760a06107ed366117e0565b6107f5611c12565b5081812060606fffffffffffffffffffffffffffffffff6108457f00000000000000000000000000000000000000000000000000000000000000009361083b8186611f4e565b5050959050611d7b565b1692015160020b906040519161085a83611760565b83835260208301848152604084019182526080606085019360020b94858552019384526040519485525160208501525160408401525160020b60608301525160020b6080820152f35b346101885760a07ffffffffffffffffffffffffffffffffffffffffffffffffffffffffffffffffc3601126101885760a06108dd366117e0565b6108e5611d2f565b20805f52600260205260405f207fffffffffffffffffffffffffffffffffffffffffffffffffffffffffffffff0081541690555f5260016020525f60036040822082815582600182015582600282015501555f80f35b34610188576101007ffffffffffffffffffffffffffffffffffffffffffffffffffffffffffffffffc36011261018857610974366117e0565b61097d366118ac565b90610986611aa0565b506040517fa399face000000000000000000000000000000000000000000000000000000008152610a04600482018373ffffffffffffffffffffffffffffffffffffffff6080809282815116855282602082015116602086015262ffffff6040820151166040860152606081015160020b6060860152015116910152565b60808160a481305afa908115610596575f91610aef575b50610ad490602060c0940180515f81135f14610adf575051925b612710610a6d610a67620f4240610a5562ffffff60408701511689611bbb565b0496610a618882611c05565b94611e44565b83611bbb565b0480821115610ad657610a7f91611c05565b925b6040519384526020840152604083019062ffffff6060809273ffffffffffffffffffffffffffffffffffffffff8151168552602081015160020b6020860152826040820151166040860152015116910152565bf35b50505f92610a81565b610ae99150611a47565b92610a35565b905060803d608011610b2d575b610b06818361177c565b810192608082850312610188576020610b2460c095610ad494611942565b92505092610a1b565b503d610afc565b346101885760a07ffffffffffffffffffffffffffffffffffffffffffffffffffffffffffffffffc36011261018857608062ffffff80610ba860a0610b78366117e0565b610b80611aa0565b50207f0000000000000000000000000000000000000000000000000000000000000000611f4e565b92949173ffffffffffffffffffffffffffffffffffffffff60405196610bcd88611744565b16865260020b6020860152166040840152166060820152610ad4604051809262ffffff6060809273ffffffffffffffffffffffffffffffffffffffff8151168552602081015160020b6020860152826040820151166040860152015116910152565b34610188575f7ffffffffffffffffffffffffffffffffffffffffffffffffffffffffffffffffc36011261018857602073ffffffffffffffffffffffffffffffffffffffff5f5416604051908152f35b34610188575f7ffffffffffffffffffffffffffffffffffffffffffffffffffffffffffffffffc36011261018857602060405173ffffffffffffffffffffffffffffffffffffffff7f0000000000000000000000000000000000000000000000000000000000000000168152f35b34610188575f7ffffffffffffffffffffffffffffffffffffffffffffffffffffffffffffffffc36011261018857610d23611d2f565b5f73ffffffffffffffffffffffffffffffffffffffff81547fffffffffffffffffffffffff000000000000000000000000000000000000000081168355167f8be0079c531659141344cd1fd0a4f28419497f9722a3daafe3b4186f6b6457e08280a3005b34610188575f7ffffffffffffffffffffffffffffffffffffffffffffffffffffffffffffffffc360112610188576020600354604051908152f35b346101885760607ffffffffffffffffffffffffffffffffffffffffffffffffffffffffffffffffc36011261018857610df96117bd565b6024359073ffffffffffffffffffffffffffffffffffffffff8216809203610188579060405190610e2982611744565b60648083526101f46020840152610bb86040840152612710606084015273ffffffffffffffffffffffffffffffffffffffff9390931692915f5b60048110610e7f576040805162ffffff861681525f6020820152f35b5f608062ffffff610e908486611b7d565b5116610eaa62ffffff610ea38688611b7d565b5116611f0b565b60405191610eb783611760565b898352876020840152604083015260020b6060820152015262ffffff610edd8284611b7d565b511662ffffff8516809110908115610f1a575b50610efe575b600101610e63565b9250600162ffffff610f108584611b7d565b5116939050610ef6565b90501586610ef0565b346101885760607ffffffffffffffffffffffffffffffffffffffffffffffffffffffffffffffffc36011261018857610f5a6117bd565b6024356044359173ffffffffffffffffffffffffffffffffffffffff831683036101885773ffffffffffffffffffffffffffffffffffffffff90610f9c611d2f565b169182610fe5575f809350809281925af1610fb5611b20565b5015610fbd57005b7f90b8ec18000000000000000000000000000000000000000000000000000000005f5260045ffd5b61001a92611eac565b346101885760207ffffffffffffffffffffffffffffffffffffffffffffffffffffffffffffffffc360112610188576004355f526002602052602060ff60405f2054166040519015158152f35b346101885760e07ffffffffffffffffffffffffffffffffffffffffffffffffffffffffffffffffc360112610188576020611085611078366117e0565b60c4359060a43590611ac4565b6040519015158152f35b346101885760207ffffffffffffffffffffffffffffffffffffffffffffffffffffffffffffffffc360112610188576004356110c9611d2f565b6103e881116110d757600355005b7f31b182dd000000000000000000000000000000000000000000000000000000005f5260045ffd5b34610188576101007ffffffffffffffffffffffffffffffffffffffffffffffffffffffffffffffffc36011261018857611138366117e0565b611141366118ac565b9060405161114e816116fb565b5f81525f60208201525f60408201525f60608201525f6080820152611171611aa0565b60a0820152506040517fb306651500000000000000000000000000000000000000000000000000000000815260c081806111af8686600484016119b6565b0381305afa905f92825f925f946112db575b5061129e5750505050506101206040516111da81611744565b5f81525f60208201525f60408201525f6060820152604051906111fc826116fb565b5f82525f60208301525f60408301525f60608301525f608083015260a08201525b610ad460a06040519280518452602081015160208501526040810151604085015260608101516060850152608081015115156080850152015160a083019062ffffff6060809273ffffffffffffffffffffffffffffffffffffffff8151168552602081015160020b6020860152826040820151166040860152015116910152565b610120946112ab91611c66565b604051936112b8856116fb565b845260208401525f604084015260608301526001608083015260a082015261121d565b94509250905060c03d60c011611321575b6112f6818561177c565b83019060c08483031261018857611317845192604060208701519601611942565b91939192866111c1565b503d6112ec565b6101407ffffffffffffffffffffffffffffffffffffffffffffffffffffffffffffffffc3601126101885761135c366117e0565b611365366118ac565b61010435610124359173ffffffffffffffffffffffffffffffffffffffff83168303610188576040517f101d765f00000000000000000000000000000000000000000000000000000000815261012081806113c48589600484016119b6565b0381305afa908115610596575f916115e3575b506080810151156115bb57829051106114e9576020019081515f81135f146115aa575061143d82515b73ffffffffffffffffffffffffffffffffffffffff86511680611550575b50620f424061143662ffffff60408901511683611bbb565b0490611c05565b9283602086019173ffffffffffffffffffffffffffffffffffffffff83511615155f146115115773ffffffffffffffffffffffffffffffffffffffff611484935116611eac565b82106114e95760a0602093209080515f81135f146114d9575051905b60405191825282848301527f67054d8dde28341129dd15e2a934951dbab84356c01d50e85cbba07615a13cd860403393a3604051908152f35b6114e39150611a47565b906114a0565b7f0d4f6f4a000000000000000000000000000000000000000000000000000000005f5260045ffd5b5f809350809281925af1611523611b20565b50611484577f90b8ec18000000000000000000000000000000000000000000000000000000005f5260045ffd5b6115a490604051907f23b872dd0000000000000000000000000000000000000000000000000000000060208301523360248301523060448301528360648301526064825261159f60848361177c565b612040565b8661141e565b6115b661143d91611a47565b611400565b7f5037072d000000000000000000000000000000000000000000000000000000005f5260045ffd5b90506101203d8111611661575b6115fa818361177c565b810190610120818303126101885760405191611615836116fb565b81518352602082015160208401526040820151604084015260608201516060840152608082015180151581036101885760808401526116569160a001611942565b60a0820152856113d7565b503d6115f0565b346101885760207ffffffffffffffffffffffffffffffffffffffffffffffffffffffffffffffffc3601126101885760a0906004355f52600160205260405f206fffffffffffffffffffffffffffffffff81541690600181015460036002830154920154928452602084015260408301526fffffffffffffffffffffffffffffffff8116606083015260801c6080820152f35b60c0810190811067ffffffffffffffff82111761171757604052565b7f4e487b71000000000000000000000000000000000000000000000000000000005f52604160045260245ffd5b6080810190811067ffffffffffffffff82111761171757604052565b60a0810190811067ffffffffffffffff82111761171757604052565b90601f7fffffffffffffffffffffffffffffffffffffffffffffffffffffffffffffffe0910116810190811067ffffffffffffffff82111761171757604052565b6004359073ffffffffffffffffffffffffffffffffffffffff8216820361018857565b7ffffffffffffffffffffffffffffffffffffffffffffffffffffffffffffffffc60a0910112610188576040519061181782611760565b8160043573ffffffffffffffffffffffffffffffffffffffff8116810361018857815260243573ffffffffffffffffffffffffffffffffffffffff8116810361018857602082015260443562ffffff811681036101885760408201526064358060020b81036101885760608201526084359073ffffffffffffffffffffffffffffffffffffffff821682036101885760800152565b7fffffffffffffffffffffffffffffffffffffffffffffffffffffffffffffff5c606091011261018857604051906060820182811067ffffffffffffffff821117611717576040528160a435801515810361018857815260c435602082015260e4359073ffffffffffffffffffffffffffffffffffffffff821682036101885760400152565b519062ffffff8216820361018857565b91908260809103126101885760405161195a81611744565b8092805173ffffffffffffffffffffffffffffffffffffffff811681036101885782526020810151908160020b82036101885760606119b191819360208601526119a660408201611932565b604086015201611932565b910152565b90929173ffffffffffffffffffffffffffffffffffffffff604060e092611a2c8561010081019873ffffffffffffffffffffffffffffffffffffffff6080809282815116855282602082015116602086015262ffffff6040820151166040860152606081015160020b6060860152015116910152565b8051151560a0860152602081015160c0860152015116910152565b7f80000000000000000000000000000000000000000000000000000000000000008114611a73575f0390565b7f4e487b71000000000000000000000000000000000000000000000000000000005f52601160045260245ffd5b60405190611aad82611744565b5f6060838281528260208201528260408201520152565b916fffffffffffffffffffffffffffffffff611b0360a085207f0000000000000000000000000000000000000000000000000000000000000000611d7b565b1610611b1a57611b1291611e44565b600354101590565b50505f90565b3d15611b78573d9067ffffffffffffffff82116117175760405191611b6d60207fffffffffffffffffffffffffffffffffffffffffffffffffffffffffffffffe0601f840116018461177c565b82523d5f602084013e565b606090565b906004811015611b8e5760051b0190565b7f4e487b71000000000000000000000000000000000000000000000000000000005f52603260045260245ffd5b81810292918115918404141715611a7357565b8115611bd8570490565b7f4e487b71000000000000000000000000000000000000000000000000000000005f52601260045260245ffd5b91908203918211611a7357565b60405190611c1f82611760565b5f6080838281528260208201528260408201528260608201520152565b51906fffffffffffffffffffffffffffffffff8216820361018857565b91908201809211611a7357565b90611cb760a060206fffffffffffffffffffffffffffffffff930180515f81135f14611d1f575051935b207f0000000000000000000000000000000000000000000000000000000000000000611d7b565b168015611cf9576127108202908282046127101483151715611a7357611ce692611ce091611c59565b90611bce565b906103e88211611cf257565b6103e89150565b50507fffffffffffffffffffffffffffffffffffffffffffffffffffffffffffffffff90565b611d299150611a47565b93611c90565b73ffffffffffffffffffffffffffffffffffffffff5f54163303611d4f57565b7f118cdaa7000000000000000000000000000000000000000000000000000000005f523360045260245ffd5b90611d859061201a565b60038101809111611a735773ffffffffffffffffffffffffffffffffffffffff91602460209260405194859384927f1e2eaeaf0000000000000000000000000000000000000000000000000000000084526004840152165afa8015610596575f90611e02575b6fffffffffffffffffffffffffffffffff91501690565b506020813d602011611e3c575b81611e1c6020938361177c565b81010312610188576fffffffffffffffffffffffffffffffff9051611deb565b3d9150611e0f565b611e8260a06fffffffffffffffffffffffffffffffff92207f0000000000000000000000000000000000000000000000000000000000000000611d7b565b168015611cf957606482029082820460641483151715611a7357611ea992611ce091611c59565b90565b611f099273ffffffffffffffffffffffffffffffffffffffff604051937fa9059cbb00000000000000000000000000000000000000000000000000000000602086015216602484015260448301526044825261159f60648361177c565b565b62ffffff1660648114611f48576101f48114611f4257610bb88114611f3c5761271014611f3757603c90565b60c890565b50603c90565b50600a90565b50600190565b6020906024611f7273ffffffffffffffffffffffffffffffffffffffff959461201a565b60405195869384927f1e2eaeaf0000000000000000000000000000000000000000000000000000000084526004840152165afa918215610596575f92611fe6575b5073ffffffffffffffffffffffffffffffffffffffff8216918060a01c60020b9162ffffff808360b81c169260d01c1690565b9091506020813d602011612012575b816120026020938361177c565b810103126101885751905f611fb3565b3d9150611ff5565b60405160208101918252600660408201526040815261203a60608261177c565b51902090565b905f602091828151910182855af115610596575f513d6120be575073ffffffffffffffffffffffffffffffffffffffff81163b155b61207c5750565b73ffffffffffffffffffffffffffffffffffffffff907f5274afe7000000000000000000000000000000000000000000000000000000005f521660045260245ffd5b6001141561207556fea2646970667358221220c112cd55c486118951448883110789f2483df7df0dd63b1511052851f3abe2db64736f6c634300081a0033","linkReferences":{}},"methodIdentifiers":{"MAX_SLIPPAGE_BPS()":"e229cd76","addPoolToMonitoring((address,address,uint24,int24,address))":"f5289a0e","defaultMaxSlippageBPS()":"5c70d1c4","emergencyWithdraw(address,uint256,address)":"551512de","executeSwapWithSlippage((address,address,uint24,int24,address),(bool,int256,uint160),uint256,address)":"0efd590b","getLiquidityDepth((address,address,uint24,int24,address))":"da8ff76b","getOptimalFeeTier(address,address,uint256)":"5a920e71","getPoolLiquidityInfo((address,address,uint24,int24,address))":"f85e4063","getPoolState((address,address,uint24,int24,address))":"a399face","getSwapQuote((address,address,uint24,int24,address),(bool,int256,uint160))":"101d765f","hasSufficientLiquidity((address,address,uint24,int24,address),uint256,uint256)":"2d9d241f","monitoredPools(bytes32)":"3e298e43","owner()":"8da5cb5b","poolLiquidityInfo(bytes32)":"0bc79407","poolManager()":"dc4c90d3","positionManager()":"791b98bc","removePoolFromMonitoring((address,address,uint24,int24,address))":"c2648b32","renounceOwnership()":"715018a6","router()":"f887ea40","simulateSwap((address,address,uint24,int24,address),(bool,int256,uint160))":"b3066515","transferOwnership(address)":"f2fde38b","updateSlippageSettings(uint256)":"2819e32c"},"id":109}