{"abi":[{"type":"constructor","inputs":[{"name":"initialOwner","type":"address","internalType":"address"},{"name":"initialKeeper","type":"address","internalType":"address"}],"stateMutability":"nonpayable"},{"type":"function","name":"addChain","inputs":[{"name":"chainId","type":"uint256","internalType":"uint256"},{"name":"ethUsdPriceFeed","type":"address","internalType":"address"}],"outputs":[],"stateMutability":"nonpayable"},{"type":"function","name":"getGasPrice","inputs":[{"name":"chainId","type":"uint256","internalType":"uint256"}],"outputs":[{"name":"gasPrice","type":"uint256","internalType":"uint256"},{"name":"timestamp","type":"uint256","internalType":"uint256"}],"stateMutability":"view"},{"type":"function","name":"getGasPriceTrend","inputs":[{"name":"chainId","type":"uint256","internalType":"uint256"},{"name":"timeWindow","type":"uint256","internalType":"uint256"}],"outputs":[{"name":"trend","type":"tuple","internalType":"struct IGasPriceOracle.GasTrend","components":[{"name":"averagePrice","type":"uint256","internalType":"uint256"},{"name":"minPrice","type":"uint256","internalType":"uint256"},{"name":"maxPrice","type":"uint256","internalType":"uint256"},{"name":"volatility","type":"uint256","internalType":"uint256"},{"name":"isIncreasing","type":"bool","internalType":"bool"}]}],"stateMutability":"view"},{"type":"function","name":"getGasPriceUSD","inputs":[{"name":"chainId","type":"uint256","internalType":"uint256"}],"outputs":[{"name":"gasPriceUSD","type":"uint256","internalType":"uint256"}],"stateMutability":"view"},{"type":"function","name":"getLastUpdateTime","inputs":[{"name":"chainId","type":"uint256","internalType":"uint256"}],"outputs":[{"name":"","type":"uint256","internalType":"uint256"}],"stateMutability":"view"},{"type":"function","name":"getSupportedChains","inputs":[],"outputs":[{"name":"","type":"uint256[]","internalType":"uint256[]"}],"stateMutability":"pure"},{"type":"function","name":"isGasPriceStale","inputs":[{"name":"chainId","type":"uint256","internalType":"uint256"}],"outputs":[{"name":"","type":"bool","internalType":"bool"}],"stateMutability":"view"},{"type":"function","name":"keeper","inputs":[],"outputs":[{"name":"","type":"address","internalType":"address"}],"stateMutability":"view"},{"type":"function","name":"owner","inputs":[],"outputs":[{"name":"","type":"address","internalType":"address"}],"stateMutability":"view"},{"type":"function","name":"pause","inputs":[],"outputs":[],"stateMutability":"nonpayable"},{"type":"function","name":"paused","inputs":[],"outputs":[{"name":"","type":"bool","internalType":"bool"}],"stateMutability":"view"},{"type":"function","name":"removeChain","inputs":[{"name":"chainId","type":"uint256","internalType":"uint256"}],"outputs":[],"stateMutability":"nonpayable"},{"type":"function","name":"renounceOwnership","inputs":[],"outputs":[],"stateMutability":"nonpayable"},{"type":"function","name":"setKeeper","inputs":[{"name":"newKeeper","type":"address","internalType":"address"}],"outputs":[],"stateMutability":"nonpayable"},{"type":"function","name":"stalenessThreshold","inputs":[],"outputs":[{"name":"","type":"uint256","internalType":"uint256"}],"stateMutability":"view"},{"type":"function","name":"supportedChains","inputs":[{"name":"chainId","type":"uint256","internalType":"uint256"}],"outputs":[{"name":"","type":"bool","internalType":"bool"}],"stateMutability":"view"},{"type":"function","name":"transferOwnership","inputs":[{"name":"newOwner","type":"address","internalType":"address"}],"outputs":[],"stateMutability":"nonpayable"},{"type":"function","name":"unpause","inputs":[],"outputs":[],"stateMutability":"nonpayable"},{"type":"function","name":"updateGasPrices","inputs":[{"name":"chainIds","type":"uint256[]","internalType":"uint256[]"},{"name":"gasPricesArray","type":"uint256[]","internalType":"uint256[]"}],"outputs":[],"stateMutability":"nonpayable"},{"type":"function","name":"updateKeeper","inputs":[{"name":"newKeeper","type":"address","internalType":"address"}],"outputs":[],"stateMutability":"nonpayable"},{"type":"function","name":"updateStalenessThreshold","inputs":[{"name":"newThreshold","type":"uint256","internalType":"uint256"}],"outputs":[],"stateMutability":"nonpayable"},{"type":"function","name":"validateGasPrice","inputs":[{"name":"chainId","type":"uint256","internalType":"uint256"},{"name":"gasPrice","type":"uint256","internalType":"uint256"}],"outputs":[{"name":"","type":"bool","internalType":"bool"}],"stateMutability":"view"},{"type":"event","name":"EmergencyPauseToggled","inputs":[{"name":"isPaused","type":"bool","indexed":false,"internalType":"bool"},{"name":"admin","type":"address","indexed":true,"internalType":"address"}],"anonymous":false},{"type":"event","name":"GasPriceOracleConfigured","inputs":[{"name":"chainIds","type":"uint256[]","indexed":false,"internalType":"uint256[]"},{"name":"priceFeeds","type":"address[]","indexed":false,"internalType":"address[]"}],"anonymous":false},{"type":"event","name":"GasPriceUpdated","inputs":[{"name":"chainId","type":"uint256","indexed":true,"internalType":"uint256"},{"name":"newGasPrice","type":"uint256","indexed":false,"internalType":"uint256"},{"name":"timestamp","type":"uint256","indexed":false,"internalType":"uint256"}],"anonymous":false},{"type":"event","name":"KeeperUpdated","inputs":[{"name":"oldKeeper","type":"address","indexed":true,"internalType":"address"},{"name":"newKeeper","type":"address","indexed":true,"internalType":"address"}],"anonymous":false},{"type":"event","name":"OwnershipTransferred","inputs":[{"name":"previousOwner","type":"address","indexed":true,"internalType":"address"},{"name":"newOwner","type":"address","indexed":true,"internalType":"address"}],"anonymous":false},{"type":"error","name":"ArrayLengthMismatch","inputs":[]},{"type":"error","name":"EmergencyPauseActive","inputs":[]},{"type":"error","name":"InvalidChainId","inputs":[]},{"type":"error","name":"InvalidGasPrice","inputs":[]},{"type":"error","name":"InvalidPriceFeed","inputs":[]},{"type":"error","name":"OwnableInvalidOwner","inputs":[{"name":"owner","type":"address","internalType":"address"}]},{"type":"error","name":"OwnableUnauthorizedAccount","inputs":[{"name":"account","type":"address","internalType":"address"}]},{"type":"error","name":"PriceFeedStale","inputs":[]},{"type":"error","name":"StaleGasPrice","inputs":[]},{"type":"error","name":"UnauthorizedKeeper","inputs":[]},{"type":"error","name":"ZeroAddress","inputs":[]}],"bytecode":{"object":"0x60803461030557601f61198a38819003918201601f19168301916001600160401b0383118484101761030957808492604094855283398101031261030557610052602061004b8361031d565b920161031d565b6001600160a01b039091169081156102f2575f80546001600160a01b031981168417825560405193916001600160a01b03909116907f8be0079c531659141344cd1fd0a4f28419497f9722a3daafe3b4186f6b6457e09080a3610258600655600580546001600160a01b03199081166001600160a01b03939093169290921790557fe90b7bceb6e7df5418fb78d8ee546e97c83a08bbccc01a0644d599ccd2a7c2e080548216735f4ec3df9cbd43714fe2740f5e3616155c5b84191790557f5fa80452b166d50ac062987ccf92fbd09d4d791a0828f45943bd937cb4ec50858054821673639fe6ab55c921f74e7fac1ee960c0b6293ba6121790557fd3604db978f6137b0d18816b77b2ce810487a3af08a922e0b184963be5f3adfc805482167313e3ee699d1909e989722e753853ae30b17e08c51790557f0cb0be258cd4e0f89ef5514ec447dd8846b0cf865c7d0d8ea82ff58a1eae81a18054821673f9680d99d6c9589e2a93a78a04a279e5092059451790557fb45a023a5b47e335be59bc3f73b9ac8b4a6ac7edfab69af24a46b6a6673560f480549091167371041dddad3595f9ced3dccfbe3d1f4b0a16bb7017905560046020527fabd6e7cb50984ff9c2f3e18a2660c3353dadf4e3291deeb275dae2cd1e44fe05805460ff1990811660019081179092557f6b9ac384f7f53524c5ccf3206e339a1858e866a93c0b5f8485b15dfdf97905e280548216831790557f5c6b02db8b672415ffad906d7ccee10bd53dbad7d0b29e2bc0e50c93d5f3109380548216831790557f907b08434ac958ede2a264ebafec1874958c44bd102e1bc36a06cd703932da0b80548216831790556121055f527f88c3635684bf227e4f0401916bcd508d25456108be47808174ccf7961c8cbd958054909116909117905561165890816103328239f35b631e4fbdf760e01b5f525f60045260245ffd5b5f80fd5b634e487b7160e01b5f52604160045260245ffd5b51906001600160a01b03821682036103055756fe60806040526004361015610011575f80fd5b5f3560e01c80633f4ba83a1461105f5780634f695af314610cf05780635303942b14610b0c578063548d496f14610abf5780635c3db76c14610a305780635c975abb146109f0578063715018a614610956578063748747e6146107a25780637ff5d74c1461090a5780638456cb591461087a57806387458a681461083b5780638da5cb5b146107eb57806397790217146107a2578063a84f6ebb14610767578063aced166114610716578063b1f15085146106da578063c4bffe2b146105f7578063cbf50bb614610543578063d1c0154314610492578063dc74827114610246578063eed42acc146101fb5763f2fde38b1461010b575f80fd5b346101f75760207ffffffffffffffffffffffffffffffffffffffffffffffffffffffffffffffffc3601126101f75773ffffffffffffffffffffffffffffffffffffffff61015761111c565b61015f611523565b1680156101cb5773ffffffffffffffffffffffffffffffffffffffff5f54827fffffffffffffffffffffffff00000000000000000000000000000000000000008216175f55167f8be0079c531659141344cd1fd0a4f28419497f9722a3daafe3b4186f6b6457e05f80a3005b7f1e4fbdf7000000000000000000000000000000000000000000000000000000005f525f60045260245ffd5b5f80fd5b346101f75760207ffffffffffffffffffffffffffffffffffffffffffffffffffffffffffffffffc3601126101f7576004355f5260016020526020600160405f200154604051908152f35b346101f75760207ffffffffffffffffffffffffffffffffffffffffffffffffffffffffffffffffc3601126101f757600435604051907fd1c01543000000000000000000000000000000000000000000000000000000008252806004830152604082602481305afa91821561042b575f9261045e575b505f52600260205273ffffffffffffffffffffffffffffffffffffffff60405f2054169081156104365760a0600492604051938480927ffeaf968c0000000000000000000000000000000000000000000000000000000082525afa801561042b575f925f916103d4575b506103319042611244565b600654106103ac5781810291818304149015171561037f57670de0b6b3a7640000810290808204670de0b6b3a7640000149015171561037f5760209067016345785d8a000060405191048152f35b7f4e487b71000000000000000000000000000000000000000000000000000000005f52601160045260245ffd5b7f216cc5f5000000000000000000000000000000000000000000000000000000005f5260045ffd5b92505060a0823d60a011610423575b816103f060a093836111ee565b810103126101f7576104018261150c565b50610331602083015161041b60806060860151950161150c565b509290610326565b3d91506103e3565b6040513d5f823e3d90fd5b7f52cc3f7d000000000000000000000000000000000000000000000000000000005f5260045ffd5b9091506040813d60401161048a575b8161047a604093836111ee565b810103126101f7575190826102bc565b3d915061046d565b346101f75760207ffffffffffffffffffffffffffffffffffffffffffffffffffffffffffffffffc3601126101f7576004356104cd8161156f565b5f52600160205260405f20604051906104e5826111b6565b8054825260ff600260018301549260208501938452015416158015604084015261051b5760409151905182519182526020820152f35b7f2428c4a8000000000000000000000000000000000000000000000000000000005f5260045ffd5b346101f75760207ffffffffffffffffffffffffffffffffffffffffffffffffffffffffffffffffc3601126101f75760043561057d611523565b5f90815260046020908152604080832080547fffffffffffffffffffffffffffffffffffffffffffffffffffffffffffffff00169055600280835281842080547fffffffffffffffffffffffff00000000000000000000000000000000000000001690556001928390529083208381559182018390550155005b346101f7575f7ffffffffffffffffffffffffffffffffffffffffffffffffffffffffffffffffc3601126101f75760405161063360c0826111ee565b6005815260a0366020830137600161064a826115c6565b528051600110156106ad5761a4b160408201528051600210156106ad57600a60608201528051600310156106ad57608960808201528051600410156106ad578061210560a06106a9930152604051918291602083526020830190611173565b0390f35b7f4e487b71000000000000000000000000000000000000000000000000000000005f52603260045260245ffd5b346101f75760206106f46106ed3661113f565b91906115d3565b9081610706575b506040519015158152f35b61071091506115a7565b826106fb565b346101f7575f7ffffffffffffffffffffffffffffffffffffffffffffffffffffffffffffffffc3601126101f757602073ffffffffffffffffffffffffffffffffffffffff60055416604051908152f35b346101f7575f7ffffffffffffffffffffffffffffffffffffffffffffffffffffffffffffffffc3601126101f7576020600654604051908152f35b346101f75760207ffffffffffffffffffffffffffffffffffffffffffffffffffffffffffffffffc3601126101f7576107e96107dc61111c565b6107e4611523565b611251565b005b346101f7575f7ffffffffffffffffffffffffffffffffffffffffffffffffffffffffffffffffc3601126101f757602073ffffffffffffffffffffffffffffffffffffffff5f5416604051908152f35b346101f75760207ffffffffffffffffffffffffffffffffffffffffffffffffffffffffffffffffc3601126101f757610872611523565b600435600655005b346101f7575f7ffffffffffffffffffffffffffffffffffffffffffffffffffffffffffffffffc3601126101f7576108b0611523565b60017fffffffffffffffffffffffffffffffffffffffffffffffffffffffffffffff006007541617600755604051600181527f81fb10540499dac6157b25576349c719be885b5774e4a0dda606c2f33947d51f60203392a2005b346101f75760a061092361091d3661113f565b9061130b565b60806040519180518352602081015160208401526040810151604084015260608101516060840152015115156080820152f35b346101f7575f7ffffffffffffffffffffffffffffffffffffffffffffffffffffffffffffffffc3601126101f75761098c611523565b5f73ffffffffffffffffffffffffffffffffffffffff81547fffffffffffffffffffffffff000000000000000000000000000000000000000081168355167f8be0079c531659141344cd1fd0a4f28419497f9722a3daafe3b4186f6b6457e08280a3005b346101f7575f7ffffffffffffffffffffffffffffffffffffffffffffffffffffffffffffffffc3601126101f757602060ff600754166040519015158152f35b346101f75760207ffffffffffffffffffffffffffffffffffffffffffffffffffffffffffffffffc3601126101f7576004355f52600160205260206040805f208151610a7b816111b6565b8154815260ff6002600184015493848785015201541615908115938491015291610aaa57506040519015158152f35b610ab5915042611244565b60065410826106fb565b346101f75760207ffffffffffffffffffffffffffffffffffffffffffffffffffffffffffffffffc3601126101f7576004355f526004602052602060ff60405f2054166040519015158152f35b346101f75760407ffffffffffffffffffffffffffffffffffffffffffffffffffffffffffffffffc3601126101f75760043560243573ffffffffffffffffffffffffffffffffffffffff81168091036101f757610b67611523565b610b708261156f565b8015610cc857815f52600260205260405f20817fffffffffffffffffffffffff0000000000000000000000000000000000000000825416179055815f52600460205260405f2060017fffffffffffffffffffffffffffffffffffffffffffffffffffffffffffffff008254161790556040906020610c5b8351610bf385826111ee565b600181527fffffffffffffffffffffffffffffffffffffffffffffffffffffffffffffffe0850195863685840137610c2a826115c6565b52845193610c3886866111ee565b6001855283850196368837610c4c856115c6565b52845194808652850190611173565b918383038285015251918281520192905f5b818110610c9c577f9b5c186c2b789344ca519dd25da4d89024fd430909f7bef6658c7ad01ce45f2884860385a1005b825173ffffffffffffffffffffffffffffffffffffffff16855260209485019490920191600101610c6d565b7fd92e233d000000000000000000000000000000000000000000000000000000005f5260045ffd5b346101f75760407ffffffffffffffffffffffffffffffffffffffffffffffffffffffffffffffffc3601126101f75760043567ffffffffffffffff81116101f757610d3f9036906004016110eb565b60243567ffffffffffffffff81116101f757610d5f9036906004016110eb565b91909273ffffffffffffffffffffffffffffffffffffffff600554163314158061103e575b6110165760ff60075416610fee57828203610fc6575f5b828110610da457005b610daf8184846111a6565b3590610dbc8186886111a6565b3591610dc78161156f565b610dd0836115a7565b15610f9e57604051610de1816111b6565b83815260026020820191428352604081019260018452845f52600160205260405f2091518255516001820155019051151560ff7fffffffffffffffffffffffffffffffffffffffffffffffffffffffffffffff008354169116179055805f52600360205260405f2092835460188110155f14610f1f57505f5b60178110610eb757508354601710156106ad575f93845260209093206017018390556001927f488c2c951efd0b4149f0fc21cd366f1035e51c1c0615978e323d2edee5fff46a906040905b8151908152426020820152a201610d9b565b600181019081811161037f57610f19610ed26001938861122f565b90549060031b1c610ee3838961122f565b9091907fffffffffffffffffffffffffffffffffffffffffffffffffffffffffffffffff83549160031b92831b921b1916179055565b01610e5a565b68010000000000000000819592951015610f715784610f6c600196610ee3847f488c2c951efd0b4149f0fc21cd366f1035e51c1c0615978e323d2edee5fff46a968a60409701815561122f565b610ea5565b7f4e487b71000000000000000000000000000000000000000000000000000000005f52604160045260245ffd5b7ff3eb44e5000000000000000000000000000000000000000000000000000000005f5260045ffd5b7fa24a13a6000000000000000000000000000000000000000000000000000000005f5260045ffd5b7f909b1917000000000000000000000000000000000000000000000000000000005f5260045ffd5b7f77b14347000000000000000000000000000000000000000000000000000000005f5260045ffd5b5073ffffffffffffffffffffffffffffffffffffffff5f5416331415610d84565b346101f7575f7ffffffffffffffffffffffffffffffffffffffffffffffffffffffffffffffffc3601126101f757611095611523565b7fffffffffffffffffffffffffffffffffffffffffffffffffffffffffffffff00600754166007556040515f81527f81fb10540499dac6157b25576349c719be885b5774e4a0dda606c2f33947d51f60203392a2005b9181601f840112156101f75782359167ffffffffffffffff83116101f7576020808501948460051b0101116101f757565b6004359073ffffffffffffffffffffffffffffffffffffffff821682036101f757565b7ffffffffffffffffffffffffffffffffffffffffffffffffffffffffffffffffc60409101126101f7576004359060243590565b90602080835192838152019201905f5b8181106111905750505090565b8251845260209384019390920191600101611183565b91908110156106ad5760051b0190565b6060810190811067ffffffffffffffff821117610f7157604052565b60a0810190811067ffffffffffffffff821117610f7157604052565b90601f7fffffffffffffffffffffffffffffffffffffffffffffffffffffffffffffffe0910116810190811067ffffffffffffffff821117610f7157604052565b80548210156106ad575f5260205f2001905f90565b9190820391821161037f57565b73ffffffffffffffffffffffffffffffffffffffff168015610cc85773ffffffffffffffffffffffffffffffffffffffff600554827fffffffffffffffffffffffff0000000000000000000000000000000000000000821617600555167f53d3703fe259def57584466f32d1b94c30278008c683c21b04501c4966f13a695f80a3565b81156112de570490565b7f4e487b71000000000000000000000000000000000000000000000000000000005f52601260045260245ffd5b604051611317816111d2565b5f81525f60208201525f60408201525f60608201525f60808201525061133c8161156f565b5f52600360205260405f2080549182156114df57828111156114d95750815b6113658382611244565b5f937fffffffffffffffffffffffffffffffffffffffffffffffffffffffffffffffff945f925b84811061149257509061139e916112d4565b938082111561148b576113b18183611244565b612710810290808204612710149015171561037f57856113d0916112d4565b925b5f946002821015611408575b5050604051946113ed866111d2565b85526020850152604084015260608301521515608082015290565b909194507fffffffffffffffffffffffffffffffffffffffffffffffffffffffffffffffff820182811161037f57611440908261122f565b90549060031b1c917ffffffffffffffffffffffffffffffffffffffffffffffffffffffffffffffffe810190811161037f5761147b9161122f565b90549060031b1c10925f806113de565b5f926113d2565b61149c818761122f565b90549060031b1c9182810180911161037f57918781106114d1575b8481116114c8575b5060010161138c565b935060016114bf565b9650866114b7565b9161135b565b5050506040516114ee816111d2565b5f81525f60208201525f60408201525f60608201525f608082015290565b519069ffffffffffffffffffff821682036101f757565b73ffffffffffffffffffffffffffffffffffffffff5f5416330361154357565b7f118cdaa7000000000000000000000000000000000000000000000000000000005f523360045260245ffd5b611578906115d3565b1561157f57565b7f7a47c9a2000000000000000000000000000000000000000000000000000000005f5260045ffd5b633b9aca0081101590816115b9575090565b64e8d4a510009150111590565b8051156106ad5760200190565b60018114908115611616575b811561160b575b8115611600575b81156115f7575090565b61210591501490565b6089811491506115ed565b600a811491506115e6565b61a4b1811491506115df56fea2646970667358221220b91ce9779d0de89261e37407b87a751dfa620282ca78ff5f66d4fa0aa4bf42ee64736f6c634300081a0033","linkReferences":{}},"methodIdentifiers":{"addChain(uint256,address)":"5303942b","getGasPrice(uint256)":"d1c01543","getGasPriceTrend(uint256,uint256)":"7ff5d74c","getGasPriceUSD(uint256)":"dc748271","getLastUpdateTime(uint256)":"eed42acc","getSupportedChains()":"c4bffe2b","isGasPriceStale(uint256)":"5c3db76c","keeper()":"aced1661","owner()":"8da5cb5b","pause()":"8456cb59","paused()":"5c975abb","removeChain(uint256)":"cbf50bb6","renounceOwnership()":"715018a6","setKeeper(address)":"748747e6","stalenessThreshold()":"a84f6ebb","supportedChains(uint256)":"548d496f","transferOwnership(address)":"f2fde38b","unpause()":"3f4ba83a","updateGasPrices(uint256[],uint256[])":"4f695af3","updateKeeper(address)":"97790217","updateStalenessThreshold(uint256)":"87458a68","validateGasPrice(uint256,uint256)":"b1f15085"},"id":104}