{"abi":[{"type":"constructor","inputs":[{"name":"initialOwner","type":"address","internalType":"address"},{"name":"_gasPriceOracle","type":"address","internalType":"address"},{"name":"_chainlinkIntegration","type":"address","internalType":"address"}],"stateMutability":"nonpayable"},{"type":"function","name":"calculateBridgeFeeUSD","inputs":[{"name":"token","type":"address","internalType":"address"},{"name":"amount","type":"uint256","internalType":"uint256"},{"name":"","type":"uint256","internalType":"uint256"}],"outputs":[{"name":"","type":"uint256","internalType":"uint256"}],"stateMutability":"view"},{"type":"function","name":"calculateGasCostUSD","inputs":[{"name":"chainId","type":"uint256","internalType":"uint256"},{"name":"gasLimit","type":"uint256","internalType":"uint256"}],"outputs":[{"name":"","type":"uint256","internalType":"uint256"}],"stateMutability":"view"},{"type":"function","name":"calculateMEVProtectionFee","inputs":[{"name":"amount","type":"uint256","internalType":"uint256"},{"name":"mevFeeBPS","type":"uint256","internalType":"uint256"}],"outputs":[{"name":"","type":"uint256","internalType":"uint256"}],"stateMutability":"pure"},{"type":"function","name":"calculateSlippageCost","inputs":[{"name":"amount","type":"uint256","internalType":"uint256"},{"name":"slippageBPS","type":"uint256","internalType":"uint256"}],"outputs":[{"name":"","type":"uint256","internalType":"uint256"}],"stateMutability":"pure"},{"type":"function","name":"calculateTotalCost","inputs":[{"name":"params","type":"tuple","internalType":"struct ICostCalculator.CostParams","components":[{"name":"chainId","type":"uint256","internalType":"uint256"},{"name":"tokenIn","type":"address","internalType":"address"},{"name":"tokenOut","type":"address","internalType":"address"},{"name":"amountIn","type":"uint256","internalType":"uint256"},{"name":"gasLimit","type":"uint256","internalType":"uint256"},{"name":"user","type":"address","internalType":"address"},{"name":"gasUsed","type":"uint256","internalType":"uint256"},{"name":"gasPrice","type":"uint256","internalType":"uint256"}]}],"outputs":[{"name":"","type":"tuple","internalType":"struct ICostCalculator.TotalCost","components":[{"name":"gasCostUSD","type":"uint256","internalType":"uint256"},{"name":"bridgeFeeUSD","type":"uint256","internalType":"uint256"},{"name":"slippageCostUSD","type":"uint256","internalType":"uint256"},{"name":"totalCostUSD","type":"uint256","internalType":"uint256"},{"name":"executionTime","type":"uint256","internalType":"uint256"}]}],"stateMutability":"view"},{"type":"function","name":"chainlinkIntegration","inputs":[],"outputs":[{"name":"","type":"address","internalType":"contract IChainlinkAggregator"}],"stateMutability":"view"},{"type":"function","name":"convertToUSD","inputs":[{"name":"token","type":"address","internalType":"address"},{"name":"amount","type":"uint256","internalType":"uint256"}],"outputs":[{"name":"","type":"uint256","internalType":"uint256"}],"stateMutability":"view"},{"type":"function","name":"costParameters","inputs":[],"outputs":[{"name":"baseBridgeFeeUSD","type":"uint256","internalType":"uint256"},{"name":"bridgeFeePercentageBPS","type":"uint256","internalType":"uint256"},{"name":"maxSlippageBPS","type":"uint256","internalType":"uint256"},{"name":"mevProtectionFeeBPS","type":"uint256","internalType":"uint256"},{"name":"gasEstimationMultiplier","type":"uint256","internalType":"uint256"}],"stateMutability":"view"},{"type":"function","name":"estimateSlippageCost","inputs":[{"name":"tokenIn","type":"address","internalType":"address"},{"name":"","type":"address","internalType":"address"},{"name":"amountIn","type":"uint256","internalType":"uint256"},{"name":"","type":"uint256","internalType":"uint256"}],"outputs":[{"name":"","type":"uint256","internalType":"uint256"}],"stateMutability":"view"},{"type":"function","name":"findOptimalChain","inputs":[{"name":"params","type":"tuple","internalType":"struct ICostCalculator.OptimizationParams","components":[{"name":"tokenIn","type":"address","internalType":"address"},{"name":"tokenOut","type":"address","internalType":"address"},{"name":"amountIn","type":"uint256","internalType":"uint256"},{"name":"minSavingsThresholdBPS","type":"uint256","internalType":"uint256"},{"name":"minAbsoluteSavingsUSD","type":"uint256","internalType":"uint256"},{"name":"maxBridgeTime","type":"uint256","internalType":"uint256"},{"name":"excludeChains","type":"uint256[]","internalType":"uint256[]"}]}],"outputs":[{"name":"chainId","type":"uint256","internalType":"uint256"},{"name":"expectedSavingsUSD","type":"uint256","internalType":"uint256"}],"stateMutability":"view"},{"type":"function","name":"gasPriceOracle","inputs":[],"outputs":[{"name":"","type":"address","internalType":"contract IGasPriceOracle"}],"stateMutability":"view"},{"type":"function","name":"getCostParameters","inputs":[],"outputs":[{"name":"","type":"tuple","internalType":"struct ICostCalculator.CostParameters","components":[{"name":"baseBridgeFeeUSD","type":"uint256","internalType":"uint256"},{"name":"bridgeFeePercentageBPS","type":"uint256","internalType":"uint256"},{"name":"maxSlippageBPS","type":"uint256","internalType":"uint256"},{"name":"mevProtectionFeeBPS","type":"uint256","internalType":"uint256"},{"name":"gasEstimationMultiplier","type":"uint256","internalType":"uint256"}]}],"stateMutability":"view"},{"type":"function","name":"isChainSupported","inputs":[{"name":"chainId","type":"uint256","internalType":"uint256"}],"outputs":[{"name":"","type":"bool","internalType":"bool"}],"stateMutability":"pure"},{"type":"function","name":"isCostCalculationReliable","inputs":[{"name":"chainId","type":"uint256","internalType":"uint256"}],"outputs":[{"name":"","type":"bool","internalType":"bool"}],"stateMutability":"view"},{"type":"function","name":"owner","inputs":[],"outputs":[{"name":"","type":"address","internalType":"address"}],"stateMutability":"view"},{"type":"function","name":"renounceOwnership","inputs":[],"outputs":[],"stateMutability":"nonpayable"},{"type":"function","name":"transferOwnership","inputs":[{"name":"newOwner","type":"address","internalType":"address"}],"outputs":[],"stateMutability":"nonpayable"},{"type":"function","name":"updateChainlinkIntegration","inputs":[{"name":"newChainlinkIntegration","type":"address","internalType":"address"}],"outputs":[],"stateMutability":"nonpayable"},{"type":"function","name":"updateCostParameters","inputs":[{"name":"newParams","type":"tuple","internalType":"struct ICostCalculator.CostParameters","components":[{"name":"baseBridgeFeeUSD","type":"uint256","internalType":"uint256"},{"name":"bridgeFeePercentageBPS","type":"uint256","internalType":"uint256"},{"name":"maxSlippageBPS","type":"uint256","internalType":"uint256"},{"name":"mevProtectionFeeBPS","type":"uint256","internalType":"uint256"},{"name":"gasEstimationMultiplier","type":"uint256","internalType":"uint256"}]}],"outputs":[],"stateMutability":"nonpayable"},{"type":"function","name":"updateTokenPriceFeed","inputs":[{"name":"token","type":"address","internalType":"address"},{"name":"priceFeed","type":"address","internalType":"address"}],"outputs":[],"stateMutability":"nonpayable"},{"type":"event","name":"OwnershipTransferred","inputs":[{"name":"previousOwner","type":"address","indexed":true,"internalType":"address"},{"name":"newOwner","type":"address","indexed":true,"internalType":"address"}],"anonymous":false},{"type":"error","name":"InvalidChainId","inputs":[]},{"type":"error","name":"OwnableInvalidOwner","inputs":[{"name":"owner","type":"address","internalType":"address"}]},{"type":"error","name":"OwnableUnauthorizedAccount","inputs":[{"name":"account","type":"address","internalType":"address"}]}],"bytecode":{"object":"0x60806040523461018157604051601f61184238819003918201601f19168301916001600160401b0383118484101761015a578084926060946040528339810103126101815761004d81610185565b90610066604061005f60208401610185565b9201610185565b916001600160a01b0316801561016e575f80546001600160a01b03198116831782556001600160a01b0316907f8be0079c531659141344cd1fd0a4f28419497f9722a3daafe3b4186f6b6457e09080a3600180546001600160a01b039283166001600160a01b0319918216179091556002805493909216921691909117905560405160a081018181106001600160401b0382111761015a57612ee091608091604052671bc16d674ec800008152600a602082015260326040820152600560608201520152671bc16d674ec80000600355600a60045560326005556005600655612ee06007556040516116a8908161019a8239f35b634e487b7160e01b5f52604160045260245ffd5b631e4fbdf760e01b5f525f60045260245ffd5b5f80fd5b51906001600160a01b03821682036101815756fe60806040526004361015610011575f80fd5b5f803560e01c806308968b1a14610bd75780630d45b96b14610b505780632a9c568314610a5d5780633ead1b7514610a445780634b6ded6f146108f55780635221c1f0146108af57806356106746146104c15780636f6dc5ae1461085e578063715018a6146107c45780637b97722f146107235780637c45391d146106a157806382d2f5b1146105af57806389bbac4e146105695780638da5cb5b14610518578063abcb5634146104c6578063c511ae27146104c1578063d3ca930b14610463578063f08a25ed14610415578063f2fde38b146103275763fc5b3d41146100f6575f80fd5b346103245760a07ffffffffffffffffffffffffffffffffffffffffffffffffffffffffffffffffc3601126103245761012d611626565b6024356103e881116102c6576044356103e8811161026857606435906101f4821161020a5760843592617530841180156101ff575b61017b5760043560035560045560055560065560075580f35b60846040517f08c379a000000000000000000000000000000000000000000000000000000000815260206004820152602660248201527f47617320657374696d6174696f6e206d756c7469706c696572206f7574206f6660448201527f2072616e676500000000000000000000000000000000000000000000000000006064820152fd5b506127108410610162565b60646040517f08c379a000000000000000000000000000000000000000000000000000000000815260206004820152601b60248201527f4d45562070726f74656374696f6e2066656520746f6f206869676800000000006044820152fd5b60646040517f08c379a000000000000000000000000000000000000000000000000000000000815260206004820152601560248201527f4d617820736c69707061676520746f6f206869676800000000000000000000006044820152fd5b60646040517f08c379a000000000000000000000000000000000000000000000000000000000815260206004820152601e60248201527f427269646765206665652070657263656e7461676520746f6f206869676800006044820152fd5b80fd5b50346103245760207ffffffffffffffffffffffffffffffffffffffffffffffffffffffffffffffffc3601126103245773ffffffffffffffffffffffffffffffffffffffff610374610c34565b61037c611626565b1680156103e95773ffffffffffffffffffffffffffffffffffffffff8254827fffffffffffffffffffffffff00000000000000000000000000000000000000008216178455167f8be0079c531659141344cd1fd0a4f28419497f9722a3daafe3b4186f6b6457e08380a380f35b6024827f1e4fbdf700000000000000000000000000000000000000000000000000000000815280600452fd5b50346103245760407ffffffffffffffffffffffffffffffffffffffffffffffffffffffffffffffffc36011261032457602061045b610452610c34565b602435906114b6565b604051908152f35b503461032457807ffffffffffffffffffffffffffffffffffffffffffffffffffffffffffffffffc3601126103245760a060035460045460055460065490600754926040519485526020850152604084015260608301526080820152f35b610cae565b503461032457807ffffffffffffffffffffffffffffffffffffffffffffffffffffffffffffffffc36011261032457602073ffffffffffffffffffffffffffffffffffffffff60025416604051908152f35b503461032457807ffffffffffffffffffffffffffffffffffffffffffffffffffffffffffffffffc3601126103245773ffffffffffffffffffffffffffffffffffffffff6020915416604051908152f35b50346103245760607ffffffffffffffffffffffffffffffffffffffffffffffffffffffffffffffffc36011261032457602061045b6105a6610c34565b6024359061148e565b503461069d5760407ffffffffffffffffffffffffffffffffffffffffffffffffffffffffffffffffc36011261069d576105e7610c34565b6105ef610c57565b906105f8611626565b73ffffffffffffffffffffffffffffffffffffffff6002541690813b1561069d57606473ffffffffffffffffffffffffffffffffffffffff915f80948460405197889687957fbda7738600000000000000000000000000000000000000000000000000000000875216600486015216602484015261708060448401525af1801561069257610684575080f35b61069091505f90610dd3565b005b6040513d5f823e3d90fd5b5f80fd5b3461069d5760207ffffffffffffffffffffffffffffffffffffffffffffffffffffffffffffffffc36011261069d5773ffffffffffffffffffffffffffffffffffffffff6106ed610c34565b6106f5611626565b167fffffffffffffffffffffffff000000000000000000000000000000000000000060025416176002555f80f35b3461069d575f7ffffffffffffffffffffffffffffffffffffffffffffffffffffffffffffffffc36011261069d57610759611457565b5060a060405161076881610d6d565b600354815260045460208201526005546040820152600654606082015260075460808201526107c2604051809260808091805184526020810151602085015260408101516040850152606081015160608501520151910152565bf35b3461069d575f7ffffffffffffffffffffffffffffffffffffffffffffffffffffffffffffffffc36011261069d576107fa611626565b5f73ffffffffffffffffffffffffffffffffffffffff81547fffffffffffffffffffffffff000000000000000000000000000000000000000081168355167f8be0079c531659141344cd1fd0a4f28419497f9722a3daafe3b4186f6b6457e08280a3005b3461069d575f7ffffffffffffffffffffffffffffffffffffffffffffffffffffffffffffffffc36011261069d57602073ffffffffffffffffffffffffffffffffffffffff60015416604051908152f35b3461069d5760207ffffffffffffffffffffffffffffffffffffffffffffffffffffffffffffffffc36011261069d5760206108eb600435611580565b6040519015158152f35b3461069d576101007ffffffffffffffffffffffffffffffffffffffffffffffffffffffffffffffffc36011261069d5761092d611457565b5060043561093a81611580565b15610a1c5760a09061094e60843582611359565b905f80914681036109f4575b5061271061098761097e61096c610d06565b610974610d29565b50606435906114b6565b60055490610cc6565b0461099b816109968487611481565b611481565b91604051946109a986610d6d565b855260208501526040840152606083015260808201526107c2604051809260808091805184526020810151602085015260408101516040850152606081015160608501520151910152565b915050610a15610a0e610a05610d06565b6064359061148e565b91466115f2565b908461095a565b7f7a47c9a2000000000000000000000000000000000000000000000000000000005f5260045ffd5b3461069d57602061045b610a5736610c7a565b90611359565b3461069d5760207ffffffffffffffffffffffffffffffffffffffffffffffffffffffffffffffffc36011261069d576024600435602073ffffffffffffffffffffffffffffffffffffffff60015416604051938480927f5c3db76c0000000000000000000000000000000000000000000000000000000082528560048301525afa8015610692575f90610b12575b60209250159081610b02575b506040519015158152f35b610b0c9150611580565b82610af7565b50906020813d602011610b48575b81610b2d60209383610dd3565b8101031261069d575190811515820361069d57602091610aeb565b3d9150610b20565b3461069d5760207ffffffffffffffffffffffffffffffffffffffffffffffffffffffffffffffffc36011261069d5760043567ffffffffffffffff811161069d5760e07ffffffffffffffffffffffffffffffffffffffffffffffffffffffffffffffffc823603011261069d57610bcb604091600401610e9b565b82519182526020820152f35b3461069d5760807ffffffffffffffffffffffffffffffffffffffffffffffffffffffffffffffffc36011261069d576020612710610c2b61097e610c19610c34565b610c21610c57565b50604435906114b6565b04604051908152f35b6004359073ffffffffffffffffffffffffffffffffffffffff8216820361069d57565b6024359073ffffffffffffffffffffffffffffffffffffffff8216820361069d57565b7ffffffffffffffffffffffffffffffffffffffffffffffffffffffffffffffffc604091011261069d576004359060243590565b3461069d576020612710610c2b610cc436610c7a565b905b81810292918115918404141715610cd957565b7f4e487b71000000000000000000000000000000000000000000000000000000005f52601160045260245ffd5b60243573ffffffffffffffffffffffffffffffffffffffff8116810361069d5790565b60443573ffffffffffffffffffffffffffffffffffffffff8116810361069d5790565b3573ffffffffffffffffffffffffffffffffffffffff8116810361069d5790565b60a0810190811067ffffffffffffffff821117610d8957604052565b7f4e487b71000000000000000000000000000000000000000000000000000000005f52604160045260245ffd5b610100810190811067ffffffffffffffff821117610d8957604052565b90601f7fffffffffffffffffffffffffffffffffffffffffffffffffffffffffffffffe0910116810190811067ffffffffffffffff821117610d8957604052565b908160a091031261069d57608060405191610e2e83610d6d565b805183526020810151602084015260408101516040840152606081015160608401520151608082015290565b8051821015610e6e5760209160051b010190565b7f4e487b71000000000000000000000000000000000000000000000000000000005f52603260045260245ffd5b60405160c09291610eac8483610dd3565b600582526020820160a0368237825115610e6e57806001915052815160011015610e6e5761a4b16040830152815160021015610e6e57600a6060830152815160031015610e6e5760896080830152815160041015610e6e576110489061210560a0840152610f1981610d4c565b92602082019560a0610f2a88610d4c565b9573ffffffffffffffffffffffffffffffffffffffff6040860135978160405193610f5485610db6565b4685521660208401521660408201528660608201526201d4c0608082015233828201526201d4c0838201523a60e0820152604051809681927f4b6ded6f0000000000000000000000000000000000000000000000000000000083526004830191909160e0806101008301948051845273ffffffffffffffffffffffffffffffffffffffff602082015116602085015273ffffffffffffffffffffffffffffffffffffffff6040820151166040850152606081015160608501526080810151608085015273ffffffffffffffffffffffffffffffffffffffff60a08201511660a085015260c081015160c08501520151910152565b0381305afa938415610692575f94611338575b506060959195469401958651945f93620668a0945b83518110156112fc576110838185610e5a565b514681148015611256575b61124d576111bb60a08d73ffffffffffffffffffffffffffffffffffffffff6110bf6110b98d610d4c565b92610d4c565b81604051936110cd85610db6565b8785521660208401521660408201528c6060820152896080820152338282015289898201523a60e0820152604051809381927f4b6ded6f0000000000000000000000000000000000000000000000000000000083526004830191909160e0806101008301948051845273ffffffffffffffffffffffffffffffffffffffff602082015116602085015273ffffffffffffffffffffffffffffffffffffffff6040820151166040850152606081015160608501526080810151608085015273ffffffffffffffffffffffffffffffffffffffff60a08201511660a085015260c081015160c08501520151910152565b0381305afa908115610692575f9161121f575b5060a08901358015159081611211575b5061120757606001518981106111fb575b50506001905b01611070565b9850925060015f6111ef565b50506001906111f5565b90506080820151115f6111de565b611240915060a03d8111611246575b6112388183610dd3565b810190610e14565b5f6111ce565b503d61122e565b506001906111f5565b50858801357fffffffffffffffffffffffffffffffffffffffffffffffffffffffffffffffe18936030181121561069d57880180359067ffffffffffffffff821161069d5760208101908260051b803603831361069d57602090818101946112c16040519687610dd3565b85528185019201019136831161069d57905b8282106112ec575050506112e7908261154d565b61108e565b81358152602091820191016112d3565b509751909850955050505081831115905061132f578103908111610cd957915b468114611327579190565b504691505f90565b50505f9161131c565b61135291945060a03d60a011611246576112388183610dd3565b925f61105b565b90602073ffffffffffffffffffffffffffffffffffffffff60015416926024604051809581937fdc74827100000000000000000000000000000000000000000000000000000000835260048301525afa918215610692575f92611423575b508060075461271081116113db575b5050633b9aca00916113d791610cc6565b0490565b9150917fffffffffffffffffffffffffffffffffffffffffffffffffffffffffffffd8f08201918211610cd95761141a6113d792633b9aca00946115cf565b918193506113c6565b9091506020813d60201161144f575b8161143f60209383610dd3565b8101031261069d5751905f6113b7565b3d9150611432565b6040519061146482610d6d565b5f6080838281528260208201528260408201528260608201520152565b91908201809211610cd957565b6114aa6114a16114b393612710936114b6565b60045490610cc6565b04600354611481565b90565b73ffffffffffffffffffffffffffffffffffffffff6044602092826002541660405195869485937ff08a25ed00000000000000000000000000000000000000000000000000000000855216600484015260248301525afa908115610692575f9161151e575090565b90506020813d602011611545575b8161153960209383610dd3565b8101031261069d575190565b3d915061152c565b5f5b825181101561157957816115638285610e5a565b51146115715760010161154f565b505050600190565b5050505f90565b600181149081156115c3575b81156115b8575b81156115ad575b81156115a4575090565b61210591501490565b60898114915061159a565b600a81149150611593565b61a4b18114915061158c565b9080156115ee57906127106115e76114b39383610cc6565b0490611481565b5090565b81811461162057600114908115611615575b5061160f5761025890565b61012c90565b60019150145f611604565b50505f90565b73ffffffffffffffffffffffffffffffffffffffff5f5416330361164657565b7f118cdaa7000000000000000000000000000000000000000000000000000000005f523360045260245ffdfea2646970667358221220de4b6ca240a5c0f64193bf8c4c7dad4023b6bf9c443f548f0ff2af80450ab84464736f6c634300081a0033","linkReferences":{}},"methodIdentifiers":{"calculateBridgeFeeUSD(address,uint256,uint256)":"89bbac4e","calculateGasCostUSD(uint256,uint256)":"3ead1b75","calculateMEVProtectionFee(uint256,uint256)":"c511ae27","calculateSlippageCost(uint256,uint256)":"56106746","calculateTotalCost((uint256,address,address,uint256,uint256,address,uint256,uint256))":"4b6ded6f","chainlinkIntegration()":"abcb5634","convertToUSD(address,uint256)":"f08a25ed","costParameters()":"d3ca930b","estimateSlippageCost(address,address,uint256,uint256)":"08968b1a","findOptimalChain((address,address,uint256,uint256,uint256,uint256,uint256[]))":"0d45b96b","gasPriceOracle()":"6f6dc5ae","getCostParameters()":"7b97722f","isChainSupported(uint256)":"5221c1f0","isCostCalculationReliable(uint256)":"2a9c5683","owner()":"8da5cb5b","renounceOwnership()":"715018a6","transferOwnership(address)":"f2fde38b","updateChainlinkIntegration(address)":"7c45391d","updateCostParameters((uint256,uint256,uint256,uint256,uint256))":"fc5b3d41","updateTokenPriceFeed(address,address)":"82d2f5b1"},"id":102}