{"abi":[{"type":"constructor","inputs":[{"name":"initialOwner","type":"address","internalType":"address"}],"stateMutability":"nonpayable"},{"type":"function","name":"DEFAULT_HEARTBEAT","inputs":[],"outputs":[{"name":"","type":"uint256","internalType":"uint256"}],"stateMutability":"view"},{"type":"function","name":"ETH_ADDRESS","inputs":[],"outputs":[{"name":"","type":"address","internalType":"address"}],"stateMutability":"view"},{"type":"function","name":"MAX_PRICE_AGE","inputs":[],"outputs":[{"name":"","type":"uint256","internalType":"uint256"}],"stateMutability":"view"},{"type":"function","name":"WETH_ADDRESS","inputs":[],"outputs":[{"name":"","type":"address","internalType":"address"}],"stateMutability":"view"},{"type":"function","name":"addPriceFeed","inputs":[{"name":"token","type":"address","internalType":"address"},{"name":"priceFeed","type":"address","internalType":"address"},{"name":"heartbeat","type":"uint256","internalType":"uint256"}],"outputs":[],"stateMutability":"nonpayable"},{"type":"function","name":"calculateGasCostUSD","inputs":[{"name":"gasUsed","type":"uint256","internalType":"uint256"},{"name":"gasPrice","type":"uint256","internalType":"uint256"},{"name":"","type":"uint256","internalType":"uint256"}],"outputs":[{"name":"","type":"uint256","internalType":"uint256"}],"stateMutability":"view"},{"type":"function","name":"convertFromUSD","inputs":[{"name":"token","type":"address","internalType":"address"},{"name":"usdAmount","type":"uint256","internalType":"uint256"}],"outputs":[{"name":"","type":"uint256","internalType":"uint256"}],"stateMutability":"view"},{"type":"function","name":"convertToUSD","inputs":[{"name":"token","type":"address","internalType":"address"},{"name":"amount","type":"uint256","internalType":"uint256"}],"outputs":[{"name":"","type":"uint256","internalType":"uint256"}],"stateMutability":"view"},{"type":"function","name":"ethPriceFeeds","inputs":[{"name":"","type":"uint256","internalType":"uint256"}],"outputs":[{"name":"","type":"address","internalType":"address"}],"stateMutability":"view"},{"type":"function","name":"getETHPriceUSD","inputs":[],"outputs":[{"name":"","type":"tuple","internalType":"struct IChainlinkAggregator.PriceData","components":[{"name":"price","type":"uint256","internalType":"uint256"},{"name":"timestamp","type":"uint256","internalType":"uint256"},{"name":"roundId","type":"uint80","internalType":"uint80"},{"name":"isValid","type":"bool","internalType":"bool"}]}],"stateMutability":"view"},{"type":"function","name":"getGasPriceETH","inputs":[{"name":"chainId","type":"uint256","internalType":"uint256"}],"outputs":[{"name":"gasPrice","type":"uint256","internalType":"uint256"}],"stateMutability":"view"},{"type":"function","name":"getMultipleTokenPricesUSD","inputs":[{"name":"tokens","type":"address[]","internalType":"address[]"}],"outputs":[{"name":"prices","type":"tuple[]","internalType":"struct IChainlinkAggregator.PriceData[]","components":[{"name":"price","type":"uint256","internalType":"uint256"},{"name":"timestamp","type":"uint256","internalType":"uint256"},{"name":"roundId","type":"uint80","internalType":"uint80"},{"name":"isValid","type":"bool","internalType":"bool"}]}],"stateMutability":"view"},{"type":"function","name":"getPriceFeedData","inputs":[{"name":"token","type":"address","internalType":"address"}],"outputs":[{"name":"","type":"tuple","internalType":"struct IChainlinkAggregator.PriceFeedData","components":[{"name":"feedAddress","type":"address","internalType":"address"},{"name":"heartbeat","type":"uint256","internalType":"uint256"},{"name":"decimals","type":"uint8","internalType":"uint8"},{"name":"isActive","type":"bool","internalType":"bool"}]}],"stateMutability":"view"},{"type":"function","name":"getTokenPriceUSD","inputs":[{"name":"token","type":"address","internalType":"address"}],"outputs":[{"name":"","type":"tuple","internalType":"struct IChainlinkAggregator.PriceData","components":[{"name":"price","type":"uint256","internalType":"uint256"},{"name":"timestamp","type":"uint256","internalType":"uint256"},{"name":"roundId","type":"uint80","internalType":"uint80"},{"name":"isValid","type":"bool","internalType":"bool"}]}],"stateMutability":"view"},{"type":"function","name":"isPriceFeedValid","inputs":[{"name":"token","type":"address","internalType":"address"}],"outputs":[{"name":"","type":"bool","internalType":"bool"}],"stateMutability":"view"},{"type":"function","name":"isPriceStale","inputs":[{"name":"token","type":"address","internalType":"address"},{"name":"maxAge","type":"uint256","internalType":"uint256"}],"outputs":[{"name":"","type":"bool","internalType":"bool"}],"stateMutability":"view"},{"type":"function","name":"owner","inputs":[],"outputs":[{"name":"","type":"address","internalType":"address"}],"stateMutability":"view"},{"type":"function","name":"priceFeeds","inputs":[{"name":"","type":"address","internalType":"address"}],"outputs":[{"name":"feedAddress","type":"address","internalType":"address"},{"name":"heartbeat","type":"uint256","internalType":"uint256"},{"name":"decimals","type":"uint8","internalType":"uint8"},{"name":"isActive","type":"bool","internalType":"bool"}],"stateMutability":"view"},{"type":"function","name":"removePriceFeed","inputs":[{"name":"token","type":"address","internalType":"address"}],"outputs":[],"stateMutability":"nonpayable"},{"type":"function","name":"renounceOwnership","inputs":[],"outputs":[],"stateMutability":"nonpayable"},{"type":"function","name":"transferOwnership","inputs":[{"name":"newOwner","type":"address","internalType":"address"}],"outputs":[],"stateMutability":"nonpayable"},{"type":"function","name":"updateETHPriceFeed","inputs":[{"name":"chainId","type":"uint256","internalType":"uint256"},{"name":"priceFeed","type":"address","internalType":"address"}],"outputs":[],"stateMutability":"nonpayable"},{"type":"function","name":"updatePriceFeed","inputs":[{"name":"token","type":"address","internalType":"address"},{"name":"newPriceFeed","type":"address","internalType":"address"}],"outputs":[],"stateMutability":"nonpayable"},{"type":"event","name":"OwnershipTransferred","inputs":[{"name":"previousOwner","type":"address","indexed":true,"internalType":"address"},{"name":"newOwner","type":"address","indexed":true,"internalType":"address"}],"anonymous":false},{"type":"event","name":"PriceDataQueried","inputs":[{"name":"token","type":"address","indexed":true,"internalType":"address"},{"name":"price","type":"uint256","indexed":false,"internalType":"uint256"},{"name":"timestamp","type":"uint256","indexed":false,"internalType":"uint256"}],"anonymous":false},{"type":"event","name":"PriceFeedAdded","inputs":[{"name":"token","type":"address","indexed":true,"internalType":"address"},{"name":"priceFeed","type":"address","indexed":true,"internalType":"address"},{"name":"heartbeat","type":"uint256","indexed":false,"internalType":"uint256"}],"anonymous":false},{"type":"event","name":"PriceFeedRemoved","inputs":[{"name":"token","type":"address","indexed":true,"internalType":"address"},{"name":"priceFeed","type":"address","indexed":true,"internalType":"address"}],"anonymous":false},{"type":"event","name":"PriceFeedUpdated","inputs":[{"name":"token","type":"address","indexed":true,"internalType":"address"},{"name":"oldFeed","type":"address","indexed":true,"internalType":"address"},{"name":"newFeed","type":"address","indexed":true,"internalType":"address"}],"anonymous":false},{"type":"error","name":"InvalidHeartbeat","inputs":[{"name":"heartbeat","type":"uint256","internalType":"uint256"}]},{"type":"error","name":"InvalidPriceFeed","inputs":[{"name":"token","type":"address","internalType":"address"}]},{"type":"error","name":"OwnableInvalidOwner","inputs":[{"name":"owner","type":"address","internalType":"address"}]},{"type":"error","name":"OwnableUnauthorizedAccount","inputs":[{"name":"account","type":"address","internalType":"address"}]},{"type":"error","name":"StalePriceData","inputs":[{"name":"token","type":"address","internalType":"address"},{"name":"lastUpdate","type":"uint256","internalType":"uint256"}]},{"type":"error","name":"UnsupportedToken","inputs":[{"name":"token","type":"address","internalType":"address"}]},{"type":"error","name":"ZeroPrice","inputs":[{"name":"token","type":"address","internalType":"address"}]}],"bytecode":{"object":"0x60806040523461051257604051601f611fbf38819003918201601f19168301916001600160401b038311848410176105165780849260209460405283398101031261051257516001600160a01b038116908190036105125780156104ff575f80546001600160a01b03198116831782556001600160a01b0316907f8be0079c531659141344cd1fd0a4f28419497f9722a3daafe3b4186f6b6457e09080a360015f5260026020527fe90b7bceb6e7df5418fb78d8ee546e97c83a08bbccc01a0644d599ccd2a7c2e080546001600160a01b031916735f4ec3df9cbd43714fe2740f5e3616155c5b84191790556100f361052a565b738fffffd4afb6115b954bd326cbe7b4ba576818f68152617080602080830191825260086040840181815260016060860181815273a0b86a33e6c4b4c2cc6c1c4cdbbd0d8c7b4e5d2a5f52935293517f30737e5eef583e5bea49a8ecc49dd42d946287a1f205224bd0955b7d9fd5fde480546001600160a01b0319166001600160a01b039290921691909117905591517f30737e5eef583e5bea49a8ecc49dd42d946287a1f205224bd0955b7d9fd5fde55591517f30737e5eef583e5bea49a8ecc49dd42d946287a1f205224bd0955b7d9fd5fde68054935161ffff1990941660ff929092169190911792151590911b61ff00169190911790556101f561052a565b732c1d072e956affc0d435cb7ac38ef18d24d9127c8152617080602080830191825260086040840181815260016060860181815273514910771af9ca656af840dff83e8264ecf986ca5f52935293517fe89c7fdde16d73df52123eeeea029dc13aac79541c1e3f4a29a739e9dc0128c780546001600160a01b0319166001600160a01b039290921691909117905591517fe89c7fdde16d73df52123eeeea029dc13aac79541c1e3f4a29a739e9dc0128c85591517fe89c7fdde16d73df52123eeeea029dc13aac79541c1e3f4a29a739e9dc0128c98054935161ffff1990941660ff929092169190911792151590911b61ff00169190911790556102f761052a565b73f4030086522a5beea4988f8ca5b36dbc97bee88c81526170806020808301918252600860408401818152600160608601818152732260fac5e5542a773aa44fbcfedf7c193bc2c5995f52935293517f158cab4f3f3d7fb3fa7c40cadad4cf2a7d7d1541704c6190fb3782e9411c281780546001600160a01b0319166001600160a01b039290921691909117905591517f158cab4f3f3d7fb3fa7c40cadad4cf2a7d7d1541704c6190fb3782e9411c28185591517f158cab4f3f3d7fb3fa7c40cadad4cf2a7d7d1541704c6190fb3782e9411c28198054935161ffff1990941660ff929092169190911792151590911b61ff00169190911790556103f961052a565b733e7d1eab13ad0104d2750b8863b489d65364e32d815261708060208083019182526008604080850182815260016060870181815273dac17f958d2ee523a2206206994597c13d831ec75f52945294517f591a3b2777bc31889c69fb5cad740ac457874aa5ce74c0ad08912df8ad7d112c80546001600160a01b0319166001600160a01b039290921691909117905592517f591a3b2777bc31889c69fb5cad740ac457874aa5ce74c0ad08912df8ad7d112d5592517f591a3b2777bc31889c69fb5cad740ac457874aa5ce74c0ad08912df8ad7d112e8054925161ffff1990931660ff929092169190911791151590931b61ff00161790915551611a75908161054a8239f35b631e4fbdf760e01b5f525f60045260245ffd5b5f80fd5b634e487b7160e01b5f52604160045260245ffd5b60405190608082016001600160401b038111838210176105165760405256fe6080806040526004361015610012575f80fd5b5f3560e01c908163040141e5146113765750806308453cf81461133c57806315393a641461124f5780631560091f1461118d5780632a2cef0a1461114c5780633a3d1f98146110045780633a55c53a14610fc05780634b59bb8c14610f31578063715018a614610e975780638da5cb5b14610e47578063907abef414610df85780639d7f7e8614610dbe5780639dcb511a14610d1e578063a621639114610b19578063a734f06e14610ae1578063b0f7812e14610a83578063b7997da1146108fb578063bda7738614610593578063ec4aa056146104bf578063ee69f7081461044c578063f08a25ed1461032c578063f2fde38b146102405763fceb002414610119575f80fd5b3461023c5760207ffffffffffffffffffffffffffffffffffffffffffffffffffffffffffffffffc36011261023c5773ffffffffffffffffffffffffffffffffffffffff6101656113c0565b61016d6119f3565b16805f52600160205260405f209073ffffffffffffffffffffffffffffffffffffffff82541691821561021057600281017fffffffffffffffffffffffffffffffffffffffffffffffffffffffffffff00ff81541690557fffffffffffffffffffffffff000000000000000000000000000000000000000081541690557fac49089020c52dc09b25997730450c4b6b62a7637a33c7ee7d4a3b9bbafb73e95f80a3005b507fbf16aab6000000000000000000000000000000000000000000000000000000005f5260045260245ffd5b5f80fd5b3461023c5760207ffffffffffffffffffffffffffffffffffffffffffffffffffffffffffffffffc36011261023c5773ffffffffffffffffffffffffffffffffffffffff61028c6113c0565b6102946119f3565b1680156103005773ffffffffffffffffffffffffffffffffffffffff5f54827fffffffffffffffffffffffff00000000000000000000000000000000000000008216175f55167f8be0079c531659141344cd1fd0a4f28419497f9722a3daafe3b4186f6b6457e05f80a3005b7f1e4fbdf7000000000000000000000000000000000000000000000000000000005f525f60045260245ffd5b3461023c5760407ffffffffffffffffffffffffffffffffffffffffffffffffffffffffffffffffc36011261023c576103636113c0565b73ffffffffffffffffffffffffffffffffffffffff604051917f2a2cef0a00000000000000000000000000000000000000000000000000000000835216806004830152608082602481305afa918215610441575f92610410575b506060820151156103e55760206305f5e1006103dc8451602435611406565b04604051908152f35b7fd5bd26f2000000000000000000000000000000000000000000000000000000005f5260045260245ffd5b61043391925060803d60801161043a575b61042b8183611462565b8101906114ba565b90826103bd565b503d610421565b6040513d5f823e3d90fd5b3461023c575f7ffffffffffffffffffffffffffffffffffffffffffffffffffffffffffffffffc36011261023c57608061048461182b565b6104bd604051809260608091805184526020810151602085015269ffffffffffffffffffff604082015116604085015201511515910152565bf35b3461023c5760207ffffffffffffffffffffffffffffffffffffffffffffffffffffffffffffffffc36011261023c5773ffffffffffffffffffffffffffffffffffffffff61050b6113c0565b610513611506565b50165f526001602052608060405f206040519061052f82611419565b60ff73ffffffffffffffffffffffffffffffffffffffff8254169283815260026001840154936020830194855201549282606060408401938287168552019460081c1615158452604051948552516020850152511660408301525115156060820152f35b3461023c5760607ffffffffffffffffffffffffffffffffffffffffffffffffffffffffffffffffc36011261023c576105ca6113c0565b6105d26113e3565b9073ffffffffffffffffffffffffffffffffffffffff604435926105f46119f3565b169182156108b957801561088e576040517ffeaf968c00000000000000000000000000000000000000000000000000000000815260a081600481875afa5f9181610858575b506106805773ffffffffffffffffffffffffffffffffffffffff837fd5bd26f2000000000000000000000000000000000000000000000000000000005f521660045260245ffd5b5f1215610816576040517f313ce567000000000000000000000000000000000000000000000000000000008152602081600481875afa918215610441577f660f0da2075a092815571162615fa43a37de9d3dbca218910cd6925863b68f11926020925f916107e9575b50604051946106f786611419565b86865260ff80600286890198868a5282604082019616865273ffffffffffffffffffffffffffffffffffffffff60608201956001875216998a5f526001895273ffffffffffffffffffffffffffffffffffffffff8060405f20935116167fffffffffffffffffffffffff000000000000000000000000000000000000000083541617825551600182015501935116167fffffffffffffffffffffffffffffffffffffffffffffffffffffffffffffff008354161782555115157fffffffffffffffffffffffffffffffffffffffffffffffffffffffffffff00ff61ff0083549260081b169116179055604051908152a3005b6108099150833d851161080f575b6108018183611462565b810190611812565b866106e9565b503d6107f7565b73ffffffffffffffffffffffffffffffffffffffff827f4a6f5ccb000000000000000000000000000000000000000000000000000000005f521660045260245ffd5b61087b91925060a03d60a011610887575b6108738183611462565b810190611688565b50505090509085610639565b503d610869565b7f290150aa000000000000000000000000000000000000000000000000000000005f5260045260245ffd5b73ffffffffffffffffffffffffffffffffffffffff827fd5bd26f2000000000000000000000000000000000000000000000000000000005f521660045260245ffd5b3461023c5760407ffffffffffffffffffffffffffffffffffffffffffffffffffffffffffffffffc36011261023c576109326113c0565b73ffffffffffffffffffffffffffffffffffffffff61094f6113e3565b916109586119f3565b1690815f52600160205260405f209173ffffffffffffffffffffffffffffffffffffffff835416918215610210578073ffffffffffffffffffffffffffffffffffffffff8092167fffffffffffffffffffffffff00000000000000000000000000000000000000008654161785551692604051907f313ce567000000000000000000000000000000000000000000000000000000008252602082600481885afa918215610441575f92610a5c575b50600260ff910191167fffffffffffffffffffffffffffffffffffffffffffffffffffffffffffffff008254161790557f749f8bd52d751fb993fa16283117f0242f19e5471f5cb26f1185d1028cd803e55f80a4005b60ff919250610a7b60029160203d60201161080f576108018183611462565b929150610a06565b3461023c5760207ffffffffffffffffffffffffffffffffffffffffffffffffffffffffffffffffc36011261023c576004355f526002602052602073ffffffffffffffffffffffffffffffffffffffff60405f205416604051908152f35b3461023c575f7ffffffffffffffffffffffffffffffffffffffffffffffffffffffffffffffffc36011261023c5760206040515f8152f35b3461023c5760207ffffffffffffffffffffffffffffffffffffffffffffffffffffffffffffffffc36011261023c5760043567ffffffffffffffff811161023c573660238201121561023c57806004013567ffffffffffffffff811161023c573660248260051b8401011161023c57610b91816117b9565b91610b9f6040519384611462565b8183527fffffffffffffffffffffffffffffffffffffffffffffffffffffffffffffffe0610bcc836117b9565b015f5b818110610d075750505f5b82811015610c8b5760248160051b830101359073ffffffffffffffffffffffffffffffffffffffff821680920361023c57604051917f2a2cef0a0000000000000000000000000000000000000000000000000000000083526004830152608082602481305afa8015610441576001925f91610c6d575b50610c5b82876117d1565b52610c6681866117d1565b5001610bda565b610c85915060803d811161043a5761042b8183611462565b86610c50565b836040518091602082016020835281518091526020604084019201905f5b818110610cb7575050500390f35b919350916020608082610cf9600194885160608091805184526020810151602085015269ffffffffffffffffffff604082015116604085015201511515910152565b019401910191849392610ca9565b602090610d12611506565b82828801015201610bcf565b3461023c5760207ffffffffffffffffffffffffffffffffffffffffffffffffffffffffffffffffc36011261023c5773ffffffffffffffffffffffffffffffffffffffff610d6a6113c0565b165f526001602052608060405f2060ff73ffffffffffffffffffffffffffffffffffffffff8254169160026001820154910154906040519384526020840152818116604084015260081c1615156060820152f35b3461023c575f7ffffffffffffffffffffffffffffffffffffffffffffffffffffffffffffffffc36011261023c576020604051610e108152f35b3461023c5760407ffffffffffffffffffffffffffffffffffffffffffffffffffffffffffffffffc36011261023c576020610e3d610e346113c0565b602435906116c7565b6040519015158152f35b3461023c575f7ffffffffffffffffffffffffffffffffffffffffffffffffffffffffffffffffc36011261023c57602073ffffffffffffffffffffffffffffffffffffffff5f5416604051908152f35b3461023c575f7ffffffffffffffffffffffffffffffffffffffffffffffffffffffffffffffffc36011261023c57610ecd6119f3565b5f73ffffffffffffffffffffffffffffffffffffffff81547fffffffffffffffffffffffff000000000000000000000000000000000000000081168355167f8be0079c531659141344cd1fd0a4f28419497f9722a3daafe3b4186f6b6457e08280a3005b3461023c5760407ffffffffffffffffffffffffffffffffffffffffffffffffffffffffffffffffc36011261023c57610f686113e3565b610f706119f3565b6004355f52600260205273ffffffffffffffffffffffffffffffffffffffff60405f2091167fffffffffffffffffffffffff00000000000000000000000000000000000000008254161790555f80f35b3461023c5760207ffffffffffffffffffffffffffffffffffffffffffffffffffffffffffffffffc36011261023c576020610ffc60043561162a565b604051908152f35b3461023c5760407ffffffffffffffffffffffffffffffffffffffffffffffffffffffffffffffffc36011261023c5761103b6113c0565b6024359073ffffffffffffffffffffffffffffffffffffffff604051917f2a2cef0a00000000000000000000000000000000000000000000000000000000835216806004830152608082602481305afa918215610441575f9261112b575b506060820151156103e557506305f5e1008202918083046305f5e10014901517156110fe575180156110d15760209104604051908152f35b7f4e487b71000000000000000000000000000000000000000000000000000000005f52601260045260245ffd5b7f4e487b71000000000000000000000000000000000000000000000000000000005f52601160045260245ffd5b61114591925060803d60801161043a5761042b8183611462565b9083611099565b3461023c5760207ffffffffffffffffffffffffffffffffffffffffffffffffffffffffffffffffc36011261023c5760806104846111886113c0565b61152a565b3461023c5760207ffffffffffffffffffffffffffffffffffffffffffffffffffffffffffffffffc36011261023c5773ffffffffffffffffffffffffffffffffffffffff6111d96113c0565b165f5260016020526020606060405f206040516111f581611419565b60ff600273ffffffffffffffffffffffffffffffffffffffff845416938484526001810154878501520154818116604084015260081c161515928391015215159081611247575b506040519015158152f35b90508261123c565b3461023c5760607ffffffffffffffffffffffffffffffffffffffffffffffffffffffffffffffffc36011261023c5761128c602435600435611406565b604051907fee69f708000000000000000000000000000000000000000000000000000000008252608082600481305afa918215610441575f9261131b575b506060820151156112ef576103dc6a52b7d2dcc80cd2e4000000916020935190611406565b7fd5bd26f2000000000000000000000000000000000000000000000000000000005f525f60045260245ffd5b61133591925060803d60801161043a5761042b8183611462565b90826112ca565b3461023c575f7ffffffffffffffffffffffffffffffffffffffffffffffffffffffffffffffffc36011261023c5760206040516170808152f35b3461023c575f7ffffffffffffffffffffffffffffffffffffffffffffffffffffffffffffffffc36011261023c578073c02aaa39b223fe8d0a0e5c4f27ead9083c756cc260209252f35b6004359073ffffffffffffffffffffffffffffffffffffffff8216820361023c57565b6024359073ffffffffffffffffffffffffffffffffffffffff8216820361023c57565b818102929181159184041417156110fe57565b6080810190811067ffffffffffffffff82111761143557604052565b7f4e487b71000000000000000000000000000000000000000000000000000000005f52604160045260245ffd5b90601f7fffffffffffffffffffffffffffffffffffffffffffffffffffffffffffffffe0910116810190811067ffffffffffffffff82111761143557604052565b519069ffffffffffffffffffff8216820361023c57565b9081608091031261023c576060604051916114d483611419565b80518352602081015160208401526114ee604082016114a3565b60408401520151801515810361023c57606082015290565b6040519061151382611419565b5f6060838281528260208201528260408201520152565b73ffffffffffffffffffffffffffffffffffffffff90611548611506565b50168015801561160d575b61160457805f52600160205260405f20906040519161157183611419565b60ff600273ffffffffffffffffffffffffffffffffffffffff83541692838652600181015460208701520154818116604086015260081c1615156060840152156115d9575073ffffffffffffffffffffffffffffffffffffffff6115d69151166118ca565b90565b7fbf16aab6000000000000000000000000000000000000000000000000000000005f5260045260245ffd5b506115d661182b565b5073c02aaa39b223fe8d0a0e5c4f27ead9083c756cc28114611553565b6001810361163c57506406fc23ac0090565b61a4b1810361164e57506305f5e10090565b600a810361165e5750620f424090565b6089810361167057506406fc23ac0090565b61210514611681576402540be40090565b620f424090565b908160a091031261023c5761169c816114a3565b916020820151916040810151916115d66080606084015193016114a3565b919082039182116110fe57565b73ffffffffffffffffffffffffffffffffffffffff165f52600160205260405f206040516116f481611419565b606060ff600273ffffffffffffffffffffffffffffffffffffffff85541694858552600181015460208601520154818116604085015260081c16151591015280156117b25760a0600491604051928380927ffeaf968c0000000000000000000000000000000000000000000000000000000082525afa5f918161178c575b5061177e575050600190565b61178890426116ba565b1190565b6117a691925060a03d60a011610887576108738183611462565b5092505050905f611772565b5050600190565b67ffffffffffffffff81116114355760051b60200190565b80518210156117e55760209160051b010190565b7f4e487b71000000000000000000000000000000000000000000000000000000005f52603260045260245ffd5b9081602091031261023c575160ff8116810361023c5790565b611833611506565b50465f52600260205273ffffffffffffffffffffffffffffffffffffffff60405f2054168015611883575b73ffffffffffffffffffffffffffffffffffffffff8116156112ef576115d6906118ca565b5060015f5260026020527fe90b7bceb6e7df5418fb78d8ee546e97c83a08bbccc01a0644d599ccd2a7c2e05473ffffffffffffffffffffffffffffffffffffffff1661185e565b60a073ffffffffffffffffffffffffffffffffffffffff916118ea611506565b506004604051809481937ffeaf968c000000000000000000000000000000000000000000000000000000008352165afa5f815f935f936119c8575b506119515750505060405161193981611419565b5f81525f60208201525f60408201525f606082015290565b5f8313156119975769ffffffffffffffffffff90610e1061197284426116ba565b1115926040519461198286611419565b85526020850152166040830152606082015290565b604051925069ffffffffffffffffffff916119b184611419565b5f845260208401521660408201525f606082015290565b915092506119e5915060a03d60a011610887576108738183611462565b50939290509092915f611925565b73ffffffffffffffffffffffffffffffffffffffff5f54163303611a1357565b7f118cdaa7000000000000000000000000000000000000000000000000000000005f523360045260245ffdfea264697066735822122070ad894f0d13a600ad40a59cc112df60d554001eb1089fc68ec036fa8b331e2e64736f6c634300081a0033","linkReferences":{}},"methodIdentifiers":{"DEFAULT_HEARTBEAT()":"08453cf8","ETH_ADDRESS()":"a734f06e","MAX_PRICE_AGE()":"9d7f7e86","WETH_ADDRESS()":"040141e5","addPriceFeed(address,address,uint256)":"bda77386","calculateGasCostUSD(uint256,uint256,uint256)":"15393a64","convertFromUSD(address,uint256)":"3a3d1f98","convertToUSD(address,uint256)":"f08a25ed","ethPriceFeeds(uint256)":"b0f7812e","getETHPriceUSD()":"ee69f708","getGasPriceETH(uint256)":"3a55c53a","getMultipleTokenPricesUSD(address[])":"a6216391","getPriceFeedData(address)":"ec4aa056","getTokenPriceUSD(address)":"2a2cef0a","isPriceFeedValid(address)":"1560091f","isPriceStale(address,uint256)":"907abef4","owner()":"8da5cb5b","priceFeeds(address)":"9dcb511a","removePriceFeed(address)":"fceb0024","renounceOwnership()":"715018a6","transferOwnership(address)":"f2fde38b","updateETHPriceFeed(uint256,address)":"4b59bb8c","updatePriceFeed(address,address)":"b7997da1"},"id":108}